{"contracts/XpSwapToken.sol":{"XpSwapToken":{"abi":[{"inputs":[{"internalType":"address","name":"_teamWallet","type":"address"},{"internalType":"address","name":"_developmentWallet","type":"address"},{"internalType":"address","name":"_marketingWallet","type":"address"},{"internalType":"address","name":"_bugBountyWallet","type":"address"}],"stateMutability":"nonpayable","type":"constructor"},{"inputs":[{"internalType":"address","name":"spender","type":"address"},{"internalType":"uint256","name":"allowance","type":"uint256"},{"internalType":"uint256","name":"needed","type":"uint256"}],"name":"ERC20InsufficientAllowance","type":"error"},{"inputs":[{"internalType":"address","name":"sender","type":"address"},{"internalType":"uint256","name":"balance","type":"uint256"},{"internalType":"uint256","name":"needed","type":"uint256"}],"name":"ERC20InsufficientBalance","type":"error"},{"inputs":[{"internalType":"address","name":"approver","type":"address"}],"name":"ERC20InvalidApprover","type":"error"},{"inputs":[{"internalType":"address","name":"receiver","type":"address"}],"name":"ERC20InvalidReceiver","type":"error"},{"inputs":[{"internalType":"address","name":"sender","type":"address"}],"name":"ERC20InvalidSender","type":"error"},{"inputs":[{"internalType":"address","name":"spender","type":"address"}],"name":"ERC20InvalidSpender","type":"error"},{"inputs":[],"name":"EnforcedPause","type":"error"},{"inputs":[],"name":"ExpectedPause","type":"error"},{"inputs":[{"internalType":"address","name":"owner","type":"address"}],"name":"OwnableInvalidOwner","type":"error"},{"inputs":[{"internalType":"address","name":"account","type":"address"}],"name":"OwnableUnauthorizedAccount","type":"error"},{"inputs":[],"name":"ReentrancyGuardReentrantCall","type":"error"},{"anonymous":false,"inputs":[{"indexed":false,"internalType":"string","name":"category","type":"string"},{"indexed":false,"internalType":"address","name":"recipient","type":"address"},{"indexed":false,"internalType":"uint256","name":"amount","type":"uint256"}],"name":"AllocationMinted","type":"event"},{"anonymous":false,"inputs":[{"indexed":true,"internalType":"address","name":"owner","type":"address"},{"indexed":true,"internalType":"address","name":"spender","type":"address"},{"indexed":false,"internalType":"uint256","name":"value","type":"uint256"}],"name":"Approval","type":"event"},{"anonymous":false,"inputs":[{"indexed":false,"internalType":"address","name":"user","type":"address"},{"indexed":false,"internalType":"uint256","name":"xpsBalance","type":"uint256"},{"indexed":false,"internalType":"uint256","name":"discountPercent","type":"uint256"}],"name":"FeeDiscountApplied","type":"event"},{"anonymous":false,"inputs":[{"indexed":true,"internalType":"address","name":"previousOwner","type":"address"},{"indexed":true,"internalType":"address","name":"newOwner","type":"address"}],"name":"OwnershipTransferred","type":"event"},{"anonymous":false,"inputs":[{"indexed":false,"internalType":"address","name":"account","type":"address"}],"name":"Paused","type":"event"},{"anonymous":false,"inputs":[{"indexed":false,"internalType":"uint256","name":"amount","type":"uint256"},{"indexed":false,"internalType":"string","name":"reason","type":"string"}],"name":"TokensBurned","type":"event"},{"anonymous":false,"inputs":[{"indexed":true,"internalType":"address","name":"from","type":"address"},{"indexed":true,"internalType":"address","name":"to","type":"address"},{"indexed":false,"internalType":"uint256","name":"value","type":"uint256"}],"name":"Transfer","type":"event"},{"anonymous":false,"inputs":[{"indexed":false,"internalType":"address","name":"account","type":"address"}],"name":"Unpaused","type":"event"},{"inputs":[],"name":"BASE_FEE","outputs":[{"internalType":"uint256","name":"","type":"uint256"}],"stateMutability":"view","type":"function"},{"inputs":[],"name":"BUG_BOUNTY_ALLOCATION","outputs":[{"internalType":"uint256","name":"","type":"uint256"}],"stateMutability":"view","type":"function"},{"inputs":[],"name":"DEVELOPMENT_ALLOCATION","outputs":[{"internalType":"uint256","name":"","type":"uint256"}],"stateMutability":"view","type":"function"},{"inputs":[],"name":"LIQUIDITY_MINING","outputs":[{"internalType":"uint256","name":"","type":"uint256"}],"stateMutability":"view","type":"function"},{"inputs":[],"name":"MARKETING_ALLOCATION","outputs":[{"internalType":"uint256","name":"","type":"uint256"}],"stateMutability":"view","type":"function"},{"inputs":[],"name":"MAX_SUPPLY","outputs":[{"internalType":"uint256","name":"","type":"uint256"}],"stateMutability":"view","type":"function"},{"inputs":[],"name":"RESERVE_ALLOCATION","outputs":[{"internalType":"uint256","name":"","type":"uint256"}],"stateMutability":"view","type":"function"},{"inputs":[],"name":"STAKING_REWARDS","outputs":[{"internalType":"uint256","name":"","type":"uint256"}],"stateMutability":"view","type":"function"},{"inputs":[],"name":"TEAM_ALLOCATION","outputs":[{"internalType":"uint256","name":"","type":"uint256"}],"stateMutability":"view","type":"function"},{"inputs":[{"internalType":"address","name":"owner","type":"address"},{"internalType":"address","name":"spender","type":"address"}],"name":"allowance","outputs":[{"internalType":"uint256","name":"","type":"uint256"}],"stateMutability":"view","type":"function"},{"inputs":[{"internalType":"address","name":"spender","type":"address"},{"internalType":"uint256","name":"value","type":"uint256"}],"name":"approve","outputs":[{"internalType":"bool","name":"","type":"bool"}],"stateMutability":"nonpayable","type":"function"},{"inputs":[{"internalType":"address","name":"account","type":"address"}],"name":"balanceOf","outputs":[{"internalType":"uint256","name":"","type":"uint256"}],"stateMutability":"view","type":"function"},{"inputs":[],"name":"bugBountyWallet","outputs":[{"internalType":"address","name":"","type":"address"}],"stateMutability":"view","type":"function"},{"inputs":[{"internalType":"uint256","name":"value","type":"uint256"}],"name":"burn","outputs":[],"stateMutability":"nonpayable","type":"function"},{"inputs":[{"internalType":"address","name":"account","type":"address"},{"internalType":"uint256","name":"value","type":"uint256"}],"name":"burnFrom","outputs":[],"stateMutability":"nonpayable","type":"function"},{"inputs":[{"internalType":"uint256","name":"amount","type":"uint256"},{"internalType":"string","name":"reason","type":"string"}],"name":"burnFromRevenue","outputs":[],"stateMutability":"nonpayable","type":"function"},{"inputs":[{"internalType":"address","name":"user","type":"address"}],"name":"calculateFeeDiscount","outputs":[{"internalType":"uint256","name":"","type":"uint256"}],"stateMutability":"view","type":"function"},{"inputs":[{"internalType":"string","name":"","type":"string"}],"name":"categoryLimit","outputs":[{"internalType":"uint256","name":"","type":"uint256"}],"stateMutability":"view","type":"function"},{"inputs":[{"internalType":"string","name":"","type":"string"}],"name":"categoryMinted","outputs":[{"internalType":"uint256","name":"","type":"uint256"}],"stateMutability":"view","type":"function"},{"inputs":[],"name":"decimals","outputs":[{"internalType":"uint8","name":"","type":"uint8"}],"stateMutability":"view","type":"function"},{"inputs":[],"name":"developmentWallet","outputs":[{"internalType":"address","name":"","type":"address"}],"stateMutability":"view","type":"function"},{"inputs":[{"internalType":"uint256","name":"amount","type":"uint256"}],"name":"emergencyBurn","outputs":[],"stateMutability":"nonpayable","type":"function"},{"inputs":[{"internalType":"uint256","name":"","type":"uint256"}],"name":"feeDiscountTiers","outputs":[{"internalType":"uint256","name":"","type":"uint256"}],"stateMutability":"view","type":"function"},{"inputs":[{"internalType":"string","name":"category","type":"string"}],"name":"getAllocationInfo","outputs":[{"internalType":"uint256","name":"limit","type":"uint256"},{"internalType":"uint256","name":"minted","type":"uint256"},{"internalType":"uint256","name":"remaining","type":"uint256"}],"stateMutability":"view","type":"function"},{"inputs":[],"name":"getBurnRate","outputs":[{"internalType":"uint256","name":"","type":"uint256"}],"stateMutability":"view","type":"function"},{"inputs":[],"name":"getCirculatingSupply","outputs":[{"internalType":"uint256","name":"","type":"uint256"}],"stateMutability":"view","type":"function"},{"inputs":[{"internalType":"address","name":"user","type":"address"}],"name":"getEffectiveFee","outputs":[{"internalType":"uint256","name":"","type":"uint256"}],"stateMutability":"view","type":"function"},{"inputs":[],"name":"liquidityMiningContract","outputs":[{"internalType":"address","name":"","type":"address"}],"stateMutability":"view","type":"function"},{"inputs":[],"name":"marketingWallet","outputs":[{"internalType":"address","name":"","type":"address"}],"stateMutability":"view","type":"function"},{"inputs":[{"internalType":"address","name":"recipient","type":"address"},{"internalType":"uint256","name":"amount","type":"uint256"}],"name":"mintLiquidityRewards","outputs":[],"stateMutability":"nonpayable","type":"function"},{"inputs":[{"internalType":"address","name":"recipient","type":"address"},{"internalType":"uint256","name":"amount","type":"uint256"}],"name":"mintStakingRewards","outputs":[],"stateMutability":"nonpayable","type":"function"},{"inputs":[{"internalType":"string","name":"category","type":"string"},{"internalType":"address","name":"recipient","type":"address"},{"internalType":"uint256","name":"amount","type":"uint256"}],"name":"mintToCategory","outputs":[],"stateMutability":"nonpayable","type":"function"},{"inputs":[],"name":"name","outputs":[{"internalType":"string","name":"","type":"string"}],"stateMutability":"view","type":"function"},{"inputs":[],"name":"owner","outputs":[{"internalType":"address","name":"","type":"address"}],"stateMutability":"view","type":"function"},{"inputs":[],"name":"pause","outputs":[],"stateMutability":"nonpayable","type":"function"},{"inputs":[],"name":"paused","outputs":[{"internalType":"bool","name":"","type":"bool"}],"stateMutability":"view","type":"function"},{"inputs":[],"name":"renounceOwnership","outputs":[],"stateMutability":"nonpayable","type":"function"},{"inputs":[],"name":"reserveWallet","outputs":[{"internalType":"address","name":"","type":"address"}],"stateMutability":"view","type":"function"},{"inputs":[{"internalType":"address","name":"_stakingContract","type":"address"},{"internalType":"address","name":"_liquidityMiningContract","type":"address"}],"name":"setContracts","outputs":[],"stateMutability":"nonpayable","type":"function"},{"inputs":[],"name":"stakingContract","outputs":[{"internalType":"address","name":"","type":"address"}],"stateMutability":"view","type":"function"},{"inputs":[],"name":"symbol","outputs":[{"internalType":"string","name":"","type":"string"}],"stateMutability":"view","type":"function"},{"inputs":[],"name":"teamWallet","outputs":[{"internalType":"address","name":"","type":"address"}],"stateMutability":"view","type":"function"},{"inputs":[],"name":"totalBurned","outputs":[{"internalType":"uint256","name":"","type":"uint256"}],"stateMutability":"view","type":"function"},{"inputs":[],"name":"totalSupply","outputs":[{"internalType":"uint256","name":"","type":"uint256"}],"stateMutability":"view","type":"function"},{"inputs":[{"internalType":"address","name":"to","type":"address"},{"internalType":"uint256","name":"value","type":"uint256"}],"name":"transfer","outputs":[{"internalType":"bool","name":"","type":"bool"}],"stateMutability":"nonpayable","type":"function"},{"inputs":[{"internalType":"address","name":"from","type":"address"},{"internalType":"address","name":"to","type":"address"},{"internalType":"uint256","name":"value","type":"uint256"}],"name":"transferFrom","outputs":[{"internalType":"bool","name":"","type":"bool"}],"stateMutability":"nonpayable","type":"function"},{"inputs":[{"internalType":"address","name":"newOwner","type":"address"}],"name":"transferOwnership","outputs":[],"stateMutability":"nonpayable","type":"function"},{"inputs":[],"name":"unpause","outputs":[],"stateMutability":"nonpayable","type":"function"},{"inputs":[{"internalType":"uint256","name":"xpsAmount","type":"uint256"},{"internalType":"uint256","name":"discountPercent","type":"uint256"}],"name":"updateFeeDiscountTier","outputs":[],"stateMutability":"nonpayable","type":"function"},{"inputs":[{"internalType":"address","name":"token","type":"address"},{"internalType":"uint256","name":"amount","type":"uint256"}],"name":"withdrawToken","outputs":[],"stateMutability":"nonpayable","type":"function"}],"evm":{"bytecode":{"linkReferences":{},"object":"60806040523480156200001157600080fd5b5060405162002825380380620028258339810160408190526200003491620009f6565b336040518060400160405280600c81526020016b2c3829bbb0b8102a37b5b2b760a11b8152506040518060400160405280600381526020016258505360e81b815250816003908162000087919062000af9565b50600462000096828262000af9565b5050506001600160a01b038116620000c957604051631e4fbdf760e01b8152600060048201526024015b60405180910390fd5b620000d481620005f2565b5060016006556001600160a01b038416620001325760405162461bcd60e51b815260206004820152601360248201527f496e76616c6964207465616d2077616c6c6574000000000000000000000000006044820152606401620000c0565b6001600160a01b0383166200018a5760405162461bcd60e51b815260206004820152601a60248201527f496e76616c696420646576656c6f706d656e742077616c6c65740000000000006044820152606401620000c0565b6001600160a01b038216620001e25760405162461bcd60e51b815260206004820152601860248201527f496e76616c6964206d61726b6574696e672077616c6c657400000000000000006044820152606401620000c0565b6001600160a01b0381166200023a5760405162461bcd60e51b815260206004820152601960248201527f496e76616c69642062756720626f756e74792077616c6c6574000000000000006044820152606401620000c0565b600780546001600160a01b03199081166001600160a01b0387811691909117909255600880548216868416179055600980548216858416179055600a80548216848416179055600554600d80546101009092049093169116179055612710620002b26105dc6b033b2e3c9fd0803ce800000062000bdb565b620002be919062000bfb565b604051637465616d60e01b815260119060040190815260405190819003602001902055612710620002fe6103e86b033b2e3c9fd0803ce800000062000bdb565b6200030a919062000bfb565b6040516a19195d995b1bdc1b595b9d60aa1b8152601190600b0190815260405190819003602001902055612710620003516101f46b033b2e3c9fd0803ce800000062000bdb565b6200035d919062000bfb565b604051686d61726b6574696e6760b81b815260119060090190815260405190819003602001902055612710620003a160c86b033b2e3c9fd0803ce800000062000bdb565b620003ad919062000bfb565b60405168627567426f756e747960b81b815260119060090190815260405190819003602001902055612710620003f2610fa06b033b2e3c9fd0803ce800000062000bdb565b620003fe919062000bfb565b6040516e6c69717569646974794d696e696e6760881b8152601190600f0190815260405190819003602001902055612710620004496107d06b033b2e3c9fd0803ce800000062000bdb565b62000455919062000bfb565b6040516d7374616b696e675265776172647360901b8152601190600e01908152604051908190036020019020556127106200049f6103206b033b2e3c9fd0803ce800000062000bdb565b620004ab919062000bfb565b604051667265736572766560c81b8152601190600701908152604080516020928190038301812093909355600e8252600a7fc275f1951c0a5383f43de940fcaa66c88400a5ec706840f7ef1861b5548834215560147fe59698a0341c3cdf0c7d90f041cec3d672f079c49d6075acf1f71297951d485155601e7f8fe79a208a0fbb64e7cd930effb4fc9322518fc50c1ab405916d5a4cf49b29c95560327fc0dab36d9eae69cb8c2efecf37e10f3716536f8a069042c5c697d3d825aa7b115569152d02c7e14af6800000600052604b7fe71044a971910efecdb2aff9748dee2c7a9688595c1f812407aef48462b0f5015582810181526004808452637465616d60e01b9284018390526007549151928352620005e893926001600160a01b039092169160119101908152604051908190036020019020546200064c565b5050505062000cc5565b600580546001600160a01b03838116610100818102610100600160a81b031985161790945560405193909204169182907f8be0079c531659141344cd1fd0a4f28419497f9722a3daafe3b4186f6b6457e090600090a35050565b6001600160a01b038216620006985760405162461bcd60e51b8152602060048201526011602482015270125b9d985b1a59081c9958da5c1a595b9d607a1b6044820152606401620000c0565b601183604051620006aa919062000c44565b90815260200160405180910390205481601085604051620006cc919062000c44565b908152602001604051809103902054620006e7919062000c62565b1115620007375760405162461bcd60e51b815260206004820152601b60248201527f457863656564732063617465676f727920616c6c6f636174696f6e00000000006044820152606401620000c0565b6b033b2e3c9fd0803ce8000000816200074f60025490565b6200075b919062000c62565b1115620007a05760405162461bcd60e51b815260206004820152601260248201527145786365656473206d617820737570706c7960701b6044820152606401620000c0565b80601084604051620007b3919062000c44565b90815260200160405180910390206000828254620007d2919062000c62565b90915550620007e49050828262000825565b7eb9efd5ab0446905d6e90d28b0fab5a870033585c358ff23b0d381508c01090838383604051620008189392919062000c78565b60405180910390a1505050565b6001600160a01b038216620008515760405163ec442f0560e01b815260006004820152602401620000c0565b6200085f6000838362000863565b5050565b6200086d6200087f565b6200087a838383620008a6565b505050565b60055460ff1615620008a45760405163d93c066560e01b815260040160405180910390fd5b565b6001600160a01b038316620008d5578060026000828254620008c9919062000c62565b90915550620009499050565b6001600160a01b038316600090815260208190526040902054818110156200092a5760405163391434e360e21b81526001600160a01b03851660048201526024810182905260448101839052606401620000c0565b6001600160a01b03841660009081526020819052604090209082900390555b6001600160a01b038216620009675760028054829003905562000986565b6001600160a01b03821660009081526020819052604090208054820190555b816001600160a01b0316836001600160a01b03167fddf252ad1be2c89b69c2b068fc378daa952ba7f163c4a11628f55a4df523b3ef83604051620009cc91815260200190565b60405180910390a3505050565b80516001600160a01b0381168114620009f157600080fd5b919050565b6000806000806080858703121562000a0d57600080fd5b62000a1885620009d9565b935062000a2860208601620009d9565b925062000a3860408601620009d9565b915062000a4860608601620009d9565b905092959194509250565b634e487b7160e01b600052604160045260246000fd5b600181811c9082168062000a7e57607f821691505b60208210810362000a9f57634e487b7160e01b600052602260045260246000fd5b50919050565b601f8211156200087a576000816000526020600020601f850160051c8101602086101562000ad05750805b601f850160051c820191505b8181101562000af15782815560010162000adc565b505050505050565b81516001600160401b0381111562000b155762000b1562000a53565b62000b2d8162000b26845462000a69565b8462000aa5565b602080601f83116001811462000b65576000841562000b4c5750858301515b600019600386901b1c1916600185901b17855562000af1565b600085815260208120601f198616915b8281101562000b965788860151825594840194600190910190840162000b75565b508582101562000bb55787850151600019600388901b60f8161c191681555b5050505050600190811b01905550565b634e487b7160e01b600052601160045260246000fd5b808202811582820484141762000bf55762000bf562000bc5565b92915050565b60008262000c1957634e487b7160e01b600052601260045260246000fd5b500490565b60005b8381101562000c3b57818101518382015260200162000c21565b50506000910152565b6000825162000c5881846020870162000c1e565b9190910192915050565b8082018082111562000bf55762000bf562000bc5565b606081526000845180606084015262000c9981608085016020890162000c1e565b6001600160a01b039490941660208301525060408101919091526080601f909201601f19160101919050565b611b508062000cd56000396000f3fe608060405234801561001057600080fd5b50600436106102d65760003560e01c806375f0a87411610182578063c04a5414116100e9578063dd62ed3e116100a2578063e1c438b81161007c578063e1c438b814610674578063ee99205c14610687578063f2fde38b1461069a578063fd99cbed146106ad57600080fd5b8063dd62ed3e1461061f578063dfff856814610658578063e1807b271461066b57600080fd5b8063c04a54141461059c578063c5f7a46b146105af578063ca9d47fa146105c2578063d72b11bd146105f0578063d89135cd14610603578063d8952a491461060c57600080fd5b80638e80bd391161013b5780638e80bd391461053f57806395d89b411461054857806396ec4fe3146105505780639e281a9814610563578063a9059cbb14610576578063bdb195511461058957600080fd5b806375f0a874146104c757806379cc6790146104da5780637b5c7f03146104ed57806382f76769146104f65780638456cb59146105215780638da5cb5b1461052957600080fd5b80633d18651e1161024157806359927044116101fa578063695fa425116101d4578063695fa4251461047057806370a0823114610483578063715018a6146104ac5780637422e1af146104b457600080fd5b806359927044146104275780635c95ed24146104525780635c975abb1461046557600080fd5b80633d18651e146103d45780633f4ba83a146103dc57806342966c68146103e45780634325dc77146103f7578063482cd6c5146104175780635648db141461041f57600080fd5b80631e0f7660116102935780631e0f76601461035957806323b872dd146103845780632b112e4914610397578063313ce5671461039f57806332cb6b0c146103ae578063399fa769146103c157600080fd5b80630194a7ca146102db57806306fdde03146102f057806307bce0cd1461030e578063095ea7b31461032557806312aa241e1461034857806318160ddd14610351575b600080fd5b6102ee6102e9366004611715565b6106b6565b005b6102f861077c565b604051610305919061178f565b60405180910390f35b6103176107d081565b604051908152602001610305565b610338610333366004611715565b61080e565b6040519015158152602001610305565b610317610fa081565b600254610317565b610317610367366004611845565b805160208183018101805160118252928201919093012091525481565b61033861039236600461187a565b610828565b61031761084c565b60405160128152602001610305565b6103176b033b2e3c9fd0803ce800000081565b6102ee6103cf366004611715565b61085c565b610317601e81565b6102ee61091a565b6102ee6103f23660046118b6565b61092c565b6103176104053660046118b6565b600e6020526000908152604090205481565b610317610939565b61031760c881565b60075461043a906001600160a01b031681565b6040516001600160a01b039091168152602001610305565b6102ee6104603660046118cf565b610962565b60055460ff16610338565b6102ee61047e366004611916565b61097a565b61031761049136600461195d565b6001600160a01b031660009081526020819052604090205490565b6102ee610a87565b600c5461043a906001600160a01b031681565b60095461043a906001600160a01b031681565b6102ee6104e8366004611715565b610a99565b61031761032081565b610317610504366004611845565b805160208183018101805160108252928201919093012091525481565b6102ee610aae565b60055461010090046001600160a01b031661043a565b6103176101f481565b6102f8610abe565b61031761055e36600461195d565b610acd565b6102ee610571366004611715565b610b68565b610338610584366004611715565b610c56565b61031761059736600461195d565b610c64565b60085461043a906001600160a01b031681565b600a5461043a906001600160a01b031681565b6105d56105d0366004611845565b610dfc565b60408051938452602084019290925290820152606001610305565b600d5461043a906001600160a01b031681565b610317600f5481565b6102ee61061a366004611978565b610e56565b61031761062d366004611978565b6001600160a01b03918216600090815260016020908152604080832093909416825291909152205490565b6102ee6106663660046118b6565b610e8c565b6103176103e881565b6102ee6106823660046119ab565b610fc5565b600b5461043a906001600160a01b031681565b6102ee6106a836600461195d565b611030565b6103176105dc81565b600b546001600160a01b03163314806106d95750600c546001600160a01b031633145b80610705575060055461010090046001600160a01b03166001600160a01b0316336001600160a01b0316145b6107475760405162461bcd60e51b815260206004820152600e60248201526d139bdd08185d5d1a1bdc9a5e995960921b60448201526064015b60405180910390fd5b6107786040518060400160405280600e81526020016d7374616b696e675265776172647360901b815250838361106b565b5050565b60606003805461078b906119cd565b80601f01602080910402602001604051908101604052809291908181526020018280546107b7906119cd565b80156108045780601f106107d957610100808354040283529160200191610804565b820191906000526020600020905b8154815290600101906020018083116107e757829003601f168201915b5050505050905090565b60003361081c81858561122d565b60019150505b92915050565b60003361083685828561123a565b6108418585856112b9565b506001949350505050565b600061085760025490565b905090565b600b546001600160a01b031633148061087f5750600c546001600160a01b031633145b806108ab575060055461010090046001600160a01b03166001600160a01b0316336001600160a01b0316145b6108e85760405162461bcd60e51b815260206004820152600e60248201526d139bdd08185d5d1a1bdc9a5e995960921b604482015260640161073e565b6107786040518060400160405280600f81526020016e6c69717569646974794d696e696e6760881b815250838361106b565b610922611318565b61092a61134b565b565b610936338261139d565b50565b60006b033b2e3c9fd0803ce8000000600f546127106109589190611a1d565b6108579190611a34565b61096a611318565b61097583838361106b565b505050565b610982611318565b600082116109d25760405162461bcd60e51b815260206004820152601d60248201527f416d6f756e74206d7573742062652067726561746572207468616e2030000000604482015260640161073e565b30600090815260208190526040902054821115610a285760405162461bcd60e51b8152602060048201526014602482015273496e73756666696369656e742062616c616e636560601b604482015260640161073e565b610a32308361139d565b81600f6000828254610a449190611a56565b90915550506040517f0666a5f6ae65e87496c94a5940ca3dc5c870546b598ed2992a4e9a61265f1d1e90610a7b9084908490611a69565b60405180910390a15050565b610a8f611318565b61092a60006113d3565b610aa482338361123a565b610778828261139d565b610ab6611318565b61092a61142d565b60606004805461078b906119cd565b60405163bdb1955160e01b81526001600160a01b03821660048201526000908190309063bdb1955190602401602060405180830381865afa158015610b16573d6000803e3d6000fd5b505050506040513d601f19601f82011682018060405250810190610b3a9190611a82565b905060006064610b4b83601e611a1d565b610b559190611a34565b610b6090601e611a9b565b949350505050565b610b70611318565b306001600160a01b03831603610bbe5760405162461bcd60e51b815260206004820152601360248201527243616e6e6f742077697468647261772058505360681b604482015260640161073e565b816001600160a01b031663a9059cbb610be56005546001600160a01b036101009091041690565b6040516001600160e01b031960e084901b1681526001600160a01b039091166004820152602481018490526044016020604051808303816000875af1158015610c32573d6000803e3d6000fd5b505050506040513d601f19601f820116820180604052508101906109759190611aae565b60003361081c8185856112b9565b6001600160a01b038116600090815260208190526040812054600069152d02c7e14af68000008210610ccb575069152d02c7e14af6800000600052600e6020527fe71044a971910efecdb2aff9748dee2c7a9688595c1f812407aef48462b0f50154610df5565b690a968163f0a57b4000008210610d175750690a968163f0a57b400000600052600e6020527fc0dab36d9eae69cb8c2efecf37e10f3716536f8a069042c5c697d3d825aa7b1154610df5565b69021e19e0c9bab24000008210610d63575069021e19e0c9bab2400000600052600e6020527f8fe79a208a0fbb64e7cd930effb4fc9322518fc50c1ab405916d5a4cf49b29c954610df5565b69010f0cf064dd592000008210610daf575069010f0cf064dd59200000600052600e6020527fe59698a0341c3cdf0c7d90f041cec3d672f079c49d6075acf1f71297951d485154610df5565b683635c9adc5dea000008210610df55750683635c9adc5dea00000600052600e6020527fc275f1951c0a5383f43de940fcaa66c88400a5ec706840f7ef1861b554883421545b9392505050565b6000806000601184604051610e119190611ad0565b9081526020016040518091039020549250601084604051610e329190611ad0565b908152604051908190036020019020549150610e4e8284611a9b565b929491935050565b610e5e611318565b600b80546001600160a01b039384166001600160a01b031991821617909155600c8054929093169116179055565b610e94611318565b60008111610ee45760405162461bcd60e51b815260206004820152601d60248201527f416d6f756e74206d7573742062652067726561746572207468616e2030000000604482015260640161073e565b80610eee60025490565b1015610f3c5760405162461bcd60e51b815260206004820152601960248201527f496e73756666696369656e7420746f74616c20737570706c7900000000000000604482015260640161073e565b610f46308261139d565b80600f6000828254610f589190611a56565b90915550506040517f0666a5f6ae65e87496c94a5940ca3dc5c870546b598ed2992a4e9a61265f1d1e90610fba908381526040602082018190526013908201527222b6b2b933b2b731bc903232b33630ba34b7b760691b606082015260800190565b60405180910390a150565b610fcd611318565b606481111561101e5760405162461bcd60e51b815260206004820152601b60248201527f446973636f756e742063616e6e6f742065786365656420313030250000000000604482015260640161073e565b6000918252600e602052604090912055565b611038611318565b6001600160a01b03811661106257604051631e4fbdf760e01b81526000600482015260240161073e565b610936816113d3565b6001600160a01b0382166110b55760405162461bcd60e51b8152602060048201526011602482015270125b9d985b1a59081c9958da5c1a595b9d607a1b604482015260640161073e565b6011836040516110c59190611ad0565b908152602001604051809103902054816010856040516110e59190611ad0565b9081526020016040518091039020546110fe9190611a56565b111561114c5760405162461bcd60e51b815260206004820152601b60248201527f457863656564732063617465676f727920616c6c6f636174696f6e0000000000604482015260640161073e565b6b033b2e3c9fd0803ce80000008161116360025490565b61116d9190611a56565b11156111b05760405162461bcd60e51b815260206004820152601260248201527145786365656473206d617820737570706c7960701b604482015260640161073e565b806010846040516111c19190611ad0565b908152602001604051809103902060008282546111de9190611a56565b909155506111ee9050828261146a565b7eb9efd5ab0446905d6e90d28b0fab5a870033585c358ff23b0d381508c0109083838360405161122093929190611aec565b60405180910390a1505050565b61097583838360016114a0565b6001600160a01b038381166000908152600160209081526040808320938616835292905220546000198110156112b357818110156112a457604051637dc7a0d960e11b81526001600160a01b0384166004820152602481018290526044810183905260640161073e565b6112b3848484840360006114a0565b50505050565b6001600160a01b0383166112e357604051634b637e8f60e11b81526000600482015260240161073e565b6001600160a01b03821661130d5760405163ec442f0560e01b81526000600482015260240161073e565b610975838383611575565b6005546001600160a01b0361010090910416331461092a5760405163118cdaa760e01b815233600482015260240161073e565b611353611588565b6005805460ff191690557f5db9ee0a495bf2e6ff9c91a7834c1ba4fdd244a5e8aa4e537bd38aeae4b073aa335b6040516001600160a01b03909116815260200160405180910390a1565b6001600160a01b0382166113c757604051634b637e8f60e11b81526000600482015260240161073e565b61077882600083611575565b600580546001600160a01b03838116610100818102610100600160a81b031985161790945560405193909204169182907f8be0079c531659141344cd1fd0a4f28419497f9722a3daafe3b4186f6b6457e090600090a35050565b6114356115ab565b6005805460ff191660011790557f62e78cea01bee320cd4e420270b5ea74000d11b0c9f74754ebdbfc544b05a2586113803390565b6001600160a01b0382166114945760405163ec442f0560e01b81526000600482015260240161073e565b61077860008383611575565b6001600160a01b0384166114ca5760405163e602df0560e01b81526000600482015260240161073e565b6001600160a01b0383166114f457604051634a1406b160e11b81526000600482015260240161073e565b6001600160a01b03808516600090815260016020908152604080832093871683529290522082905580156112b357826001600160a01b0316846001600160a01b03167f8c5be1e5ebec7d5bd14f71427d1e84f3dd0314c0f7b2291e5b200ac8c7c3b9258460405161156791815260200190565b60405180910390a350505050565b61157d6115ab565b6109758383836115cf565b60055460ff1661092a57604051638dfc202b60e01b815260040160405180910390fd5b60055460ff161561092a5760405163d93c066560e01b815260040160405180910390fd5b6001600160a01b0383166115fa5780600260008282546115ef9190611a56565b9091555061166c9050565b6001600160a01b0383166000908152602081905260409020548181101561164d5760405163391434e360e21b81526001600160a01b0385166004820152602481018290526044810183905260640161073e565b6001600160a01b03841660009081526020819052604090209082900390555b6001600160a01b038216611688576002805482900390556116a7565b6001600160a01b03821660009081526020819052604090208054820190555b816001600160a01b0316836001600160a01b03167fddf252ad1be2c89b69c2b068fc378daa952ba7f163c4a11628f55a4df523b3ef836040516116ec91815260200190565b60405180910390a3505050565b80356001600160a01b038116811461171057600080fd5b919050565b6000806040838503121561172857600080fd5b611731836116f9565b946020939093013593505050565b60005b8381101561175a578181015183820152602001611742565b50506000910152565b6000815180845261177b81602086016020860161173f565b601f01601f19169290920160200192915050565b602081526000610df56020830184611763565b634e487b7160e01b600052604160045260246000fd5b600082601f8301126117c957600080fd5b813567ffffffffffffffff808211156117e4576117e46117a2565b604051601f8301601f19908116603f0116810190828211818310171561180c5761180c6117a2565b8160405283815286602085880101111561182557600080fd5b836020870160208301376000602085830101528094505050505092915050565b60006020828403121561185757600080fd5b813567ffffffffffffffff81111561186e57600080fd5b610b60848285016117b8565b60008060006060848603121561188f57600080fd5b611898846116f9565b92506118a6602085016116f9565b9150604084013590509250925092565b6000602082840312156118c857600080fd5b5035919050565b6000806000606084860312156118e457600080fd5b833567ffffffffffffffff8111156118fb57600080fd5b611907868287016117b8565b9350506118a6602085016116f9565b6000806040838503121561192957600080fd5b82359150602083013567ffffffffffffffff81111561194757600080fd5b611953858286016117b8565b9150509250929050565b60006020828403121561196f57600080fd5b610df5826116f9565b6000806040838503121561198b57600080fd5b611994836116f9565b91506119a2602084016116f9565b90509250929050565b600080604083850312156119be57600080fd5b50508035926020909101359150565b600181811c908216806119e157607f821691505b602082108103611a0157634e487b7160e01b600052602260045260246000fd5b50919050565b634e487b7160e01b600052601160045260246000fd5b808202811582820484141761082257610822611a07565b600082611a5157634e487b7160e01b600052601260045260246000fd5b500490565b8082018082111561082257610822611a07565b828152604060208201526000610b606040830184611763565b600060208284031215611a9457600080fd5b5051919050565b8181038181111561082257610822611a07565b600060208284031215611ac057600080fd5b81518015158114610df557600080fd5b60008251611ae281846020870161173f565b9190910192915050565b606081526000611aff6060830186611763565b6001600160a01b03949094166020830152506040015291905056fea264697066735822122097fbf56ee7fe2353b752f3190f3ce2da1d3f796cece22ba9439f3f622fc203a164736f6c63430008180033","opcodes":"PUSH1 0x80 PUSH1 0x40 MSTORE CALLVALUE DUP1 ISZERO PUSH3 0x11 JUMPI PUSH1 0x0 DUP1 REVERT JUMPDEST POP PUSH1 0x40 MLOAD PUSH3 0x2825 CODESIZE SUB DUP1 PUSH3 0x2825 DUP4 CODECOPY DUP2 ADD PUSH1 0x40 DUP2 SWAP1 MSTORE PUSH3 0x34 SWAP2 PUSH3 0x9F6 JUMP JUMPDEST CALLER PUSH1 0x40 MLOAD DUP1 PUSH1 0x40 ADD PUSH1 0x40 MSTORE DUP1 PUSH1 0xC DUP2 MSTORE PUSH1 0x20 ADD PUSH12 0x2C3829BBB0B8102A37B5B2B7 PUSH1 0xA1 SHL DUP2 MSTORE POP PUSH1 0x40 MLOAD DUP1 PUSH1 0x40 ADD PUSH1 0x40 MSTORE DUP1 PUSH1 0x3 DUP2 MSTORE PUSH1 0x20 ADD PUSH3 0x585053 PUSH1 0xE8 SHL DUP2 MSTORE POP DUP2 PUSH1 0x3 SWAP1 DUP2 PUSH3 0x87 SWAP2 SWAP1 PUSH3 0xAF9 JUMP JUMPDEST POP PUSH1 0x4 PUSH3 0x96 DUP3 DUP3 PUSH3 0xAF9 JUMP JUMPDEST POP POP POP PUSH1 0x1 PUSH1 0x1 PUSH1 0xA0 SHL SUB DUP2 AND PUSH3 0xC9 JUMPI PUSH1 0x40 MLOAD PUSH4 0x1E4FBDF7 PUSH1 0xE0 SHL DUP2 MSTORE PUSH1 0x0 PUSH1 0x4 DUP3 ADD MSTORE PUSH1 0x24 ADD JUMPDEST PUSH1 0x40 MLOAD DUP1 SWAP2 SUB SWAP1 REVERT JUMPDEST PUSH3 0xD4 DUP2 PUSH3 0x5F2 JUMP JUMPDEST POP PUSH1 0x1 PUSH1 0x6 SSTORE PUSH1 0x1 PUSH1 0x1 PUSH1 0xA0 SHL SUB DUP5 AND PUSH3 0x132 JUMPI PUSH1 0x40 MLOAD PUSH3 0x461BCD PUSH1 0xE5 SHL DUP2 MSTORE PUSH1 0x20 PUSH1 0x4 DUP3 ADD MSTORE PUSH1 0x13 PUSH1 0x24 DUP3 ADD MSTORE PUSH32 0x496E76616C6964207465616D2077616C6C657400000000000000000000000000 PUSH1 0x44 DUP3 ADD MSTORE PUSH1 0x64 ADD PUSH3 0xC0 JUMP JUMPDEST PUSH1 0x1 PUSH1 0x1 PUSH1 0xA0 SHL SUB DUP4 AND PUSH3 0x18A JUMPI PUSH1 0x40 MLOAD PUSH3 0x461BCD PUSH1 0xE5 SHL DUP2 MSTORE PUSH1 0x20 PUSH1 0x4 DUP3 ADD MSTORE PUSH1 0x1A PUSH1 0x24 DUP3 ADD MSTORE PUSH32 0x496E76616C696420646576656C6F706D656E742077616C6C6574000000000000 PUSH1 0x44 DUP3 ADD MSTORE PUSH1 0x64 ADD PUSH3 0xC0 JUMP JUMPDEST PUSH1 0x1 PUSH1 0x1 PUSH1 0xA0 SHL SUB DUP3 AND PUSH3 0x1E2 JUMPI PUSH1 0x40 MLOAD PUSH3 0x461BCD PUSH1 0xE5 SHL DUP2 MSTORE PUSH1 0x20 PUSH1 0x4 DUP3 ADD MSTORE PUSH1 0x18 PUSH1 0x24 DUP3 ADD MSTORE PUSH32 0x496E76616C6964206D61726B6574696E672077616C6C65740000000000000000 PUSH1 0x44 DUP3 ADD MSTORE PUSH1 0x64 ADD PUSH3 0xC0 JUMP JUMPDEST PUSH1 0x1 PUSH1 0x1 PUSH1 0xA0 SHL SUB DUP2 AND PUSH3 0x23A JUMPI PUSH1 0x40 MLOAD PUSH3 0x461BCD PUSH1 0xE5 SHL DUP2 MSTORE PUSH1 0x20 PUSH1 0x4 DUP3 ADD MSTORE PUSH1 0x19 PUSH1 0x24 DUP3 ADD MSTORE PUSH32 0x496E76616C69642062756720626F756E74792077616C6C657400000000000000 PUSH1 0x44 DUP3 ADD MSTORE PUSH1 0x64 ADD PUSH3 0xC0 JUMP JUMPDEST PUSH1 0x7 DUP1 SLOAD PUSH1 0x1 PUSH1 0x1 PUSH1 0xA0 SHL SUB NOT SWAP1 DUP2 AND PUSH1 0x1 PUSH1 0x1 PUSH1 0xA0 SHL SUB DUP8 DUP2 AND SWAP2 SWAP1 SWAP2 OR SWAP1 SWAP3 SSTORE PUSH1 0x8 DUP1 SLOAD DUP3 AND DUP7 DUP5 AND OR SWAP1 SSTORE PUSH1 0x9 DUP1 SLOAD DUP3 AND DUP6 DUP5 AND OR SWAP1 SSTORE PUSH1 0xA DUP1 SLOAD DUP3 AND DUP5 DUP5 AND OR SWAP1 SSTORE PUSH1 0x5 SLOAD PUSH1 0xD DUP1 SLOAD PUSH2 0x100 SWAP1 SWAP3 DIV SWAP1 SWAP4 AND SWAP2 AND OR SWAP1 SSTORE PUSH2 0x2710 PUSH3 0x2B2 PUSH2 0x5DC PUSH12 0x33B2E3C9FD0803CE8000000 PUSH3 0xBDB JUMP JUMPDEST PUSH3 0x2BE SWAP2 SWAP1 PUSH3 0xBFB JUMP JUMPDEST PUSH1 0x40 MLOAD PUSH4 0x7465616D PUSH1 0xE0 SHL DUP2 MSTORE PUSH1 0x11 SWAP1 PUSH1 0x4 ADD SWAP1 DUP2 MSTORE PUSH1 0x40 MLOAD SWAP1 DUP2 SWAP1 SUB PUSH1 0x20 ADD SWAP1 KECCAK256 SSTORE PUSH2 0x2710 PUSH3 0x2FE PUSH2 0x3E8 PUSH12 0x33B2E3C9FD0803CE8000000 PUSH3 0xBDB JUMP JUMPDEST PUSH3 0x30A SWAP2 SWAP1 PUSH3 0xBFB JUMP JUMPDEST PUSH1 0x40 MLOAD PUSH11 0x19195D995B1BDC1B595B9D PUSH1 0xAA SHL DUP2 MSTORE PUSH1 0x11 SWAP1 PUSH1 0xB ADD SWAP1 DUP2 MSTORE PUSH1 0x40 MLOAD SWAP1 DUP2 SWAP1 SUB PUSH1 0x20 ADD SWAP1 KECCAK256 SSTORE PUSH2 0x2710 PUSH3 0x351 PUSH2 0x1F4 PUSH12 0x33B2E3C9FD0803CE8000000 PUSH3 0xBDB JUMP JUMPDEST PUSH3 0x35D SWAP2 SWAP1 PUSH3 0xBFB JUMP JUMPDEST PUSH1 0x40 MLOAD PUSH9 0x6D61726B6574696E67 PUSH1 0xB8 SHL DUP2 MSTORE PUSH1 0x11 SWAP1 PUSH1 0x9 ADD SWAP1 DUP2 MSTORE PUSH1 0x40 MLOAD SWAP1 DUP2 SWAP1 SUB PUSH1 0x20 ADD SWAP1 KECCAK256 SSTORE PUSH2 0x2710 PUSH3 0x3A1 PUSH1 0xC8 PUSH12 0x33B2E3C9FD0803CE8000000 PUSH3 0xBDB JUMP JUMPDEST PUSH3 0x3AD SWAP2 SWAP1 PUSH3 0xBFB JUMP JUMPDEST PUSH1 0x40 MLOAD PUSH9 0x627567426F756E7479 PUSH1 0xB8 SHL DUP2 MSTORE PUSH1 0x11 SWAP1 PUSH1 0x9 ADD SWAP1 DUP2 MSTORE PUSH1 0x40 MLOAD SWAP1 DUP2 SWAP1 SUB PUSH1 0x20 ADD SWAP1 KECCAK256 SSTORE PUSH2 0x2710 PUSH3 0x3F2 PUSH2 0xFA0 PUSH12 0x33B2E3C9FD0803CE8000000 PUSH3 0xBDB JUMP JUMPDEST PUSH3 0x3FE SWAP2 SWAP1 PUSH3 0xBFB JUMP JUMPDEST PUSH1 0x40 MLOAD PUSH15 0x6C69717569646974794D696E696E67 PUSH1 0x88 SHL DUP2 MSTORE PUSH1 0x11 SWAP1 PUSH1 0xF ADD SWAP1 DUP2 MSTORE PUSH1 0x40 MLOAD SWAP1 DUP2 SWAP1 SUB PUSH1 0x20 ADD SWAP1 KECCAK256 SSTORE PUSH2 0x2710 PUSH3 0x449 PUSH2 0x7D0 PUSH12 0x33B2E3C9FD0803CE8000000 PUSH3 0xBDB JUMP JUMPDEST PUSH3 0x455 SWAP2 SWAP1 PUSH3 0xBFB JUMP JUMPDEST PUSH1 0x40 MLOAD PUSH14 0x7374616B696E6752657761726473 PUSH1 0x90 SHL DUP2 MSTORE PUSH1 0x11 SWAP1 PUSH1 0xE ADD SWAP1 DUP2 MSTORE PUSH1 0x40 MLOAD SWAP1 DUP2 SWAP1 SUB PUSH1 0x20 ADD SWAP1 KECCAK256 SSTORE PUSH2 0x2710 PUSH3 0x49F PUSH2 0x320 PUSH12 0x33B2E3C9FD0803CE8000000 PUSH3 0xBDB JUMP JUMPDEST PUSH3 0x4AB SWAP2 SWAP1 PUSH3 0xBFB JUMP JUMPDEST PUSH1 0x40 MLOAD PUSH7 0x72657365727665 PUSH1 0xC8 SHL DUP2 MSTORE PUSH1 0x11 SWAP1 PUSH1 0x7 ADD SWAP1 DUP2 MSTORE PUSH1 0x40 DUP1 MLOAD PUSH1 0x20 SWAP3 DUP2 SWAP1 SUB DUP4 ADD DUP2 KECCAK256 SWAP4 SWAP1 SWAP4 SSTORE PUSH1 0xE DUP3 MSTORE PUSH1 0xA PUSH32 0xC275F1951C0A5383F43DE940FCAA66C88400A5EC706840F7EF1861B554883421 SSTORE PUSH1 0x14 PUSH32 0xE59698A0341C3CDF0C7D90F041CEC3D672F079C49D6075ACF1F71297951D4851 SSTORE PUSH1 0x1E PUSH32 0x8FE79A208A0FBB64E7CD930EFFB4FC9322518FC50C1AB405916D5A4CF49B29C9 SSTORE PUSH1 0x32 PUSH32 0xC0DAB36D9EAE69CB8C2EFECF37E10F3716536F8A069042C5C697D3D825AA7B11 SSTORE PUSH10 0x152D02C7E14AF6800000 PUSH1 0x0 MSTORE PUSH1 0x4B PUSH32 0xE71044A971910EFECDB2AFF9748DEE2C7A9688595C1F812407AEF48462B0F501 SSTORE DUP3 DUP2 ADD DUP2 MSTORE PUSH1 0x4 DUP1 DUP5 MSTORE PUSH4 0x7465616D PUSH1 0xE0 SHL SWAP3 DUP5 ADD DUP4 SWAP1 MSTORE PUSH1 0x7 SLOAD SWAP2 MLOAD SWAP3 DUP4 MSTORE PUSH3 0x5E8 SWAP4 SWAP3 PUSH1 0x1 PUSH1 0x1 PUSH1 0xA0 SHL SUB SWAP1 SWAP3 AND SWAP2 PUSH1 0x11 SWAP2 ADD SWAP1 DUP2 MSTORE PUSH1 0x40 MLOAD SWAP1 DUP2 SWAP1 SUB PUSH1 0x20 ADD SWAP1 KECCAK256 SLOAD PUSH3 0x64C JUMP JUMPDEST POP POP POP POP PUSH3 0xCC5 JUMP JUMPDEST PUSH1 0x5 DUP1 SLOAD PUSH1 0x1 PUSH1 0x1 PUSH1 0xA0 SHL SUB DUP4 DUP2 AND PUSH2 0x100 DUP2 DUP2 MUL PUSH2 0x100 PUSH1 0x1 PUSH1 0xA8 SHL SUB NOT DUP6 AND OR SWAP1 SWAP5 SSTORE PUSH1 0x40 MLOAD SWAP4 SWAP1 SWAP3 DIV AND SWAP2 DUP3 SWAP1 PUSH32 0x8BE0079C531659141344CD1FD0A4F28419497F9722A3DAAFE3B4186F6B6457E0 SWAP1 PUSH1 0x0 SWAP1 LOG3 POP POP JUMP JUMPDEST PUSH1 0x1 PUSH1 0x1 PUSH1 0xA0 SHL SUB DUP3 AND PUSH3 0x698 JUMPI PUSH1 0x40 MLOAD PUSH3 0x461BCD PUSH1 0xE5 SHL DUP2 MSTORE PUSH1 0x20 PUSH1 0x4 DUP3 ADD MSTORE PUSH1 0x11 PUSH1 0x24 DUP3 ADD MSTORE PUSH17 0x125B9D985B1A59081C9958DA5C1A595B9D PUSH1 0x7A SHL PUSH1 0x44 DUP3 ADD MSTORE PUSH1 0x64 ADD PUSH3 0xC0 JUMP JUMPDEST PUSH1 0x11 DUP4 PUSH1 0x40 MLOAD PUSH3 0x6AA SWAP2 SWAP1 PUSH3 0xC44 JUMP JUMPDEST SWAP1 DUP2 MSTORE PUSH1 0x20 ADD PUSH1 0x40 MLOAD DUP1 SWAP2 SUB SWAP1 KECCAK256 SLOAD DUP2 PUSH1 0x10 DUP6 PUSH1 0x40 MLOAD PUSH3 0x6CC SWAP2 SWAP1 PUSH3 0xC44 JUMP JUMPDEST SWAP1 DUP2 MSTORE PUSH1 0x20 ADD PUSH1 0x40 MLOAD DUP1 SWAP2 SUB SWAP1 KECCAK256 SLOAD PUSH3 0x6E7 SWAP2 SWAP1 PUSH3 0xC62 JUMP JUMPDEST GT ISZERO PUSH3 0x737 JUMPI PUSH1 0x40 MLOAD PUSH3 0x461BCD PUSH1 0xE5 SHL DUP2 MSTORE PUSH1 0x20 PUSH1 0x4 DUP3 ADD MSTORE PUSH1 0x1B PUSH1 0x24 DUP3 ADD MSTORE PUSH32 0x457863656564732063617465676F727920616C6C6F636174696F6E0000000000 PUSH1 0x44 DUP3 ADD MSTORE PUSH1 0x64 ADD PUSH3 0xC0 JUMP JUMPDEST PUSH12 0x33B2E3C9FD0803CE8000000 DUP2 PUSH3 0x74F PUSH1 0x2 SLOAD SWAP1 JUMP JUMPDEST PUSH3 0x75B SWAP2 SWAP1 PUSH3 0xC62 JUMP JUMPDEST GT ISZERO PUSH3 0x7A0 JUMPI PUSH1 0x40 MLOAD PUSH3 0x461BCD PUSH1 0xE5 SHL DUP2 MSTORE PUSH1 0x20 PUSH1 0x4 DUP3 ADD MSTORE PUSH1 0x12 PUSH1 0x24 DUP3 ADD MSTORE PUSH18 0x45786365656473206D617820737570706C79 PUSH1 0x70 SHL PUSH1 0x44 DUP3 ADD MSTORE PUSH1 0x64 ADD PUSH3 0xC0 JUMP JUMPDEST DUP1 PUSH1 0x10 DUP5 PUSH1 0x40 MLOAD PUSH3 0x7B3 SWAP2 SWAP1 PUSH3 0xC44 JUMP JUMPDEST SWAP1 DUP2 MSTORE PUSH1 0x20 ADD PUSH1 0x40 MLOAD DUP1 SWAP2 SUB SWAP1 KECCAK256 PUSH1 0x0 DUP3 DUP3 SLOAD PUSH3 0x7D2 SWAP2 SWAP1 PUSH3 0xC62 JUMP JUMPDEST SWAP1 SWAP2 SSTORE POP PUSH3 0x7E4 SWAP1 POP DUP3 DUP3 PUSH3 0x825 JUMP JUMPDEST PUSH31 0xB9EFD5AB0446905D6E90D28B0FAB5A870033585C358FF23B0D381508C01090 DUP4 DUP4 DUP4 PUSH1 0x40 MLOAD PUSH3 0x818 SWAP4 SWAP3 SWAP2 SWAP1 PUSH3 0xC78 JUMP JUMPDEST PUSH1 0x40 MLOAD DUP1 SWAP2 SUB SWAP1 LOG1 POP POP POP JUMP JUMPDEST PUSH1 0x1 PUSH1 0x1 PUSH1 0xA0 SHL SUB DUP3 AND PUSH3 0x851 JUMPI PUSH1 0x40 MLOAD PUSH4 0xEC442F05 PUSH1 0xE0 SHL DUP2 MSTORE PUSH1 0x0 PUSH1 0x4 DUP3 ADD MSTORE PUSH1 0x24 ADD PUSH3 0xC0 JUMP JUMPDEST PUSH3 0x85F PUSH1 0x0 DUP4 DUP4 PUSH3 0x863 JUMP JUMPDEST POP POP JUMP JUMPDEST PUSH3 0x86D PUSH3 0x87F JUMP JUMPDEST PUSH3 0x87A DUP4 DUP4 DUP4 PUSH3 0x8A6 JUMP JUMPDEST POP POP POP JUMP JUMPDEST PUSH1 0x5 SLOAD PUSH1 0xFF AND ISZERO PUSH3 0x8A4 JUMPI PUSH1 0x40 MLOAD PUSH4 0xD93C0665 PUSH1 0xE0 SHL DUP2 MSTORE PUSH1 0x4 ADD PUSH1 0x40 MLOAD DUP1 SWAP2 SUB SWAP1 REVERT JUMPDEST JUMP JUMPDEST PUSH1 0x1 PUSH1 0x1 PUSH1 0xA0 SHL SUB DUP4 AND PUSH3 0x8D5 JUMPI DUP1 PUSH1 0x2 PUSH1 0x0 DUP3 DUP3 SLOAD PUSH3 0x8C9 SWAP2 SWAP1 PUSH3 0xC62 JUMP JUMPDEST SWAP1 SWAP2 SSTORE POP PUSH3 0x949 SWAP1 POP JUMP JUMPDEST PUSH1 0x1 PUSH1 0x1 PUSH1 0xA0 SHL SUB DUP4 AND PUSH1 0x0 SWAP1 DUP2 MSTORE PUSH1 0x20 DUP2 SWAP1 MSTORE PUSH1 0x40 SWAP1 KECCAK256 SLOAD DUP2 DUP2 LT ISZERO PUSH3 0x92A JUMPI PUSH1 0x40 MLOAD PUSH4 0x391434E3 PUSH1 0xE2 SHL DUP2 MSTORE PUSH1 0x1 PUSH1 0x1 PUSH1 0xA0 SHL SUB DUP6 AND PUSH1 0x4 DUP3 ADD MSTORE PUSH1 0x24 DUP2 ADD DUP3 SWAP1 MSTORE PUSH1 0x44 DUP2 ADD DUP4 SWAP1 MSTORE PUSH1 0x64 ADD PUSH3 0xC0 JUMP JUMPDEST PUSH1 0x1 PUSH1 0x1 PUSH1 0xA0 SHL SUB DUP5 AND PUSH1 0x0 SWAP1 DUP2 MSTORE PUSH1 0x20 DUP2 SWAP1 MSTORE PUSH1 0x40 SWAP1 KECCAK256 SWAP1 DUP3 SWAP1 SUB SWAP1 SSTORE JUMPDEST PUSH1 0x1 PUSH1 0x1 PUSH1 0xA0 SHL SUB DUP3 AND PUSH3 0x967 JUMPI PUSH1 0x2 DUP1 SLOAD DUP3 SWAP1 SUB SWAP1 SSTORE PUSH3 0x986 JUMP JUMPDEST PUSH1 0x1 PUSH1 0x1 PUSH1 0xA0 SHL SUB DUP3 AND PUSH1 0x0 SWAP1 DUP2 MSTORE PUSH1 0x20 DUP2 SWAP1 MSTORE PUSH1 0x40 SWAP1 KECCAK256 DUP1 SLOAD DUP3 ADD SWAP1 SSTORE JUMPDEST DUP2 PUSH1 0x1 PUSH1 0x1 PUSH1 0xA0 SHL SUB AND DUP4 PUSH1 0x1 PUSH1 0x1 PUSH1 0xA0 SHL SUB AND PUSH32 0xDDF252AD1BE2C89B69C2B068FC378DAA952BA7F163C4A11628F55A4DF523B3EF DUP4 PUSH1 0x40 MLOAD PUSH3 0x9CC SWAP2 DUP2 MSTORE PUSH1 0x20 ADD SWAP1 JUMP JUMPDEST PUSH1 0x40 MLOAD DUP1 SWAP2 SUB SWAP1 LOG3 POP POP POP JUMP JUMPDEST DUP1 MLOAD PUSH1 0x1 PUSH1 0x1 PUSH1 0xA0 SHL SUB DUP2 AND DUP2 EQ PUSH3 0x9F1 JUMPI PUSH1 0x0 DUP1 REVERT JUMPDEST SWAP2 SWAP1 POP JUMP JUMPDEST PUSH1 0x0 DUP1 PUSH1 0x0 DUP1 PUSH1 0x80 DUP6 DUP8 SUB SLT ISZERO PUSH3 0xA0D JUMPI PUSH1 0x0 DUP1 REVERT JUMPDEST PUSH3 0xA18 DUP6 PUSH3 0x9D9 JUMP JUMPDEST SWAP4 POP PUSH3 0xA28 PUSH1 0x20 DUP7 ADD PUSH3 0x9D9 JUMP JUMPDEST SWAP3 POP PUSH3 0xA38 PUSH1 0x40 DUP7 ADD PUSH3 0x9D9 JUMP JUMPDEST SWAP2 POP PUSH3 0xA48 PUSH1 0x60 DUP7 ADD PUSH3 0x9D9 JUMP JUMPDEST SWAP1 POP SWAP3 SWAP6 SWAP2 SWAP5 POP SWAP3 POP JUMP JUMPDEST PUSH4 0x4E487B71 PUSH1 0xE0 SHL PUSH1 0x0 MSTORE PUSH1 0x41 PUSH1 0x4 MSTORE PUSH1 0x24 PUSH1 0x0 REVERT JUMPDEST PUSH1 0x1 DUP2 DUP2 SHR SWAP1 DUP3 AND DUP1 PUSH3 0xA7E JUMPI PUSH1 0x7F DUP3 AND SWAP2 POP JUMPDEST PUSH1 0x20 DUP3 LT DUP2 SUB PUSH3 0xA9F JUMPI PUSH4 0x4E487B71 PUSH1 0xE0 SHL PUSH1 0x0 MSTORE PUSH1 0x22 PUSH1 0x4 MSTORE PUSH1 0x24 PUSH1 0x0 REVERT JUMPDEST POP SWAP2 SWAP1 POP JUMP JUMPDEST PUSH1 0x1F DUP3 GT ISZERO PUSH3 0x87A JUMPI PUSH1 0x0 DUP2 PUSH1 0x0 MSTORE PUSH1 0x20 PUSH1 0x0 KECCAK256 PUSH1 0x1F DUP6 ADD PUSH1 0x5 SHR DUP2 ADD PUSH1 0x20 DUP7 LT ISZERO PUSH3 0xAD0 JUMPI POP DUP1 JUMPDEST PUSH1 0x1F DUP6 ADD PUSH1 0x5 SHR DUP3 ADD SWAP2 POP JUMPDEST DUP2 DUP2 LT ISZERO PUSH3 0xAF1 JUMPI DUP3 DUP2 SSTORE PUSH1 0x1 ADD PUSH3 0xADC JUMP JUMPDEST POP POP POP POP POP POP JUMP JUMPDEST DUP2 MLOAD PUSH1 0x1 PUSH1 0x1 PUSH1 0x40 SHL SUB DUP2 GT ISZERO PUSH3 0xB15 JUMPI PUSH3 0xB15 PUSH3 0xA53 JUMP JUMPDEST PUSH3 0xB2D DUP2 PUSH3 0xB26 DUP5 SLOAD PUSH3 0xA69 JUMP JUMPDEST DUP5 PUSH3 0xAA5 JUMP JUMPDEST PUSH1 0x20 DUP1 PUSH1 0x1F DUP4 GT PUSH1 0x1 DUP2 EQ PUSH3 0xB65 JUMPI PUSH1 0x0 DUP5 ISZERO PUSH3 0xB4C JUMPI POP DUP6 DUP4 ADD MLOAD JUMPDEST PUSH1 0x0 NOT PUSH1 0x3 DUP7 SWAP1 SHL SHR NOT AND PUSH1 0x1 DUP6 SWAP1 SHL OR DUP6 SSTORE PUSH3 0xAF1 JUMP JUMPDEST PUSH1 0x0 DUP6 DUP2 MSTORE PUSH1 0x20 DUP2 KECCAK256 PUSH1 0x1F NOT DUP7 AND SWAP2 JUMPDEST DUP3 DUP2 LT ISZERO PUSH3 0xB96 JUMPI DUP9 DUP7 ADD MLOAD DUP3 SSTORE SWAP5 DUP5 ADD SWAP5 PUSH1 0x1 SWAP1 SWAP2 ADD SWAP1 DUP5 ADD PUSH3 0xB75 JUMP JUMPDEST POP DUP6 DUP3 LT ISZERO PUSH3 0xBB5 JUMPI DUP8 DUP6 ADD MLOAD PUSH1 0x0 NOT PUSH1 0x3 DUP9 SWAP1 SHL PUSH1 0xF8 AND SHR NOT AND DUP2 SSTORE JUMPDEST POP POP POP POP POP PUSH1 0x1 SWAP1 DUP2 SHL ADD SWAP1 SSTORE POP JUMP JUMPDEST PUSH4 0x4E487B71 PUSH1 0xE0 SHL PUSH1 0x0 MSTORE PUSH1 0x11 PUSH1 0x4 MSTORE PUSH1 0x24 PUSH1 0x0 REVERT JUMPDEST DUP1 DUP3 MUL DUP2 ISZERO DUP3 DUP3 DIV DUP5 EQ OR PUSH3 0xBF5 JUMPI PUSH3 0xBF5 PUSH3 0xBC5 JUMP JUMPDEST SWAP3 SWAP2 POP POP JUMP JUMPDEST PUSH1 0x0 DUP3 PUSH3 0xC19 JUMPI PUSH4 0x4E487B71 PUSH1 0xE0 SHL PUSH1 0x0 MSTORE PUSH1 0x12 PUSH1 0x4 MSTORE PUSH1 0x24 PUSH1 0x0 REVERT JUMPDEST POP DIV SWAP1 JUMP JUMPDEST PUSH1 0x0 JUMPDEST DUP4 DUP2 LT ISZERO PUSH3 0xC3B JUMPI DUP2 DUP2 ADD MLOAD DUP4 DUP3 ADD MSTORE PUSH1 0x20 ADD PUSH3 0xC21 JUMP JUMPDEST POP POP PUSH1 0x0 SWAP2 ADD MSTORE JUMP JUMPDEST PUSH1 0x0 DUP3 MLOAD PUSH3 0xC58 DUP2 DUP5 PUSH1 0x20 DUP8 ADD PUSH3 0xC1E JUMP JUMPDEST SWAP2 SWAP1 SWAP2 ADD SWAP3 SWAP2 POP POP JUMP JUMPDEST DUP1 DUP3 ADD DUP1 DUP3 GT ISZERO PUSH3 0xBF5 JUMPI PUSH3 0xBF5 PUSH3 0xBC5 JUMP JUMPDEST PUSH1 0x60 DUP2 MSTORE PUSH1 0x0 DUP5 MLOAD DUP1 PUSH1 0x60 DUP5 ADD MSTORE PUSH3 0xC99 DUP2 PUSH1 0x80 DUP6 ADD PUSH1 0x20 DUP10 ADD PUSH3 0xC1E JUMP JUMPDEST PUSH1 0x1 PUSH1 0x1 PUSH1 0xA0 SHL SUB SWAP5 SWAP1 SWAP5 AND PUSH1 0x20 DUP4 ADD MSTORE POP PUSH1 0x40 DUP2 ADD SWAP2 SWAP1 SWAP2 MSTORE PUSH1 0x80 PUSH1 0x1F SWAP1 SWAP3 ADD PUSH1 0x1F NOT AND ADD ADD SWAP2 SWAP1 POP JUMP JUMPDEST PUSH2 0x1B50 DUP1 PUSH3 0xCD5 PUSH1 0x0 CODECOPY PUSH1 0x0 RETURN INVALID PUSH1 0x80 PUSH1 0x40 MSTORE CALLVALUE DUP1 ISZERO PUSH2 0x10 JUMPI PUSH1 0x0 DUP1 REVERT JUMPDEST POP PUSH1 0x4 CALLDATASIZE LT PUSH2 0x2D6 JUMPI PUSH1 0x0 CALLDATALOAD PUSH1 0xE0 SHR DUP1 PUSH4 0x75F0A874 GT PUSH2 0x182 JUMPI DUP1 PUSH4 0xC04A5414 GT PUSH2 0xE9 JUMPI DUP1 PUSH4 0xDD62ED3E GT PUSH2 0xA2 JUMPI DUP1 PUSH4 0xE1C438B8 GT PUSH2 0x7C JUMPI DUP1 PUSH4 0xE1C438B8 EQ PUSH2 0x674 JUMPI DUP1 PUSH4 0xEE99205C EQ PUSH2 0x687 JUMPI DUP1 PUSH4 0xF2FDE38B EQ PUSH2 0x69A JUMPI DUP1 PUSH4 0xFD99CBED EQ PUSH2 0x6AD JUMPI PUSH1 0x0 DUP1 REVERT JUMPDEST DUP1 PUSH4 0xDD62ED3E EQ PUSH2 0x61F JUMPI DUP1 PUSH4 0xDFFF8568 EQ PUSH2 0x658 JUMPI DUP1 PUSH4 0xE1807B27 EQ PUSH2 0x66B JUMPI PUSH1 0x0 DUP1 REVERT JUMPDEST DUP1 PUSH4 0xC04A5414 EQ PUSH2 0x59C JUMPI DUP1 PUSH4 0xC5F7A46B EQ PUSH2 0x5AF JUMPI DUP1 PUSH4 0xCA9D47FA EQ PUSH2 0x5C2 JUMPI DUP1 PUSH4 0xD72B11BD EQ PUSH2 0x5F0 JUMPI DUP1 PUSH4 0xD89135CD EQ PUSH2 0x603 JUMPI DUP1 PUSH4 0xD8952A49 EQ PUSH2 0x60C JUMPI PUSH1 0x0 DUP1 REVERT JUMPDEST DUP1 PUSH4 0x8E80BD39 GT PUSH2 0x13B JUMPI DUP1 PUSH4 0x8E80BD39 EQ PUSH2 0x53F JUMPI DUP1 PUSH4 0x95D89B41 EQ PUSH2 0x548 JUMPI DUP1 PUSH4 0x96EC4FE3 EQ PUSH2 0x550 JUMPI DUP1 PUSH4 0x9E281A98 EQ PUSH2 0x563 JUMPI DUP1 PUSH4 0xA9059CBB EQ PUSH2 0x576 JUMPI DUP1 PUSH4 0xBDB19551 EQ PUSH2 0x589 JUMPI PUSH1 0x0 DUP1 REVERT JUMPDEST DUP1 PUSH4 0x75F0A874 EQ PUSH2 0x4C7 JUMPI DUP1 PUSH4 0x79CC6790 EQ PUSH2 0x4DA JUMPI DUP1 PUSH4 0x7B5C7F03 EQ PUSH2 0x4ED JUMPI DUP1 PUSH4 0x82F76769 EQ PUSH2 0x4F6 JUMPI DUP1 PUSH4 0x8456CB59 EQ PUSH2 0x521 JUMPI DUP1 PUSH4 0x8DA5CB5B EQ PUSH2 0x529 JUMPI PUSH1 0x0 DUP1 REVERT JUMPDEST DUP1 PUSH4 0x3D18651E GT PUSH2 0x241 JUMPI DUP1 PUSH4 0x59927044 GT PUSH2 0x1FA JUMPI DUP1 PUSH4 0x695FA425 GT PUSH2 0x1D4 JUMPI DUP1 PUSH4 0x695FA425 EQ PUSH2 0x470 JUMPI DUP1 PUSH4 0x70A08231 EQ PUSH2 0x483 JUMPI DUP1 PUSH4 0x715018A6 EQ PUSH2 0x4AC JUMPI DUP1 PUSH4 0x7422E1AF EQ PUSH2 0x4B4 JUMPI PUSH1 0x0 DUP1 REVERT JUMPDEST DUP1 PUSH4 0x59927044 EQ PUSH2 0x427 JUMPI DUP1 PUSH4 0x5C95ED24 EQ PUSH2 0x452 JUMPI DUP1 PUSH4 0x5C975ABB EQ PUSH2 0x465 JUMPI PUSH1 0x0 DUP1 REVERT JUMPDEST DUP1 PUSH4 0x3D18651E EQ PUSH2 0x3D4 JUMPI DUP1 PUSH4 0x3F4BA83A EQ PUSH2 0x3DC JUMPI DUP1 PUSH4 0x42966C68 EQ PUSH2 0x3E4 JUMPI DUP1 PUSH4 0x4325DC77 EQ PUSH2 0x3F7 JUMPI DUP1 PUSH4 0x482CD6C5 EQ PUSH2 0x417 JUMPI DUP1 PUSH4 0x5648DB14 EQ PUSH2 0x41F JUMPI PUSH1 0x0 DUP1 REVERT JUMPDEST DUP1 PUSH4 0x1E0F7660 GT PUSH2 0x293 JUMPI DUP1 PUSH4 0x1E0F7660 EQ PUSH2 0x359 JUMPI DUP1 PUSH4 0x23B872DD EQ PUSH2 0x384 JUMPI DUP1 PUSH4 0x2B112E49 EQ PUSH2 0x397 JUMPI DUP1 PUSH4 0x313CE567 EQ PUSH2 0x39F JUMPI DUP1 PUSH4 0x32CB6B0C EQ PUSH2 0x3AE JUMPI DUP1 PUSH4 0x399FA769 EQ PUSH2 0x3C1 JUMPI PUSH1 0x0 DUP1 REVERT JUMPDEST DUP1 PUSH4 0x194A7CA EQ PUSH2 0x2DB JUMPI DUP1 PUSH4 0x6FDDE03 EQ PUSH2 0x2F0 JUMPI DUP1 PUSH4 0x7BCE0CD EQ PUSH2 0x30E JUMPI DUP1 PUSH4 0x95EA7B3 EQ PUSH2 0x325 JUMPI DUP1 PUSH4 0x12AA241E EQ PUSH2 0x348 JUMPI DUP1 PUSH4 0x18160DDD EQ PUSH2 0x351 JUMPI JUMPDEST PUSH1 0x0 DUP1 REVERT JUMPDEST PUSH2 0x2EE PUSH2 0x2E9 CALLDATASIZE PUSH1 0x4 PUSH2 0x1715 JUMP JUMPDEST PUSH2 0x6B6 JUMP JUMPDEST STOP JUMPDEST PUSH2 0x2F8 PUSH2 0x77C JUMP JUMPDEST PUSH1 0x40 MLOAD PUSH2 0x305 SWAP2 SWAP1 PUSH2 0x178F JUMP JUMPDEST PUSH1 0x40 MLOAD DUP1 SWAP2 SUB SWAP1 RETURN JUMPDEST PUSH2 0x317 PUSH2 0x7D0 DUP2 JUMP JUMPDEST PUSH1 0x40 MLOAD SWAP1 DUP2 MSTORE PUSH1 0x20 ADD PUSH2 0x305 JUMP JUMPDEST PUSH2 0x338 PUSH2 0x333 CALLDATASIZE PUSH1 0x4 PUSH2 0x1715 JUMP JUMPDEST PUSH2 0x80E JUMP JUMPDEST PUSH1 0x40 MLOAD SWAP1 ISZERO ISZERO DUP2 MSTORE PUSH1 0x20 ADD PUSH2 0x305 JUMP JUMPDEST PUSH2 0x317 PUSH2 0xFA0 DUP2 JUMP JUMPDEST PUSH1 0x2 SLOAD PUSH2 0x317 JUMP JUMPDEST PUSH2 0x317 PUSH2 0x367 CALLDATASIZE PUSH1 0x4 PUSH2 0x1845 JUMP JUMPDEST DUP1 MLOAD PUSH1 0x20 DUP2 DUP4 ADD DUP2 ADD DUP1 MLOAD PUSH1 0x11 DUP3 MSTORE SWAP3 DUP3 ADD SWAP2 SWAP1 SWAP4 ADD KECCAK256 SWAP2 MSTORE SLOAD DUP2 JUMP JUMPDEST PUSH2 0x338 PUSH2 0x392 CALLDATASIZE PUSH1 0x4 PUSH2 0x187A JUMP JUMPDEST PUSH2 0x828 JUMP JUMPDEST PUSH2 0x317 PUSH2 0x84C JUMP JUMPDEST PUSH1 0x40 MLOAD PUSH1 0x12 DUP2 MSTORE PUSH1 0x20 ADD PUSH2 0x305 JUMP JUMPDEST PUSH2 0x317 PUSH12 0x33B2E3C9FD0803CE8000000 DUP2 JUMP JUMPDEST PUSH2 0x2EE PUSH2 0x3CF CALLDATASIZE PUSH1 0x4 PUSH2 0x1715 JUMP JUMPDEST PUSH2 0x85C JUMP JUMPDEST PUSH2 0x317 PUSH1 0x1E DUP2 JUMP JUMPDEST PUSH2 0x2EE PUSH2 0x91A JUMP JUMPDEST PUSH2 0x2EE PUSH2 0x3F2 CALLDATASIZE PUSH1 0x4 PUSH2 0x18B6 JUMP JUMPDEST PUSH2 0x92C JUMP JUMPDEST PUSH2 0x317 PUSH2 0x405 CALLDATASIZE PUSH1 0x4 PUSH2 0x18B6 JUMP JUMPDEST PUSH1 0xE PUSH1 0x20 MSTORE PUSH1 0x0 SWAP1 DUP2 MSTORE PUSH1 0x40 SWAP1 KECCAK256 SLOAD DUP2 JUMP JUMPDEST PUSH2 0x317 PUSH2 0x939 JUMP JUMPDEST PUSH2 0x317 PUSH1 0xC8 DUP2 JUMP JUMPDEST PUSH1 0x7 SLOAD PUSH2 0x43A SWAP1 PUSH1 0x1 PUSH1 0x1 PUSH1 0xA0 SHL SUB AND DUP2 JUMP JUMPDEST PUSH1 0x40 MLOAD PUSH1 0x1 PUSH1 0x1 PUSH1 0xA0 SHL SUB SWAP1 SWAP2 AND DUP2 MSTORE PUSH1 0x20 ADD PUSH2 0x305 JUMP JUMPDEST PUSH2 0x2EE PUSH2 0x460 CALLDATASIZE PUSH1 0x4 PUSH2 0x18CF JUMP JUMPDEST PUSH2 0x962 JUMP JUMPDEST PUSH1 0x5 SLOAD PUSH1 0xFF AND PUSH2 0x338 JUMP JUMPDEST PUSH2 0x2EE PUSH2 0x47E CALLDATASIZE PUSH1 0x4 PUSH2 0x1916 JUMP JUMPDEST PUSH2 0x97A JUMP JUMPDEST PUSH2 0x317 PUSH2 0x491 CALLDATASIZE PUSH1 0x4 PUSH2 0x195D JUMP JUMPDEST PUSH1 0x1 PUSH1 0x1 PUSH1 0xA0 SHL SUB AND PUSH1 0x0 SWAP1 DUP2 MSTORE PUSH1 0x20 DUP2 SWAP1 MSTORE PUSH1 0x40 SWAP1 KECCAK256 SLOAD SWAP1 JUMP JUMPDEST PUSH2 0x2EE PUSH2 0xA87 JUMP JUMPDEST PUSH1 0xC SLOAD PUSH2 0x43A SWAP1 PUSH1 0x1 PUSH1 0x1 PUSH1 0xA0 SHL SUB AND DUP2 JUMP JUMPDEST PUSH1 0x9 SLOAD PUSH2 0x43A SWAP1 PUSH1 0x1 PUSH1 0x1 PUSH1 0xA0 SHL SUB AND DUP2 JUMP JUMPDEST PUSH2 0x2EE PUSH2 0x4E8 CALLDATASIZE PUSH1 0x4 PUSH2 0x1715 JUMP JUMPDEST PUSH2 0xA99 JUMP JUMPDEST PUSH2 0x317 PUSH2 0x320 DUP2 JUMP JUMPDEST PUSH2 0x317 PUSH2 0x504 CALLDATASIZE PUSH1 0x4 PUSH2 0x1845 JUMP JUMPDEST DUP1 MLOAD PUSH1 0x20 DUP2 DUP4 ADD DUP2 ADD DUP1 MLOAD PUSH1 0x10 DUP3 MSTORE SWAP3 DUP3 ADD SWAP2 SWAP1 SWAP4 ADD KECCAK256 SWAP2 MSTORE SLOAD DUP2 JUMP JUMPDEST PUSH2 0x2EE PUSH2 0xAAE JUMP JUMPDEST PUSH1 0x5 SLOAD PUSH2 0x100 SWAP1 DIV PUSH1 0x1 PUSH1 0x1 PUSH1 0xA0 SHL SUB AND PUSH2 0x43A JUMP JUMPDEST PUSH2 0x317 PUSH2 0x1F4 DUP2 JUMP JUMPDEST PUSH2 0x2F8 PUSH2 0xABE JUMP JUMPDEST PUSH2 0x317 PUSH2 0x55E CALLDATASIZE PUSH1 0x4 PUSH2 0x195D JUMP JUMPDEST PUSH2 0xACD JUMP JUMPDEST PUSH2 0x2EE PUSH2 0x571 CALLDATASIZE PUSH1 0x4 PUSH2 0x1715 JUMP JUMPDEST PUSH2 0xB68 JUMP JUMPDEST PUSH2 0x338 PUSH2 0x584 CALLDATASIZE PUSH1 0x4 PUSH2 0x1715 JUMP JUMPDEST PUSH2 0xC56 JUMP JUMPDEST PUSH2 0x317 PUSH2 0x597 CALLDATASIZE PUSH1 0x4 PUSH2 0x195D JUMP JUMPDEST PUSH2 0xC64 JUMP JUMPDEST PUSH1 0x8 SLOAD PUSH2 0x43A SWAP1 PUSH1 0x1 PUSH1 0x1 PUSH1 0xA0 SHL SUB AND DUP2 JUMP JUMPDEST PUSH1 0xA SLOAD PUSH2 0x43A SWAP1 PUSH1 0x1 PUSH1 0x1 PUSH1 0xA0 SHL SUB AND DUP2 JUMP JUMPDEST PUSH2 0x5D5 PUSH2 0x5D0 CALLDATASIZE PUSH1 0x4 PUSH2 0x1845 JUMP JUMPDEST PUSH2 0xDFC JUMP JUMPDEST PUSH1 0x40 DUP1 MLOAD SWAP4 DUP5 MSTORE PUSH1 0x20 DUP5 ADD SWAP3 SWAP1 SWAP3 MSTORE SWAP1 DUP3 ADD MSTORE PUSH1 0x60 ADD PUSH2 0x305 JUMP JUMPDEST PUSH1 0xD SLOAD PUSH2 0x43A SWAP1 PUSH1 0x1 PUSH1 0x1 PUSH1 0xA0 SHL SUB AND DUP2 JUMP JUMPDEST PUSH2 0x317 PUSH1 0xF SLOAD DUP2 JUMP JUMPDEST PUSH2 0x2EE PUSH2 0x61A CALLDATASIZE PUSH1 0x4 PUSH2 0x1978 JUMP JUMPDEST PUSH2 0xE56 JUMP JUMPDEST PUSH2 0x317 PUSH2 0x62D CALLDATASIZE PUSH1 0x4 PUSH2 0x1978 JUMP JUMPDEST PUSH1 0x1 PUSH1 0x1 PUSH1 0xA0 SHL SUB SWAP2 DUP3 AND PUSH1 0x0 SWAP1 DUP2 MSTORE PUSH1 0x1 PUSH1 0x20 SWAP1 DUP2 MSTORE PUSH1 0x40 DUP1 DUP4 KECCAK256 SWAP4 SWAP1 SWAP5 AND DUP3 MSTORE SWAP2 SWAP1 SWAP2 MSTORE KECCAK256 SLOAD SWAP1 JUMP JUMPDEST PUSH2 0x2EE PUSH2 0x666 CALLDATASIZE PUSH1 0x4 PUSH2 0x18B6 JUMP JUMPDEST PUSH2 0xE8C JUMP JUMPDEST PUSH2 0x317 PUSH2 0x3E8 DUP2 JUMP JUMPDEST PUSH2 0x2EE PUSH2 0x682 CALLDATASIZE PUSH1 0x4 PUSH2 0x19AB JUMP JUMPDEST PUSH2 0xFC5 JUMP JUMPDEST PUSH1 0xB SLOAD PUSH2 0x43A SWAP1 PUSH1 0x1 PUSH1 0x1 PUSH1 0xA0 SHL SUB AND DUP2 JUMP JUMPDEST PUSH2 0x2EE PUSH2 0x6A8 CALLDATASIZE PUSH1 0x4 PUSH2 0x195D JUMP JUMPDEST PUSH2 0x1030 JUMP JUMPDEST PUSH2 0x317 PUSH2 0x5DC DUP2 JUMP JUMPDEST PUSH1 0xB SLOAD PUSH1 0x1 PUSH1 0x1 PUSH1 0xA0 SHL SUB AND CALLER EQ DUP1 PUSH2 0x6D9 JUMPI POP PUSH1 0xC SLOAD PUSH1 0x1 PUSH1 0x1 PUSH1 0xA0 SHL SUB AND CALLER EQ JUMPDEST DUP1 PUSH2 0x705 JUMPI POP PUSH1 0x5 SLOAD PUSH2 0x100 SWAP1 DIV PUSH1 0x1 PUSH1 0x1 PUSH1 0xA0 SHL SUB AND PUSH1 0x1 PUSH1 0x1 PUSH1 0xA0 SHL SUB AND CALLER PUSH1 0x1 PUSH1 0x1 PUSH1 0xA0 SHL SUB AND EQ JUMPDEST PUSH2 0x747 JUMPI PUSH1 0x40 MLOAD PUSH3 0x461BCD PUSH1 0xE5 SHL DUP2 MSTORE PUSH1 0x20 PUSH1 0x4 DUP3 ADD MSTORE PUSH1 0xE PUSH1 0x24 DUP3 ADD MSTORE PUSH14 0x139BDD08185D5D1A1BDC9A5E9959 PUSH1 0x92 SHL PUSH1 0x44 DUP3 ADD MSTORE PUSH1 0x64 ADD JUMPDEST PUSH1 0x40 MLOAD DUP1 SWAP2 SUB SWAP1 REVERT JUMPDEST PUSH2 0x778 PUSH1 0x40 MLOAD DUP1 PUSH1 0x40 ADD PUSH1 0x40 MSTORE DUP1 PUSH1 0xE DUP2 MSTORE PUSH1 0x20 ADD PUSH14 0x7374616B696E6752657761726473 PUSH1 0x90 SHL DUP2 MSTORE POP DUP4 DUP4 PUSH2 0x106B JUMP JUMPDEST POP POP JUMP JUMPDEST PUSH1 0x60 PUSH1 0x3 DUP1 SLOAD PUSH2 0x78B SWAP1 PUSH2 0x19CD JUMP JUMPDEST DUP1 PUSH1 0x1F ADD PUSH1 0x20 DUP1 SWAP2 DIV MUL PUSH1 0x20 ADD PUSH1 0x40 MLOAD SWAP1 DUP2 ADD PUSH1 0x40 MSTORE DUP1 SWAP3 SWAP2 SWAP1 DUP2 DUP2 MSTORE PUSH1 0x20 ADD DUP3 DUP1 SLOAD PUSH2 0x7B7 SWAP1 PUSH2 0x19CD JUMP JUMPDEST DUP1 ISZERO PUSH2 0x804 JUMPI DUP1 PUSH1 0x1F LT PUSH2 0x7D9 JUMPI PUSH2 0x100 DUP1 DUP4 SLOAD DIV MUL DUP4 MSTORE SWAP2 PUSH1 0x20 ADD SWAP2 PUSH2 0x804 JUMP JUMPDEST DUP3 ADD SWAP2 SWAP1 PUSH1 0x0 MSTORE PUSH1 0x20 PUSH1 0x0 KECCAK256 SWAP1 JUMPDEST DUP2 SLOAD DUP2 MSTORE SWAP1 PUSH1 0x1 ADD SWAP1 PUSH1 0x20 ADD DUP1 DUP4 GT PUSH2 0x7E7 JUMPI DUP3 SWAP1 SUB PUSH1 0x1F AND DUP3 ADD SWAP2 JUMPDEST POP POP POP POP POP SWAP1 POP SWAP1 JUMP JUMPDEST PUSH1 0x0 CALLER PUSH2 0x81C DUP2 DUP6 DUP6 PUSH2 0x122D JUMP JUMPDEST PUSH1 0x1 SWAP2 POP POP JUMPDEST SWAP3 SWAP2 POP POP JUMP JUMPDEST PUSH1 0x0 CALLER PUSH2 0x836 DUP6 DUP3 DUP6 PUSH2 0x123A JUMP JUMPDEST PUSH2 0x841 DUP6 DUP6 DUP6 PUSH2 0x12B9 JUMP JUMPDEST POP PUSH1 0x1 SWAP5 SWAP4 POP POP POP POP JUMP JUMPDEST PUSH1 0x0 PUSH2 0x857 PUSH1 0x2 SLOAD SWAP1 JUMP JUMPDEST SWAP1 POP SWAP1 JUMP JUMPDEST PUSH1 0xB SLOAD PUSH1 0x1 PUSH1 0x1 PUSH1 0xA0 SHL SUB AND CALLER EQ DUP1 PUSH2 0x87F JUMPI POP PUSH1 0xC SLOAD PUSH1 0x1 PUSH1 0x1 PUSH1 0xA0 SHL SUB AND CALLER EQ JUMPDEST DUP1 PUSH2 0x8AB JUMPI POP PUSH1 0x5 SLOAD PUSH2 0x100 SWAP1 DIV PUSH1 0x1 PUSH1 0x1 PUSH1 0xA0 SHL SUB AND PUSH1 0x1 PUSH1 0x1 PUSH1 0xA0 SHL SUB AND CALLER PUSH1 0x1 PUSH1 0x1 PUSH1 0xA0 SHL SUB AND EQ JUMPDEST PUSH2 0x8E8 JUMPI PUSH1 0x40 MLOAD PUSH3 0x461BCD PUSH1 0xE5 SHL DUP2 MSTORE PUSH1 0x20 PUSH1 0x4 DUP3 ADD MSTORE PUSH1 0xE PUSH1 0x24 DUP3 ADD MSTORE PUSH14 0x139BDD08185D5D1A1BDC9A5E9959 PUSH1 0x92 SHL PUSH1 0x44 DUP3 ADD MSTORE PUSH1 0x64 ADD PUSH2 0x73E JUMP JUMPDEST PUSH2 0x778 PUSH1 0x40 MLOAD DUP1 PUSH1 0x40 ADD PUSH1 0x40 MSTORE DUP1 PUSH1 0xF DUP2 MSTORE PUSH1 0x20 ADD PUSH15 0x6C69717569646974794D696E696E67 PUSH1 0x88 SHL DUP2 MSTORE POP DUP4 DUP4 PUSH2 0x106B JUMP JUMPDEST PUSH2 0x922 PUSH2 0x1318 JUMP JUMPDEST PUSH2 0x92A PUSH2 0x134B JUMP JUMPDEST JUMP JUMPDEST PUSH2 0x936 CALLER DUP3 PUSH2 0x139D JUMP JUMPDEST POP JUMP JUMPDEST PUSH1 0x0 PUSH12 0x33B2E3C9FD0803CE8000000 PUSH1 0xF SLOAD PUSH2 0x2710 PUSH2 0x958 SWAP2 SWAP1 PUSH2 0x1A1D JUMP JUMPDEST PUSH2 0x857 SWAP2 SWAP1 PUSH2 0x1A34 JUMP JUMPDEST PUSH2 0x96A PUSH2 0x1318 JUMP JUMPDEST PUSH2 0x975 DUP4 DUP4 DUP4 PUSH2 0x106B JUMP JUMPDEST POP POP POP JUMP JUMPDEST PUSH2 0x982 PUSH2 0x1318 JUMP JUMPDEST PUSH1 0x0 DUP3 GT PUSH2 0x9D2 JUMPI PUSH1 0x40 MLOAD PUSH3 0x461BCD PUSH1 0xE5 SHL DUP2 MSTORE PUSH1 0x20 PUSH1 0x4 DUP3 ADD MSTORE PUSH1 0x1D PUSH1 0x24 DUP3 ADD MSTORE PUSH32 0x416D6F756E74206D7573742062652067726561746572207468616E2030000000 PUSH1 0x44 DUP3 ADD MSTORE PUSH1 0x64 ADD PUSH2 0x73E JUMP JUMPDEST ADDRESS PUSH1 0x0 SWAP1 DUP2 MSTORE PUSH1 0x20 DUP2 SWAP1 MSTORE PUSH1 0x40 SWAP1 KECCAK256 SLOAD DUP3 GT ISZERO PUSH2 0xA28 JUMPI PUSH1 0x40 MLOAD PUSH3 0x461BCD PUSH1 0xE5 SHL DUP2 MSTORE PUSH1 0x20 PUSH1 0x4 DUP3 ADD MSTORE PUSH1 0x14 PUSH1 0x24 DUP3 ADD MSTORE PUSH20 0x496E73756666696369656E742062616C616E6365 PUSH1 0x60 SHL PUSH1 0x44 DUP3 ADD MSTORE PUSH1 0x64 ADD PUSH2 0x73E JUMP JUMPDEST PUSH2 0xA32 ADDRESS DUP4 PUSH2 0x139D JUMP JUMPDEST DUP2 PUSH1 0xF PUSH1 0x0 DUP3 DUP3 SLOAD PUSH2 0xA44 SWAP2 SWAP1 PUSH2 0x1A56 JUMP JUMPDEST SWAP1 SWAP2 SSTORE POP POP PUSH1 0x40 MLOAD PUSH32 0x666A5F6AE65E87496C94A5940CA3DC5C870546B598ED2992A4E9A61265F1D1E SWAP1 PUSH2 0xA7B SWAP1 DUP5 SWAP1 DUP5 SWAP1 PUSH2 0x1A69 JUMP JUMPDEST PUSH1 0x40 MLOAD DUP1 SWAP2 SUB SWAP1 LOG1 POP POP JUMP JUMPDEST PUSH2 0xA8F PUSH2 0x1318 JUMP JUMPDEST PUSH2 0x92A PUSH1 0x0 PUSH2 0x13D3 JUMP JUMPDEST PUSH2 0xAA4 DUP3 CALLER DUP4 PUSH2 0x123A JUMP JUMPDEST PUSH2 0x778 DUP3 DUP3 PUSH2 0x139D JUMP JUMPDEST PUSH2 0xAB6 PUSH2 0x1318 JUMP JUMPDEST PUSH2 0x92A PUSH2 0x142D JUMP JUMPDEST PUSH1 0x60 PUSH1 0x4 DUP1 SLOAD PUSH2 0x78B SWAP1 PUSH2 0x19CD JUMP JUMPDEST PUSH1 0x40 MLOAD PUSH4 0xBDB19551 PUSH1 0xE0 SHL DUP2 MSTORE PUSH1 0x1 PUSH1 0x1 PUSH1 0xA0 SHL SUB DUP3 AND PUSH1 0x4 DUP3 ADD MSTORE PUSH1 0x0 SWAP1 DUP2 SWAP1 ADDRESS SWAP1 PUSH4 0xBDB19551 SWAP1 PUSH1 0x24 ADD PUSH1 0x20 PUSH1 0x40 MLOAD DUP1 DUP4 SUB DUP2 DUP7 GAS STATICCALL ISZERO DUP1 ISZERO PUSH2 0xB16 JUMPI RETURNDATASIZE PUSH1 0x0 DUP1 RETURNDATACOPY RETURNDATASIZE PUSH1 0x0 REVERT JUMPDEST POP POP POP POP PUSH1 0x40 MLOAD RETURNDATASIZE PUSH1 0x1F NOT PUSH1 0x1F DUP3 ADD AND DUP3 ADD DUP1 PUSH1 0x40 MSTORE POP DUP2 ADD SWAP1 PUSH2 0xB3A SWAP2 SWAP1 PUSH2 0x1A82 JUMP JUMPDEST SWAP1 POP PUSH1 0x0 PUSH1 0x64 PUSH2 0xB4B DUP4 PUSH1 0x1E PUSH2 0x1A1D JUMP JUMPDEST PUSH2 0xB55 SWAP2 SWAP1 PUSH2 0x1A34 JUMP JUMPDEST PUSH2 0xB60 SWAP1 PUSH1 0x1E PUSH2 0x1A9B JUMP JUMPDEST SWAP5 SWAP4 POP POP POP POP JUMP JUMPDEST PUSH2 0xB70 PUSH2 0x1318 JUMP JUMPDEST ADDRESS PUSH1 0x1 PUSH1 0x1 PUSH1 0xA0 SHL SUB DUP4 AND SUB PUSH2 0xBBE JUMPI PUSH1 0x40 MLOAD PUSH3 0x461BCD PUSH1 0xE5 SHL DUP2 MSTORE PUSH1 0x20 PUSH1 0x4 DUP3 ADD MSTORE PUSH1 0x13 PUSH1 0x24 DUP3 ADD MSTORE PUSH19 0x43616E6E6F7420776974686472617720585053 PUSH1 0x68 SHL PUSH1 0x44 DUP3 ADD MSTORE PUSH1 0x64 ADD PUSH2 0x73E JUMP JUMPDEST DUP2 PUSH1 0x1 PUSH1 0x1 PUSH1 0xA0 SHL SUB AND PUSH4 0xA9059CBB PUSH2 0xBE5 PUSH1 0x5 SLOAD PUSH1 0x1 PUSH1 0x1 PUSH1 0xA0 SHL SUB PUSH2 0x100 SWAP1 SWAP2 DIV AND SWAP1 JUMP JUMPDEST PUSH1 0x40 MLOAD PUSH1 0x1 PUSH1 0x1 PUSH1 0xE0 SHL SUB NOT PUSH1 0xE0 DUP5 SWAP1 SHL AND DUP2 MSTORE PUSH1 0x1 PUSH1 0x1 PUSH1 0xA0 SHL SUB SWAP1 SWAP2 AND PUSH1 0x4 DUP3 ADD MSTORE PUSH1 0x24 DUP2 ADD DUP5 SWAP1 MSTORE PUSH1 0x44 ADD PUSH1 0x20 PUSH1 0x40 MLOAD DUP1 DUP4 SUB DUP2 PUSH1 0x0 DUP8 GAS CALL ISZERO DUP1 ISZERO PUSH2 0xC32 JUMPI RETURNDATASIZE PUSH1 0x0 DUP1 RETURNDATACOPY RETURNDATASIZE PUSH1 0x0 REVERT JUMPDEST POP POP POP POP PUSH1 0x40 MLOAD RETURNDATASIZE PUSH1 0x1F NOT PUSH1 0x1F DUP3 ADD AND DUP3 ADD DUP1 PUSH1 0x40 MSTORE POP DUP2 ADD SWAP1 PUSH2 0x975 SWAP2 SWAP1 PUSH2 0x1AAE JUMP JUMPDEST PUSH1 0x0 CALLER PUSH2 0x81C DUP2 DUP6 DUP6 PUSH2 0x12B9 JUMP JUMPDEST PUSH1 0x1 PUSH1 0x1 PUSH1 0xA0 SHL SUB DUP2 AND PUSH1 0x0 SWAP1 DUP2 MSTORE PUSH1 0x20 DUP2 SWAP1 MSTORE PUSH1 0x40 DUP2 KECCAK256 SLOAD PUSH1 0x0 PUSH10 0x152D02C7E14AF6800000 DUP3 LT PUSH2 0xCCB JUMPI POP PUSH10 0x152D02C7E14AF6800000 PUSH1 0x0 MSTORE PUSH1 0xE PUSH1 0x20 MSTORE PUSH32 0xE71044A971910EFECDB2AFF9748DEE2C7A9688595C1F812407AEF48462B0F501 SLOAD PUSH2 0xDF5 JUMP JUMPDEST PUSH10 0xA968163F0A57B400000 DUP3 LT PUSH2 0xD17 JUMPI POP PUSH10 0xA968163F0A57B400000 PUSH1 0x0 MSTORE PUSH1 0xE PUSH1 0x20 MSTORE PUSH32 0xC0DAB36D9EAE69CB8C2EFECF37E10F3716536F8A069042C5C697D3D825AA7B11 SLOAD PUSH2 0xDF5 JUMP JUMPDEST PUSH10 0x21E19E0C9BAB2400000 DUP3 LT PUSH2 0xD63 JUMPI POP PUSH10 0x21E19E0C9BAB2400000 PUSH1 0x0 MSTORE PUSH1 0xE PUSH1 0x20 MSTORE PUSH32 0x8FE79A208A0FBB64E7CD930EFFB4FC9322518FC50C1AB405916D5A4CF49B29C9 SLOAD PUSH2 0xDF5 JUMP JUMPDEST PUSH10 0x10F0CF064DD59200000 DUP3 LT PUSH2 0xDAF JUMPI POP PUSH10 0x10F0CF064DD59200000 PUSH1 0x0 MSTORE PUSH1 0xE PUSH1 0x20 MSTORE PUSH32 0xE59698A0341C3CDF0C7D90F041CEC3D672F079C49D6075ACF1F71297951D4851 SLOAD PUSH2 0xDF5 JUMP JUMPDEST PUSH9 0x3635C9ADC5DEA00000 DUP3 LT PUSH2 0xDF5 JUMPI POP PUSH9 0x3635C9ADC5DEA00000 PUSH1 0x0 MSTORE PUSH1 0xE PUSH1 0x20 MSTORE PUSH32 0xC275F1951C0A5383F43DE940FCAA66C88400A5EC706840F7EF1861B554883421 SLOAD JUMPDEST SWAP4 SWAP3 POP POP POP JUMP JUMPDEST PUSH1 0x0 DUP1 PUSH1 0x0 PUSH1 0x11 DUP5 PUSH1 0x40 MLOAD PUSH2 0xE11 SWAP2 SWAP1 PUSH2 0x1AD0 JUMP JUMPDEST SWAP1 DUP2 MSTORE PUSH1 0x20 ADD PUSH1 0x40 MLOAD DUP1 SWAP2 SUB SWAP1 KECCAK256 SLOAD SWAP3 POP PUSH1 0x10 DUP5 PUSH1 0x40 MLOAD PUSH2 0xE32 SWAP2 SWAP1 PUSH2 0x1AD0 JUMP JUMPDEST SWAP1 DUP2 MSTORE PUSH1 0x40 MLOAD SWAP1 DUP2 SWAP1 SUB PUSH1 0x20 ADD SWAP1 KECCAK256 SLOAD SWAP2 POP PUSH2 0xE4E DUP3 DUP5 PUSH2 0x1A9B JUMP JUMPDEST SWAP3 SWAP5 SWAP2 SWAP4 POP POP JUMP JUMPDEST PUSH2 0xE5E PUSH2 0x1318 JUMP JUMPDEST PUSH1 0xB DUP1 SLOAD PUSH1 0x1 PUSH1 0x1 PUSH1 0xA0 SHL SUB SWAP4 DUP5 AND PUSH1 0x1 PUSH1 0x1 PUSH1 0xA0 SHL SUB NOT SWAP2 DUP3 AND OR SWAP1 SWAP2 SSTORE PUSH1 0xC DUP1 SLOAD SWAP3 SWAP1 SWAP4 AND SWAP2 AND OR SWAP1 SSTORE JUMP JUMPDEST PUSH2 0xE94 PUSH2 0x1318 JUMP JUMPDEST PUSH1 0x0 DUP2 GT PUSH2 0xEE4 JUMPI PUSH1 0x40 MLOAD PUSH3 0x461BCD PUSH1 0xE5 SHL DUP2 MSTORE PUSH1 0x20 PUSH1 0x4 DUP3 ADD MSTORE PUSH1 0x1D PUSH1 0x24 DUP3 ADD MSTORE PUSH32 0x416D6F756E74206D7573742062652067726561746572207468616E2030000000 PUSH1 0x44 DUP3 ADD MSTORE PUSH1 0x64 ADD PUSH2 0x73E JUMP JUMPDEST DUP1 PUSH2 0xEEE PUSH1 0x2 SLOAD SWAP1 JUMP JUMPDEST LT ISZERO PUSH2 0xF3C JUMPI PUSH1 0x40 MLOAD PUSH3 0x461BCD PUSH1 0xE5 SHL DUP2 MSTORE PUSH1 0x20 PUSH1 0x4 DUP3 ADD MSTORE PUSH1 0x19 PUSH1 0x24 DUP3 ADD MSTORE PUSH32 0x496E73756666696369656E7420746F74616C20737570706C7900000000000000 PUSH1 0x44 DUP3 ADD MSTORE PUSH1 0x64 ADD PUSH2 0x73E JUMP JUMPDEST PUSH2 0xF46 ADDRESS DUP3 PUSH2 0x139D JUMP JUMPDEST DUP1 PUSH1 0xF PUSH1 0x0 DUP3 DUP3 SLOAD PUSH2 0xF58 SWAP2 SWAP1 PUSH2 0x1A56 JUMP JUMPDEST SWAP1 SWAP2 SSTORE POP POP PUSH1 0x40 MLOAD PUSH32 0x666A5F6AE65E87496C94A5940CA3DC5C870546B598ED2992A4E9A61265F1D1E SWAP1 PUSH2 0xFBA SWAP1 DUP4 DUP2 MSTORE PUSH1 0x40 PUSH1 0x20 DUP3 ADD DUP2 SWAP1 MSTORE PUSH1 0x13 SWAP1 DUP3 ADD MSTORE PUSH19 0x22B6B2B933B2B731BC903232B33630BA34B7B7 PUSH1 0x69 SHL PUSH1 0x60 DUP3 ADD MSTORE PUSH1 0x80 ADD SWAP1 JUMP JUMPDEST PUSH1 0x40 MLOAD DUP1 SWAP2 SUB SWAP1 LOG1 POP JUMP JUMPDEST PUSH2 0xFCD PUSH2 0x1318 JUMP JUMPDEST PUSH1 0x64 DUP2 GT ISZERO PUSH2 0x101E JUMPI PUSH1 0x40 MLOAD PUSH3 0x461BCD PUSH1 0xE5 SHL DUP2 MSTORE PUSH1 0x20 PUSH1 0x4 DUP3 ADD MSTORE PUSH1 0x1B PUSH1 0x24 DUP3 ADD MSTORE PUSH32 0x446973636F756E742063616E6E6F742065786365656420313030250000000000 PUSH1 0x44 DUP3 ADD MSTORE PUSH1 0x64 ADD PUSH2 0x73E JUMP JUMPDEST PUSH1 0x0 SWAP2 DUP3 MSTORE PUSH1 0xE PUSH1 0x20 MSTORE PUSH1 0x40 SWAP1 SWAP2 KECCAK256 SSTORE JUMP JUMPDEST PUSH2 0x1038 PUSH2 0x1318 JUMP JUMPDEST PUSH1 0x1 PUSH1 0x1 PUSH1 0xA0 SHL SUB DUP2 AND PUSH2 0x1062 JUMPI PUSH1 0x40 MLOAD PUSH4 0x1E4FBDF7 PUSH1 0xE0 SHL DUP2 MSTORE PUSH1 0x0 PUSH1 0x4 DUP3 ADD MSTORE PUSH1 0x24 ADD PUSH2 0x73E JUMP JUMPDEST PUSH2 0x936 DUP2 PUSH2 0x13D3 JUMP JUMPDEST PUSH1 0x1 PUSH1 0x1 PUSH1 0xA0 SHL SUB DUP3 AND PUSH2 0x10B5 JUMPI PUSH1 0x40 MLOAD PUSH3 0x461BCD PUSH1 0xE5 SHL DUP2 MSTORE PUSH1 0x20 PUSH1 0x4 DUP3 ADD MSTORE PUSH1 0x11 PUSH1 0x24 DUP3 ADD MSTORE PUSH17 0x125B9D985B1A59081C9958DA5C1A595B9D PUSH1 0x7A SHL PUSH1 0x44 DUP3 ADD MSTORE PUSH1 0x64 ADD PUSH2 0x73E JUMP JUMPDEST PUSH1 0x11 DUP4 PUSH1 0x40 MLOAD PUSH2 0x10C5 SWAP2 SWAP1 PUSH2 0x1AD0 JUMP JUMPDEST SWAP1 DUP2 MSTORE PUSH1 0x20 ADD PUSH1 0x40 MLOAD DUP1 SWAP2 SUB SWAP1 KECCAK256 SLOAD DUP2 PUSH1 0x10 DUP6 PUSH1 0x40 MLOAD PUSH2 0x10E5 SWAP2 SWAP1 PUSH2 0x1AD0 JUMP JUMPDEST SWAP1 DUP2 MSTORE PUSH1 0x20 ADD PUSH1 0x40 MLOAD DUP1 SWAP2 SUB SWAP1 KECCAK256 SLOAD PUSH2 0x10FE SWAP2 SWAP1 PUSH2 0x1A56 JUMP JUMPDEST GT ISZERO PUSH2 0x114C JUMPI PUSH1 0x40 MLOAD PUSH3 0x461BCD PUSH1 0xE5 SHL DUP2 MSTORE PUSH1 0x20 PUSH1 0x4 DUP3 ADD MSTORE PUSH1 0x1B PUSH1 0x24 DUP3 ADD MSTORE PUSH32 0x457863656564732063617465676F727920616C6C6F636174696F6E0000000000 PUSH1 0x44 DUP3 ADD MSTORE PUSH1 0x64 ADD PUSH2 0x73E JUMP JUMPDEST PUSH12 0x33B2E3C9FD0803CE8000000 DUP2 PUSH2 0x1163 PUSH1 0x2 SLOAD SWAP1 JUMP JUMPDEST PUSH2 0x116D SWAP2 SWAP1 PUSH2 0x1A56 JUMP JUMPDEST GT ISZERO PUSH2 0x11B0 JUMPI PUSH1 0x40 MLOAD PUSH3 0x461BCD PUSH1 0xE5 SHL DUP2 MSTORE PUSH1 0x20 PUSH1 0x4 DUP3 ADD MSTORE PUSH1 0x12 PUSH1 0x24 DUP3 ADD MSTORE PUSH18 0x45786365656473206D617820737570706C79 PUSH1 0x70 SHL PUSH1 0x44 DUP3 ADD MSTORE PUSH1 0x64 ADD PUSH2 0x73E JUMP JUMPDEST DUP1 PUSH1 0x10 DUP5 PUSH1 0x40 MLOAD PUSH2 0x11C1 SWAP2 SWAP1 PUSH2 0x1AD0 JUMP JUMPDEST SWAP1 DUP2 MSTORE PUSH1 0x20 ADD PUSH1 0x40 MLOAD DUP1 SWAP2 SUB SWAP1 KECCAK256 PUSH1 0x0 DUP3 DUP3 SLOAD PUSH2 0x11DE SWAP2 SWAP1 PUSH2 0x1A56 JUMP JUMPDEST SWAP1 SWAP2 SSTORE POP PUSH2 0x11EE SWAP1 POP DUP3 DUP3 PUSH2 0x146A JUMP JUMPDEST PUSH31 0xB9EFD5AB0446905D6E90D28B0FAB5A870033585C358FF23B0D381508C01090 DUP4 DUP4 DUP4 PUSH1 0x40 MLOAD PUSH2 0x1220 SWAP4 SWAP3 SWAP2 SWAP1 PUSH2 0x1AEC JUMP JUMPDEST PUSH1 0x40 MLOAD DUP1 SWAP2 SUB SWAP1 LOG1 POP POP POP JUMP JUMPDEST PUSH2 0x975 DUP4 DUP4 DUP4 PUSH1 0x1 PUSH2 0x14A0 JUMP JUMPDEST PUSH1 0x1 PUSH1 0x1 PUSH1 0xA0 SHL SUB DUP4 DUP2 AND PUSH1 0x0 SWAP1 DUP2 MSTORE PUSH1 0x1 PUSH1 0x20 SWAP1 DUP2 MSTORE PUSH1 0x40 DUP1 DUP4 KECCAK256 SWAP4 DUP7 AND DUP4 MSTORE SWAP3 SWAP1 MSTORE KECCAK256 SLOAD PUSH1 0x0 NOT DUP2 LT ISZERO PUSH2 0x12B3 JUMPI DUP2 DUP2 LT ISZERO PUSH2 0x12A4 JUMPI PUSH1 0x40 MLOAD PUSH4 0x7DC7A0D9 PUSH1 0xE1 SHL DUP2 MSTORE PUSH1 0x1 PUSH1 0x1 PUSH1 0xA0 SHL SUB DUP5 AND PUSH1 0x4 DUP3 ADD MSTORE PUSH1 0x24 DUP2 ADD DUP3 SWAP1 MSTORE PUSH1 0x44 DUP2 ADD DUP4 SWAP1 MSTORE PUSH1 0x64 ADD PUSH2 0x73E JUMP JUMPDEST PUSH2 0x12B3 DUP5 DUP5 DUP5 DUP5 SUB PUSH1 0x0 PUSH2 0x14A0 JUMP JUMPDEST POP POP POP POP JUMP JUMPDEST PUSH1 0x1 PUSH1 0x1 PUSH1 0xA0 SHL SUB DUP4 AND PUSH2 0x12E3 JUMPI PUSH1 0x40 MLOAD PUSH4 0x4B637E8F PUSH1 0xE1 SHL DUP2 MSTORE PUSH1 0x0 PUSH1 0x4 DUP3 ADD MSTORE PUSH1 0x24 ADD PUSH2 0x73E JUMP JUMPDEST PUSH1 0x1 PUSH1 0x1 PUSH1 0xA0 SHL SUB DUP3 AND PUSH2 0x130D JUMPI PUSH1 0x40 MLOAD PUSH4 0xEC442F05 PUSH1 0xE0 SHL DUP2 MSTORE PUSH1 0x0 PUSH1 0x4 DUP3 ADD MSTORE PUSH1 0x24 ADD PUSH2 0x73E JUMP JUMPDEST PUSH2 0x975 DUP4 DUP4 DUP4 PUSH2 0x1575 JUMP JUMPDEST PUSH1 0x5 SLOAD PUSH1 0x1 PUSH1 0x1 PUSH1 0xA0 SHL SUB PUSH2 0x100 SWAP1 SWAP2 DIV AND CALLER EQ PUSH2 0x92A JUMPI PUSH1 0x40 MLOAD PUSH4 0x118CDAA7 PUSH1 0xE0 SHL DUP2 MSTORE CALLER PUSH1 0x4 DUP3 ADD MSTORE PUSH1 0x24 ADD PUSH2 0x73E JUMP JUMPDEST PUSH2 0x1353 PUSH2 0x1588 JUMP JUMPDEST PUSH1 0x5 DUP1 SLOAD PUSH1 0xFF NOT AND SWAP1 SSTORE PUSH32 0x5DB9EE0A495BF2E6FF9C91A7834C1BA4FDD244A5E8AA4E537BD38AEAE4B073AA CALLER JUMPDEST PUSH1 0x40 MLOAD PUSH1 0x1 PUSH1 0x1 PUSH1 0xA0 SHL SUB SWAP1 SWAP2 AND DUP2 MSTORE PUSH1 0x20 ADD PUSH1 0x40 MLOAD DUP1 SWAP2 SUB SWAP1 LOG1 JUMP JUMPDEST PUSH1 0x1 PUSH1 0x1 PUSH1 0xA0 SHL SUB DUP3 AND PUSH2 0x13C7 JUMPI PUSH1 0x40 MLOAD PUSH4 0x4B637E8F PUSH1 0xE1 SHL DUP2 MSTORE PUSH1 0x0 PUSH1 0x4 DUP3 ADD MSTORE PUSH1 0x24 ADD PUSH2 0x73E JUMP JUMPDEST PUSH2 0x778 DUP3 PUSH1 0x0 DUP4 PUSH2 0x1575 JUMP JUMPDEST PUSH1 0x5 DUP1 SLOAD PUSH1 0x1 PUSH1 0x1 PUSH1 0xA0 SHL SUB DUP4 DUP2 AND PUSH2 0x100 DUP2 DUP2 MUL PUSH2 0x100 PUSH1 0x1 PUSH1 0xA8 SHL SUB NOT DUP6 AND OR SWAP1 SWAP5 SSTORE PUSH1 0x40 MLOAD SWAP4 SWAP1 SWAP3 DIV AND SWAP2 DUP3 SWAP1 PUSH32 0x8BE0079C531659141344CD1FD0A4F28419497F9722A3DAAFE3B4186F6B6457E0 SWAP1 PUSH1 0x0 SWAP1 LOG3 POP POP JUMP JUMPDEST PUSH2 0x1435 PUSH2 0x15AB JUMP JUMPDEST PUSH1 0x5 DUP1 SLOAD PUSH1 0xFF NOT AND PUSH1 0x1 OR SWAP1 SSTORE PUSH32 0x62E78CEA01BEE320CD4E420270B5EA74000D11B0C9F74754EBDBFC544B05A258 PUSH2 0x1380 CALLER SWAP1 JUMP JUMPDEST PUSH1 0x1 PUSH1 0x1 PUSH1 0xA0 SHL SUB DUP3 AND PUSH2 0x1494 JUMPI PUSH1 0x40 MLOAD PUSH4 0xEC442F05 PUSH1 0xE0 SHL DUP2 MSTORE PUSH1 0x0 PUSH1 0x4 DUP3 ADD MSTORE PUSH1 0x24 ADD PUSH2 0x73E JUMP JUMPDEST PUSH2 0x778 PUSH1 0x0 DUP4 DUP4 PUSH2 0x1575 JUMP JUMPDEST PUSH1 0x1 PUSH1 0x1 PUSH1 0xA0 SHL SUB DUP5 AND PUSH2 0x14CA JUMPI PUSH1 0x40 MLOAD PUSH4 0xE602DF05 PUSH1 0xE0 SHL DUP2 MSTORE PUSH1 0x0 PUSH1 0x4 DUP3 ADD MSTORE PUSH1 0x24 ADD PUSH2 0x73E JUMP JUMPDEST PUSH1 0x1 PUSH1 0x1 PUSH1 0xA0 SHL SUB DUP4 AND PUSH2 0x14F4 JUMPI PUSH1 0x40 MLOAD PUSH4 0x4A1406B1 PUSH1 0xE1 SHL DUP2 MSTORE PUSH1 0x0 PUSH1 0x4 DUP3 ADD MSTORE PUSH1 0x24 ADD PUSH2 0x73E JUMP JUMPDEST PUSH1 0x1 PUSH1 0x1 PUSH1 0xA0 SHL SUB DUP1 DUP6 AND PUSH1 0x0 SWAP1 DUP2 MSTORE PUSH1 0x1 PUSH1 0x20 SWAP1 DUP2 MSTORE PUSH1 0x40 DUP1 DUP4 KECCAK256 SWAP4 DUP8 AND DUP4 MSTORE SWAP3 SWAP1 MSTORE KECCAK256 DUP3 SWAP1 SSTORE DUP1 ISZERO PUSH2 0x12B3 JUMPI DUP3 PUSH1 0x1 PUSH1 0x1 PUSH1 0xA0 SHL SUB AND DUP5 PUSH1 0x1 PUSH1 0x1 PUSH1 0xA0 SHL SUB AND PUSH32 0x8C5BE1E5EBEC7D5BD14F71427D1E84F3DD0314C0F7B2291E5B200AC8C7C3B925 DUP5 PUSH1 0x40 MLOAD PUSH2 0x1567 SWAP2 DUP2 MSTORE PUSH1 0x20 ADD SWAP1 JUMP JUMPDEST PUSH1 0x40 MLOAD DUP1 SWAP2 SUB SWAP1 LOG3 POP POP POP POP JUMP JUMPDEST PUSH2 0x157D PUSH2 0x15AB JUMP JUMPDEST PUSH2 0x975 DUP4 DUP4 DUP4 PUSH2 0x15CF JUMP JUMPDEST PUSH1 0x5 SLOAD PUSH1 0xFF AND PUSH2 0x92A JUMPI PUSH1 0x40 MLOAD PUSH4 0x8DFC202B PUSH1 0xE0 SHL DUP2 MSTORE PUSH1 0x4 ADD PUSH1 0x40 MLOAD DUP1 SWAP2 SUB SWAP1 REVERT JUMPDEST PUSH1 0x5 SLOAD PUSH1 0xFF AND ISZERO PUSH2 0x92A JUMPI PUSH1 0x40 MLOAD PUSH4 0xD93C0665 PUSH1 0xE0 SHL DUP2 MSTORE PUSH1 0x4 ADD PUSH1 0x40 MLOAD DUP1 SWAP2 SUB SWAP1 REVERT JUMPDEST PUSH1 0x1 PUSH1 0x1 PUSH1 0xA0 SHL SUB DUP4 AND PUSH2 0x15FA JUMPI DUP1 PUSH1 0x2 PUSH1 0x0 DUP3 DUP3 SLOAD PUSH2 0x15EF SWAP2 SWAP1 PUSH2 0x1A56 JUMP JUMPDEST SWAP1 SWAP2 SSTORE POP PUSH2 0x166C SWAP1 POP JUMP JUMPDEST PUSH1 0x1 PUSH1 0x1 PUSH1 0xA0 SHL SUB DUP4 AND PUSH1 0x0 SWAP1 DUP2 MSTORE PUSH1 0x20 DUP2 SWAP1 MSTORE PUSH1 0x40 SWAP1 KECCAK256 SLOAD DUP2 DUP2 LT ISZERO PUSH2 0x164D JUMPI PUSH1 0x40 MLOAD PUSH4 0x391434E3 PUSH1 0xE2 SHL DUP2 MSTORE PUSH1 0x1 PUSH1 0x1 PUSH1 0xA0 SHL SUB DUP6 AND PUSH1 0x4 DUP3 ADD MSTORE PUSH1 0x24 DUP2 ADD DUP3 SWAP1 MSTORE PUSH1 0x44 DUP2 ADD DUP4 SWAP1 MSTORE PUSH1 0x64 ADD PUSH2 0x73E JUMP JUMPDEST PUSH1 0x1 PUSH1 0x1 PUSH1 0xA0 SHL SUB DUP5 AND PUSH1 0x0 SWAP1 DUP2 MSTORE PUSH1 0x20 DUP2 SWAP1 MSTORE PUSH1 0x40 SWAP1 KECCAK256 SWAP1 DUP3 SWAP1 SUB SWAP1 SSTORE JUMPDEST PUSH1 0x1 PUSH1 0x1 PUSH1 0xA0 SHL SUB DUP3 AND PUSH2 0x1688 JUMPI PUSH1 0x2 DUP1 SLOAD DUP3 SWAP1 SUB SWAP1 SSTORE PUSH2 0x16A7 JUMP JUMPDEST PUSH1 0x1 PUSH1 0x1 PUSH1 0xA0 SHL SUB DUP3 AND PUSH1 0x0 SWAP1 DUP2 MSTORE PUSH1 0x20 DUP2 SWAP1 MSTORE PUSH1 0x40 SWAP1 KECCAK256 DUP1 SLOAD DUP3 ADD SWAP1 SSTORE JUMPDEST DUP2 PUSH1 0x1 PUSH1 0x1 PUSH1 0xA0 SHL SUB AND DUP4 PUSH1 0x1 PUSH1 0x1 PUSH1 0xA0 SHL SUB AND PUSH32 0xDDF252AD1BE2C89B69C2B068FC378DAA952BA7F163C4A11628F55A4DF523B3EF DUP4 PUSH1 0x40 MLOAD PUSH2 0x16EC SWAP2 DUP2 MSTORE PUSH1 0x20 ADD SWAP1 JUMP JUMPDEST PUSH1 0x40 MLOAD DUP1 SWAP2 SUB SWAP1 LOG3 POP POP POP JUMP JUMPDEST DUP1 CALLDATALOAD PUSH1 0x1 PUSH1 0x1 PUSH1 0xA0 SHL SUB DUP2 AND DUP2 EQ PUSH2 0x1710 JUMPI PUSH1 0x0 DUP1 REVERT JUMPDEST SWAP2 SWAP1 POP JUMP JUMPDEST PUSH1 0x0 DUP1 PUSH1 0x40 DUP4 DUP6 SUB SLT ISZERO PUSH2 0x1728 JUMPI PUSH1 0x0 DUP1 REVERT JUMPDEST PUSH2 0x1731 DUP4 PUSH2 0x16F9 JUMP JUMPDEST SWAP5 PUSH1 0x20 SWAP4 SWAP1 SWAP4 ADD CALLDATALOAD SWAP4 POP POP POP JUMP JUMPDEST PUSH1 0x0 JUMPDEST DUP4 DUP2 LT ISZERO PUSH2 0x175A JUMPI DUP2 DUP2 ADD MLOAD DUP4 DUP3 ADD MSTORE PUSH1 0x20 ADD PUSH2 0x1742 JUMP JUMPDEST POP POP PUSH1 0x0 SWAP2 ADD MSTORE JUMP JUMPDEST PUSH1 0x0 DUP2 MLOAD DUP1 DUP5 MSTORE PUSH2 0x177B DUP2 PUSH1 0x20 DUP7 ADD PUSH1 0x20 DUP7 ADD PUSH2 0x173F JUMP JUMPDEST PUSH1 0x1F ADD PUSH1 0x1F NOT AND SWAP3 SWAP1 SWAP3 ADD PUSH1 0x20 ADD SWAP3 SWAP2 POP POP JUMP JUMPDEST PUSH1 0x20 DUP2 MSTORE PUSH1 0x0 PUSH2 0xDF5 PUSH1 0x20 DUP4 ADD DUP5 PUSH2 0x1763 JUMP JUMPDEST PUSH4 0x4E487B71 PUSH1 0xE0 SHL PUSH1 0x0 MSTORE PUSH1 0x41 PUSH1 0x4 MSTORE PUSH1 0x24 PUSH1 0x0 REVERT JUMPDEST PUSH1 0x0 DUP3 PUSH1 0x1F DUP4 ADD SLT PUSH2 0x17C9 JUMPI PUSH1 0x0 DUP1 REVERT JUMPDEST DUP2 CALLDATALOAD PUSH8 0xFFFFFFFFFFFFFFFF DUP1 DUP3 GT ISZERO PUSH2 0x17E4 JUMPI PUSH2 0x17E4 PUSH2 0x17A2 JUMP JUMPDEST PUSH1 0x40 MLOAD PUSH1 0x1F DUP4 ADD PUSH1 0x1F NOT SWAP1 DUP2 AND PUSH1 0x3F ADD AND DUP2 ADD SWAP1 DUP3 DUP3 GT DUP2 DUP4 LT OR ISZERO PUSH2 0x180C JUMPI PUSH2 0x180C PUSH2 0x17A2 JUMP JUMPDEST DUP2 PUSH1 0x40 MSTORE DUP4 DUP2 MSTORE DUP7 PUSH1 0x20 DUP6 DUP9 ADD ADD GT ISZERO PUSH2 0x1825 JUMPI PUSH1 0x0 DUP1 REVERT JUMPDEST DUP4 PUSH1 0x20 DUP8 ADD PUSH1 0x20 DUP4 ADD CALLDATACOPY PUSH1 0x0 PUSH1 0x20 DUP6 DUP4 ADD ADD MSTORE DUP1 SWAP5 POP POP POP POP POP SWAP3 SWAP2 POP POP JUMP JUMPDEST PUSH1 0x0 PUSH1 0x20 DUP3 DUP5 SUB SLT ISZERO PUSH2 0x1857 JUMPI PUSH1 0x0 DUP1 REVERT JUMPDEST DUP2 CALLDATALOAD PUSH8 0xFFFFFFFFFFFFFFFF DUP2 GT ISZERO PUSH2 0x186E JUMPI PUSH1 0x0 DUP1 REVERT JUMPDEST PUSH2 0xB60 DUP5 DUP3 DUP6 ADD PUSH2 0x17B8 JUMP JUMPDEST PUSH1 0x0 DUP1 PUSH1 0x0 PUSH1 0x60 DUP5 DUP7 SUB SLT ISZERO PUSH2 0x188F JUMPI PUSH1 0x0 DUP1 REVERT JUMPDEST PUSH2 0x1898 DUP5 PUSH2 0x16F9 JUMP JUMPDEST SWAP3 POP PUSH2 0x18A6 PUSH1 0x20 DUP6 ADD PUSH2 0x16F9 JUMP JUMPDEST SWAP2 POP PUSH1 0x40 DUP5 ADD CALLDATALOAD SWAP1 POP SWAP3 POP SWAP3 POP SWAP3 JUMP JUMPDEST PUSH1 0x0 PUSH1 0x20 DUP3 DUP5 SUB SLT ISZERO PUSH2 0x18C8 JUMPI PUSH1 0x0 DUP1 REVERT JUMPDEST POP CALLDATALOAD SWAP2 SWAP1 POP JUMP JUMPDEST PUSH1 0x0 DUP1 PUSH1 0x0 PUSH1 0x60 DUP5 DUP7 SUB SLT ISZERO PUSH2 0x18E4 JUMPI PUSH1 0x0 DUP1 REVERT JUMPDEST DUP4 CALLDATALOAD PUSH8 0xFFFFFFFFFFFFFFFF DUP2 GT ISZERO PUSH2 0x18FB JUMPI PUSH1 0x0 DUP1 REVERT JUMPDEST PUSH2 0x1907 DUP7 DUP3 DUP8 ADD PUSH2 0x17B8 JUMP JUMPDEST SWAP4 POP POP PUSH2 0x18A6 PUSH1 0x20 DUP6 ADD PUSH2 0x16F9 JUMP JUMPDEST PUSH1 0x0 DUP1 PUSH1 0x40 DUP4 DUP6 SUB SLT ISZERO PUSH2 0x1929 JUMPI PUSH1 0x0 DUP1 REVERT JUMPDEST DUP3 CALLDATALOAD SWAP2 POP PUSH1 0x20 DUP4 ADD CALLDATALOAD PUSH8 0xFFFFFFFFFFFFFFFF DUP2 GT ISZERO PUSH2 0x1947 JUMPI PUSH1 0x0 DUP1 REVERT JUMPDEST PUSH2 0x1953 DUP6 DUP3 DUP7 ADD PUSH2 0x17B8 JUMP JUMPDEST SWAP2 POP POP SWAP3 POP SWAP3 SWAP1 POP JUMP JUMPDEST PUSH1 0x0 PUSH1 0x20 DUP3 DUP5 SUB SLT ISZERO PUSH2 0x196F JUMPI PUSH1 0x0 DUP1 REVERT JUMPDEST PUSH2 0xDF5 DUP3 PUSH2 0x16F9 JUMP JUMPDEST PUSH1 0x0 DUP1 PUSH1 0x40 DUP4 DUP6 SUB SLT ISZERO PUSH2 0x198B JUMPI PUSH1 0x0 DUP1 REVERT JUMPDEST PUSH2 0x1994 DUP4 PUSH2 0x16F9 JUMP JUMPDEST SWAP2 POP PUSH2 0x19A2 PUSH1 0x20 DUP5 ADD PUSH2 0x16F9 JUMP JUMPDEST SWAP1 POP SWAP3 POP SWAP3 SWAP1 POP JUMP JUMPDEST PUSH1 0x0 DUP1 PUSH1 0x40 DUP4 DUP6 SUB SLT ISZERO PUSH2 0x19BE JUMPI PUSH1 0x0 DUP1 REVERT JUMPDEST POP POP DUP1 CALLDATALOAD SWAP3 PUSH1 0x20 SWAP1 SWAP2 ADD CALLDATALOAD SWAP2 POP JUMP JUMPDEST PUSH1 0x1 DUP2 DUP2 SHR SWAP1 DUP3 AND DUP1 PUSH2 0x19E1 JUMPI PUSH1 0x7F DUP3 AND SWAP2 POP JUMPDEST PUSH1 0x20 DUP3 LT DUP2 SUB PUSH2 0x1A01 JUMPI PUSH4 0x4E487B71 PUSH1 0xE0 SHL PUSH1 0x0 MSTORE PUSH1 0x22 PUSH1 0x4 MSTORE PUSH1 0x24 PUSH1 0x0 REVERT JUMPDEST POP SWAP2 SWAP1 POP JUMP JUMPDEST PUSH4 0x4E487B71 PUSH1 0xE0 SHL PUSH1 0x0 MSTORE PUSH1 0x11 PUSH1 0x4 MSTORE PUSH1 0x24 PUSH1 0x0 REVERT JUMPDEST DUP1 DUP3 MUL DUP2 ISZERO DUP3 DUP3 DIV DUP5 EQ OR PUSH2 0x822 JUMPI PUSH2 0x822 PUSH2 0x1A07 JUMP JUMPDEST PUSH1 0x0 DUP3 PUSH2 0x1A51 JUMPI PUSH4 0x4E487B71 PUSH1 0xE0 SHL PUSH1 0x0 MSTORE PUSH1 0x12 PUSH1 0x4 MSTORE PUSH1 0x24 PUSH1 0x0 REVERT JUMPDEST POP DIV SWAP1 JUMP JUMPDEST DUP1 DUP3 ADD DUP1 DUP3 GT ISZERO PUSH2 0x822 JUMPI PUSH2 0x822 PUSH2 0x1A07 JUMP JUMPDEST DUP3 DUP2 MSTORE PUSH1 0x40 PUSH1 0x20 DUP3 ADD MSTORE PUSH1 0x0 PUSH2 0xB60 PUSH1 0x40 DUP4 ADD DUP5 PUSH2 0x1763 JUMP JUMPDEST PUSH1 0x0 PUSH1 0x20 DUP3 DUP5 SUB SLT ISZERO PUSH2 0x1A94 JUMPI PUSH1 0x0 DUP1 REVERT JUMPDEST POP MLOAD SWAP2 SWAP1 POP JUMP JUMPDEST DUP2 DUP2 SUB DUP2 DUP2 GT ISZERO PUSH2 0x822 JUMPI PUSH2 0x822 PUSH2 0x1A07 JUMP JUMPDEST PUSH1 0x0 PUSH1 0x20 DUP3 DUP5 SUB SLT ISZERO PUSH2 0x1AC0 JUMPI PUSH1 0x0 DUP1 REVERT JUMPDEST DUP2 MLOAD DUP1 ISZERO ISZERO DUP2 EQ PUSH2 0xDF5 JUMPI PUSH1 0x0 DUP1 REVERT JUMPDEST PUSH1 0x0 DUP3 MLOAD PUSH2 0x1AE2 DUP2 DUP5 PUSH1 0x20 DUP8 ADD PUSH2 0x173F JUMP JUMPDEST SWAP2 SWAP1 SWAP2 ADD SWAP3 SWAP2 POP POP JUMP JUMPDEST PUSH1 0x60 DUP2 MSTORE PUSH1 0x0 PUSH2 0x1AFF PUSH1 0x60 DUP4 ADD DUP7 PUSH2 0x1763 JUMP JUMPDEST PUSH1 0x1 PUSH1 0x1 PUSH1 0xA0 SHL SUB SWAP5 SWAP1 SWAP5 AND PUSH1 0x20 DUP4 ADD MSTORE POP PUSH1 0x40 ADD MSTORE SWAP2 SWAP1 POP JUMP INVALID LOG2 PUSH5 0x6970667358 0x22 SLT KECCAK256 SWAP8 0xFB CREATE2 PUSH15 0xE7FE2353B752F3190F3CE2DA1D3F79 PUSH13 0xECE22BA9439F3F622FC203A164 PUSH20 0x6F6C634300081800330000000000000000000000 "},"methodIdentifiers":{"BASE_FEE()":"3d18651e","BUG_BOUNTY_ALLOCATION()":"5648db14","DEVELOPMENT_ALLOCATION()":"e1807b27","LIQUIDITY_MINING()":"12aa241e","MARKETING_ALLOCATION()":"8e80bd39","MAX_SUPPLY()":"32cb6b0c","RESERVE_ALLOCATION()":"7b5c7f03","STAKING_REWARDS()":"07bce0cd","TEAM_ALLOCATION()":"fd99cbed","allowance(address,address)":"dd62ed3e","approve(address,uint256)":"095ea7b3","balanceOf(address)":"70a08231","bugBountyWallet()":"c5f7a46b","burn(uint256)":"42966c68","burnFrom(address,uint256)":"79cc6790","burnFromRevenue(uint256,string)":"695fa425","calculateFeeDiscount(address)":"bdb19551","categoryLimit(string)":"1e0f7660","categoryMinted(string)":"82f76769","decimals()":"313ce567","developmentWallet()":"c04a5414","emergencyBurn(uint256)":"dfff8568","feeDiscountTiers(uint256)":"4325dc77","getAllocationInfo(string)":"ca9d47fa","getBurnRate()":"482cd6c5","getCirculatingSupply()":"2b112e49","getEffectiveFee(address)":"96ec4fe3","liquidityMiningContract()":"7422e1af","marketingWallet()":"75f0a874","mintLiquidityRewards(address,uint256)":"399fa769","mintStakingRewards(address,uint256)":"0194a7ca","mintToCategory(string,address,uint256)":"5c95ed24","name()":"06fdde03","owner()":"8da5cb5b","pause()":"8456cb59","paused()":"5c975abb","renounceOwnership()":"715018a6","reserveWallet()":"d72b11bd","setContracts(address,address)":"d8952a49","stakingContract()":"ee99205c","symbol()":"95d89b41","teamWallet()":"59927044","totalBurned()":"d89135cd","totalSupply()":"18160ddd","transfer(address,uint256)":"a9059cbb","transferFrom(address,address,uint256)":"23b872dd","transferOwnership(address)":"f2fde38b","unpause()":"3f4ba83a","updateFeeDiscountTier(uint256,uint256)":"e1c438b8","withdrawToken(address,uint256)":"9e281a98"}}}}}