{"contracts/XPSwapMEVProtection.sol":{"XPSwapMEVProtection":{"abi":[{"inputs":[],"stateMutability":"nonpayable","type":"constructor"},{"inputs":[{"internalType":"address","name":"owner","type":"address"}],"name":"OwnableInvalidOwner","type":"error"},{"inputs":[{"internalType":"address","name":"account","type":"address"}],"name":"OwnableUnauthorizedAccount","type":"error"},{"inputs":[],"name":"ReentrancyGuardReentrantCall","type":"error"},{"anonymous":false,"inputs":[{"indexed":true,"internalType":"address","name":"user","type":"address"},{"indexed":false,"internalType":"uint256","name":"blockNumber","type":"uint256"},{"indexed":false,"internalType":"string","name":"reason","type":"string"}],"name":"MEVDetected","type":"event"},{"anonymous":false,"inputs":[{"indexed":true,"internalType":"address","name":"previousOwner","type":"address"},{"indexed":true,"internalType":"address","name":"newOwner","type":"address"}],"name":"OwnershipTransferred","type":"event"},{"inputs":[],"name":"MAX_TXS_PER_BLOCK","outputs":[{"internalType":"uint256","name":"","type":"uint256"}],"stateMutability":"view","type":"function"},{"inputs":[],"name":"MEV_PROTECTION_BLOCKS","outputs":[{"internalType":"uint256","name":"","type":"uint256"}],"stateMutability":"view","type":"function"},{"inputs":[{"internalType":"address","name":"user","type":"address"},{"internalType":"uint256","name":"amount","type":"uint256"}],"name":"checkMEVProtection","outputs":[{"internalType":"bool","name":"","type":"bool"}],"stateMutability":"view","type":"function"},{"inputs":[{"internalType":"address","name":"","type":"address"}],"name":"mevProtection","outputs":[{"internalType":"uint256","name":"lastTxBlock","type":"uint256"},{"internalType":"uint256","name":"txCountInBlock","type":"uint256"},{"internalType":"uint256","name":"lastTxTimestamp","type":"uint256"},{"internalType":"bool","name":"flagged","type":"bool"}],"stateMutability":"view","type":"function"},{"inputs":[],"name":"owner","outputs":[{"internalType":"address","name":"","type":"address"}],"stateMutability":"view","type":"function"},{"inputs":[],"name":"renounceOwnership","outputs":[],"stateMutability":"nonpayable","type":"function"},{"inputs":[{"internalType":"address","name":"newOwner","type":"address"}],"name":"transferOwnership","outputs":[],"stateMutability":"nonpayable","type":"function"},{"inputs":[{"internalType":"address","name":"user","type":"address"}],"name":"updateMEVProtection","outputs":[],"stateMutability":"nonpayable","type":"function"}],"evm":{"bytecode":{"linkReferences":{},"object":"608060405234801561001057600080fd5b506001600055338061003c57604051631e4fbdf760e01b81526000600482015260240160405180910390fd5b6100458161004b565b5061009d565b600180546001600160a01b038381166001600160a01b0319831681179093556040519116919082907f8be0079c531659141344cd1fd0a4f28419497f9722a3daafe3b4186f6b6457e090600090a35050565b6103dd806100ac6000396000f3fe608060405234801561001057600080fd5b50600436106100885760003560e01c8063ab17b3bb1161005b578063ab17b3bb146100f0578063ac2dd560146100f8578063dea2772214610154578063f2fde38b1461016757600080fd5b8063715018a61461008d5780637efa18e3146100975780638da5cb5b146100bf578063970a4e63146100da575b600080fd5b61009561017a565b005b6100aa6100a5366004610334565b61018e565b60405190151581526020015b60405180910390f35b6001546040516001600160a01b0390911681526020016100b6565b6100e2600381565b6040519081526020016100b6565b6100e2600281565b61013261010636600461035e565b600260208190526000918252604090912080546001820154928201546003909201549092919060ff1684565b60408051948552602085019390935291830152151560608201526080016100b6565b61009561016236600461035e565b610205565b61009561017536600461035e565b610256565b610182610299565b61018c60006102c6565b565b6001600160a01b03821660009081526002602081815260408084208151608081018352815480825260018301549482019490945293810154918401919091526003015460ff161515606083015243036101f75760038160200151106101f75760009150506101ff565b606001511590505b92915050565b6001600160a01b0381166000908152600260205260409020805443111561023157600181810155610249565b60018101805490600061024383610380565b91905055505b4381554260029091015550565b61025e610299565b6001600160a01b03811661028d57604051631e4fbdf760e01b8152600060048201526024015b60405180910390fd5b610296816102c6565b50565b6001546001600160a01b0316331461018c5760405163118cdaa760e01b8152336004820152602401610284565b600180546001600160a01b038381166001600160a01b0319831681179093556040519116919082907f8be0079c531659141344cd1fd0a4f28419497f9722a3daafe3b4186f6b6457e090600090a35050565b80356001600160a01b038116811461032f57600080fd5b919050565b6000806040838503121561034757600080fd5b61035083610318565b946020939093013593505050565b60006020828403121561037057600080fd5b61037982610318565b9392505050565b6000600182016103a057634e487b7160e01b600052601160045260246000fd5b506001019056fea26469706673582212206586d68a0883a8c36caa646e180d57ce774938d77aaafdfdf4dcf9f7b01bdbd464736f6c63430008180033","opcodes":"PUSH1 0x80 PUSH1 0x40 MSTORE CALLVALUE DUP1 ISZERO PUSH2 0x10 JUMPI PUSH1 0x0 DUP1 REVERT JUMPDEST POP PUSH1 0x1 PUSH1 0x0 SSTORE CALLER DUP1 PUSH2 0x3C JUMPI PUSH1 0x40 MLOAD PUSH4 0x1E4FBDF7 PUSH1 0xE0 SHL DUP2 MSTORE PUSH1 0x0 PUSH1 0x4 DUP3 ADD MSTORE PUSH1 0x24 ADD PUSH1 0x40 MLOAD DUP1 SWAP2 SUB SWAP1 REVERT JUMPDEST PUSH2 0x45 DUP2 PUSH2 0x4B JUMP JUMPDEST POP PUSH2 0x9D JUMP JUMPDEST PUSH1 0x1 DUP1 SLOAD PUSH1 0x1 PUSH1 0x1 PUSH1 0xA0 SHL SUB DUP4 DUP2 AND PUSH1 0x1 PUSH1 0x1 PUSH1 0xA0 SHL SUB NOT DUP4 AND DUP2 OR SWAP1 SWAP4 SSTORE PUSH1 0x40 MLOAD SWAP2 AND SWAP2 SWAP1 DUP3 SWAP1 PUSH32 0x8BE0079C531659141344CD1FD0A4F28419497F9722A3DAAFE3B4186F6B6457E0 SWAP1 PUSH1 0x0 SWAP1 LOG3 POP POP JUMP JUMPDEST PUSH2 0x3DD DUP1 PUSH2 0xAC PUSH1 0x0 CODECOPY PUSH1 0x0 RETURN INVALID PUSH1 0x80 PUSH1 0x40 MSTORE CALLVALUE DUP1 ISZERO PUSH2 0x10 JUMPI PUSH1 0x0 DUP1 REVERT JUMPDEST POP PUSH1 0x4 CALLDATASIZE LT PUSH2 0x88 JUMPI PUSH1 0x0 CALLDATALOAD PUSH1 0xE0 SHR DUP1 PUSH4 0xAB17B3BB GT PUSH2 0x5B JUMPI DUP1 PUSH4 0xAB17B3BB EQ PUSH2 0xF0 JUMPI DUP1 PUSH4 0xAC2DD560 EQ PUSH2 0xF8 JUMPI DUP1 PUSH4 0xDEA27722 EQ PUSH2 0x154 JUMPI DUP1 PUSH4 0xF2FDE38B EQ PUSH2 0x167 JUMPI PUSH1 0x0 DUP1 REVERT JUMPDEST DUP1 PUSH4 0x715018A6 EQ PUSH2 0x8D JUMPI DUP1 PUSH4 0x7EFA18E3 EQ PUSH2 0x97 JUMPI DUP1 PUSH4 0x8DA5CB5B EQ PUSH2 0xBF JUMPI DUP1 PUSH4 0x970A4E63 EQ PUSH2 0xDA JUMPI JUMPDEST PUSH1 0x0 DUP1 REVERT JUMPDEST PUSH2 0x95 PUSH2 0x17A JUMP JUMPDEST STOP JUMPDEST PUSH2 0xAA PUSH2 0xA5 CALLDATASIZE PUSH1 0x4 PUSH2 0x334 JUMP JUMPDEST PUSH2 0x18E JUMP JUMPDEST PUSH1 0x40 MLOAD SWAP1 ISZERO ISZERO DUP2 MSTORE PUSH1 0x20 ADD JUMPDEST PUSH1 0x40 MLOAD DUP1 SWAP2 SUB SWAP1 RETURN JUMPDEST PUSH1 0x1 SLOAD PUSH1 0x40 MLOAD PUSH1 0x1 PUSH1 0x1 PUSH1 0xA0 SHL SUB SWAP1 SWAP2 AND DUP2 MSTORE PUSH1 0x20 ADD PUSH2 0xB6 JUMP JUMPDEST PUSH2 0xE2 PUSH1 0x3 DUP2 JUMP JUMPDEST PUSH1 0x40 MLOAD SWAP1 DUP2 MSTORE PUSH1 0x20 ADD PUSH2 0xB6 JUMP JUMPDEST PUSH2 0xE2 PUSH1 0x2 DUP2 JUMP JUMPDEST PUSH2 0x132 PUSH2 0x106 CALLDATASIZE PUSH1 0x4 PUSH2 0x35E JUMP JUMPDEST PUSH1 0x2 PUSH1 0x20 DUP2 SWAP1 MSTORE PUSH1 0x0 SWAP2 DUP3 MSTORE PUSH1 0x40 SWAP1 SWAP2 KECCAK256 DUP1 SLOAD PUSH1 0x1 DUP3 ADD SLOAD SWAP3 DUP3 ADD SLOAD PUSH1 0x3 SWAP1 SWAP3 ADD SLOAD SWAP1 SWAP3 SWAP2 SWAP1 PUSH1 0xFF AND DUP5 JUMP JUMPDEST PUSH1 0x40 DUP1 MLOAD SWAP5 DUP6 MSTORE PUSH1 0x20 DUP6 ADD SWAP4 SWAP1 SWAP4 MSTORE SWAP2 DUP4 ADD MSTORE ISZERO ISZERO PUSH1 0x60 DUP3 ADD MSTORE PUSH1 0x80 ADD PUSH2 0xB6 JUMP JUMPDEST PUSH2 0x95 PUSH2 0x162 CALLDATASIZE PUSH1 0x4 PUSH2 0x35E JUMP JUMPDEST PUSH2 0x205 JUMP JUMPDEST PUSH2 0x95 PUSH2 0x175 CALLDATASIZE PUSH1 0x4 PUSH2 0x35E JUMP JUMPDEST PUSH2 0x256 JUMP JUMPDEST PUSH2 0x182 PUSH2 0x299 JUMP JUMPDEST PUSH2 0x18C PUSH1 0x0 PUSH2 0x2C6 JUMP JUMPDEST JUMP JUMPDEST PUSH1 0x1 PUSH1 0x1 PUSH1 0xA0 SHL SUB DUP3 AND PUSH1 0x0 SWAP1 DUP2 MSTORE PUSH1 0x2 PUSH1 0x20 DUP2 DUP2 MSTORE PUSH1 0x40 DUP1 DUP5 KECCAK256 DUP2 MLOAD PUSH1 0x80 DUP2 ADD DUP4 MSTORE DUP2 SLOAD DUP1 DUP3 MSTORE PUSH1 0x1 DUP4 ADD SLOAD SWAP5 DUP3 ADD SWAP5 SWAP1 SWAP5 MSTORE SWAP4 DUP2 ADD SLOAD SWAP2 DUP5 ADD SWAP2 SWAP1 SWAP2 MSTORE PUSH1 0x3 ADD SLOAD PUSH1 0xFF AND ISZERO ISZERO PUSH1 0x60 DUP4 ADD MSTORE NUMBER SUB PUSH2 0x1F7 JUMPI PUSH1 0x3 DUP2 PUSH1 0x20 ADD MLOAD LT PUSH2 0x1F7 JUMPI PUSH1 0x0 SWAP2 POP POP PUSH2 0x1FF JUMP JUMPDEST PUSH1 0x60 ADD MLOAD ISZERO SWAP1 POP JUMPDEST SWAP3 SWAP2 POP POP JUMP JUMPDEST PUSH1 0x1 PUSH1 0x1 PUSH1 0xA0 SHL SUB DUP2 AND PUSH1 0x0 SWAP1 DUP2 MSTORE PUSH1 0x2 PUSH1 0x20 MSTORE PUSH1 0x40 SWAP1 KECCAK256 DUP1 SLOAD NUMBER GT ISZERO PUSH2 0x231 JUMPI PUSH1 0x1 DUP2 DUP2 ADD SSTORE PUSH2 0x249 JUMP JUMPDEST PUSH1 0x1 DUP2 ADD DUP1 SLOAD SWAP1 PUSH1 0x0 PUSH2 0x243 DUP4 PUSH2 0x380 JUMP JUMPDEST SWAP2 SWAP1 POP SSTORE POP JUMPDEST NUMBER DUP2 SSTORE TIMESTAMP PUSH1 0x2 SWAP1 SWAP2 ADD SSTORE POP JUMP JUMPDEST PUSH2 0x25E PUSH2 0x299 JUMP JUMPDEST PUSH1 0x1 PUSH1 0x1 PUSH1 0xA0 SHL SUB DUP2 AND PUSH2 0x28D JUMPI PUSH1 0x40 MLOAD PUSH4 0x1E4FBDF7 PUSH1 0xE0 SHL DUP2 MSTORE PUSH1 0x0 PUSH1 0x4 DUP3 ADD MSTORE PUSH1 0x24 ADD JUMPDEST PUSH1 0x40 MLOAD DUP1 SWAP2 SUB SWAP1 REVERT JUMPDEST PUSH2 0x296 DUP2 PUSH2 0x2C6 JUMP JUMPDEST POP JUMP JUMPDEST PUSH1 0x1 SLOAD PUSH1 0x1 PUSH1 0x1 PUSH1 0xA0 SHL SUB AND CALLER EQ PUSH2 0x18C JUMPI PUSH1 0x40 MLOAD PUSH4 0x118CDAA7 PUSH1 0xE0 SHL DUP2 MSTORE CALLER PUSH1 0x4 DUP3 ADD MSTORE PUSH1 0x24 ADD PUSH2 0x284 JUMP JUMPDEST PUSH1 0x1 DUP1 SLOAD PUSH1 0x1 PUSH1 0x1 PUSH1 0xA0 SHL SUB DUP4 DUP2 AND PUSH1 0x1 PUSH1 0x1 PUSH1 0xA0 SHL SUB NOT DUP4 AND DUP2 OR SWAP1 SWAP4 SSTORE PUSH1 0x40 MLOAD SWAP2 AND SWAP2 SWAP1 DUP3 SWAP1 PUSH32 0x8BE0079C531659141344CD1FD0A4F28419497F9722A3DAAFE3B4186F6B6457E0 SWAP1 PUSH1 0x0 SWAP1 LOG3 POP POP JUMP JUMPDEST DUP1 CALLDATALOAD PUSH1 0x1 PUSH1 0x1 PUSH1 0xA0 SHL SUB DUP2 AND DUP2 EQ PUSH2 0x32F JUMPI PUSH1 0x0 DUP1 REVERT JUMPDEST SWAP2 SWAP1 POP JUMP JUMPDEST PUSH1 0x0 DUP1 PUSH1 0x40 DUP4 DUP6 SUB SLT ISZERO PUSH2 0x347 JUMPI PUSH1 0x0 DUP1 REVERT JUMPDEST PUSH2 0x350 DUP4 PUSH2 0x318 JUMP JUMPDEST SWAP5 PUSH1 0x20 SWAP4 SWAP1 SWAP4 ADD CALLDATALOAD SWAP4 POP POP POP JUMP JUMPDEST PUSH1 0x0 PUSH1 0x20 DUP3 DUP5 SUB SLT ISZERO PUSH2 0x370 JUMPI PUSH1 0x0 DUP1 REVERT JUMPDEST PUSH2 0x379 DUP3 PUSH2 0x318 JUMP JUMPDEST SWAP4 SWAP3 POP POP POP JUMP JUMPDEST PUSH1 0x0 PUSH1 0x1 DUP3 ADD PUSH2 0x3A0 JUMPI PUSH4 0x4E487B71 PUSH1 0xE0 SHL PUSH1 0x0 MSTORE PUSH1 0x11 PUSH1 0x4 MSTORE PUSH1 0x24 PUSH1 0x0 REVERT JUMPDEST POP PUSH1 0x1 ADD SWAP1 JUMP INVALID LOG2 PUSH5 0x6970667358 0x22 SLT KECCAK256 PUSH6 0x86D68A0883A8 0xC3 PUSH13 0xAA646E180D57CE774938D77AAA REVERT REVERT DELEGATECALL 0xDC 0xF9 0xF7 0xB0 SHL 0xDB 0xD4 PUSH5 0x736F6C6343 STOP ADDMOD XOR STOP CALLER "},"methodIdentifiers":{"MAX_TXS_PER_BLOCK()":"970a4e63","MEV_PROTECTION_BLOCKS()":"ab17b3bb","checkMEVProtection(address,uint256)":"7efa18e3","mevProtection(address)":"ac2dd560","owner()":"8da5cb5b","renounceOwnership()":"715018a6","transferOwnership(address)":"f2fde38b","updateMEVProtection(address)":"dea27722"}}}}}