{
  "_format": "hh-sol-artifact-1",
  "contractName": "XPSwapOptionsSecurity",
  "sourceName": "contracts/XPSwapOptionsSecurity.sol",
  "abi": [
    {
      "inputs": [],
      "stateMutability": "nonpayable",
      "type": "constructor"
    },
    {
      "inputs": [
        {
          "internalType": "address",
          "name": "owner",
          "type": "address"
        }
      ],
      "name": "OwnableInvalidOwner",
      "type": "error"
    },
    {
      "inputs": [
        {
          "internalType": "address",
          "name": "account",
          "type": "address"
        }
      ],
      "name": "OwnableUnauthorizedAccount",
      "type": "error"
    },
    {
      "inputs": [],
      "name": "ReentrancyGuardReentrantCall",
      "type": "error"
    },
    {
      "anonymous": false,
      "inputs": [
        {
          "indexed": true,
          "internalType": "address",
          "name": "asset",
          "type": "address"
        },
        {
          "indexed": false,
          "internalType": "uint256",
          "name": "maxStrike",
          "type": "uint256"
        },
        {
          "indexed": false,
          "internalType": "uint256",
          "name": "minStrike",
          "type": "uint256"
        }
      ],
      "name": "OptionSecurityUpdated",
      "type": "event"
    },
    {
      "anonymous": false,
      "inputs": [
        {
          "indexed": true,
          "internalType": "address",
          "name": "previousOwner",
          "type": "address"
        },
        {
          "indexed": true,
          "internalType": "address",
          "name": "newOwner",
          "type": "address"
        }
      ],
      "name": "OwnershipTransferred",
      "type": "event"
    },
    {
      "inputs": [
        {
          "internalType": "address",
          "name": "",
          "type": "address"
        }
      ],
      "name": "authorizedTraders",
      "outputs": [
        {
          "internalType": "bool",
          "name": "",
          "type": "bool"
        }
      ],
      "stateMutability": "view",
      "type": "function"
    },
    {
      "inputs": [
        {
          "internalType": "address",
          "name": "",
          "type": "address"
        }
      ],
      "name": "optionParams",
      "outputs": [
        {
          "internalType": "uint256",
          "name": "maxStrike",
          "type": "uint256"
        },
        {
          "internalType": "uint256",
          "name": "minStrike",
          "type": "uint256"
        },
        {
          "internalType": "uint256",
          "name": "maxExpiry",
          "type": "uint256"
        },
        {
          "internalType": "uint256",
          "name": "minExpiry",
          "type": "uint256"
        },
        {
          "internalType": "bool",
          "name": "isActive",
          "type": "bool"
        }
      ],
      "stateMutability": "view",
      "type": "function"
    },
    {
      "inputs": [],
      "name": "owner",
      "outputs": [
        {
          "internalType": "address",
          "name": "",
          "type": "address"
        }
      ],
      "stateMutability": "view",
      "type": "function"
    },
    {
      "inputs": [],
      "name": "renounceOwnership",
      "outputs": [],
      "stateMutability": "nonpayable",
      "type": "function"
    },
    {
      "inputs": [
        {
          "internalType": "address",
          "name": "underlying",
          "type": "address"
        },
        {
          "internalType": "uint256",
          "name": "maxStrike",
          "type": "uint256"
        },
        {
          "internalType": "uint256",
          "name": "minStrike",
          "type": "uint256"
        },
        {
          "internalType": "uint256",
          "name": "maxExpiry",
          "type": "uint256"
        },
        {
          "internalType": "uint256",
          "name": "minExpiry",
          "type": "uint256"
        },
        {
          "internalType": "bool",
          "name": "isActive",
          "type": "bool"
        }
      ],
      "name": "setOptionParams",
      "outputs": [],
      "stateMutability": "nonpayable",
      "type": "function"
    },
    {
      "inputs": [
        {
          "internalType": "address",
          "name": "newOwner",
          "type": "address"
        }
      ],
      "name": "transferOwnership",
      "outputs": [],
      "stateMutability": "nonpayable",
      "type": "function"
    },
    {
      "inputs": [
        {
          "internalType": "address",
          "name": "underlying",
          "type": "address"
        },
        {
          "internalType": "uint256",
          "name": "strike",
          "type": "uint256"
        },
        {
          "internalType": "uint256",
          "name": "expiry",
          "type": "uint256"
        }
      ],
      "name": "validateOption",
      "outputs": [
        {
          "internalType": "bool",
          "name": "",
          "type": "bool"
        }
      ],
      "stateMutability": "view",
      "type": "function"
    }
  ],
  "bytecode": "0x608060405234801561001057600080fd5b506001600055338061003c57604051631e4fbdf760e01b81526000600482015260240160405180910390fd5b6100458161004b565b5061009d565b600180546001600160a01b038381166001600160a01b0319831681179093556040519116919082907f8be0079c531659141344cd1fd0a4f28419497f9722a3daafe3b4186f6b6457e090600090a35050565b6104cd806100ac6000396000f3fe608060405234801561001057600080fd5b506004361061007d5760003560e01c8063c84890861161005b578063c8489086146100df578063d1e88449146100f2578063f2fde38b1461015c578063f916fa261461016f57600080fd5b8063715018a6146100825780638da5cb5b1461008c5780638e39246d146100ac575b600080fd5b61008a610182565b005b6001546040516001600160a01b0390911681526020015b60405180910390f35b6100cf6100ba3660046103e8565b60036020526000908152604090205460ff1681565b60405190151581526020016100a3565b6100cf6100ed366004610403565b610196565b6101326101003660046103e8565b600260208190526000918252604090912080546001820154928201546003830154600490930154919392909160ff1685565b6040805195865260208601949094529284019190915260608301521515608082015260a0016100a3565b61008a61016a3660046103e8565b61024d565b61008a61017d366004610436565b610290565b61018a61034d565b610194600061037a565b565b6001600160a01b0383166000908152600260208181526040808420815160a0810183528154815260018201549381019390935292830154908201526003820154606082015260049091015460ff161515608082018190526101fb576000915050610246565b806020015184108061020d5750805184115b1561021c576000915050610246565b80606001518310806102315750806040015183115b15610240576000915050610246565b60019150505b9392505050565b61025561034d565b6001600160a01b03811661028457604051631e4fbdf760e01b8152600060048201526024015b60405180910390fd5b61028d8161037a565b50565b61029861034d565b6040805160a081018252868152602080820187815282840187815260608401878152861515608086019081526001600160a01b038d166000818152600280885290899020975188559451600188015592519386019390935551600385015590516004909301805460ff191693151593909317909255825188815290810187905290917f85d6afed3ae7a5a64825943ebf8ced15ea3dbe55ece2f9580e380ca1a52ec05e910160405180910390a2505050505050565b6001546001600160a01b031633146101945760405163118cdaa760e01b815233600482015260240161027b565b600180546001600160a01b038381166001600160a01b0319831681179093556040519116919082907f8be0079c531659141344cd1fd0a4f28419497f9722a3daafe3b4186f6b6457e090600090a35050565b80356001600160a01b03811681146103e357600080fd5b919050565b6000602082840312156103fa57600080fd5b610246826103cc565b60008060006060848603121561041857600080fd5b610421846103cc565b95602085013595506040909401359392505050565b60008060008060008060c0878903121561044f57600080fd5b610458876103cc565b95506020870135945060408701359350606087013592506080870135915060a0870135801515811461048957600080fd5b80915050929550929550929556fea2646970667358221220b7da8242b01460f51fa3387b9663316f3d64a49c11f084b3ece38077fc071e1364736f6c63430008180033",
  "linkReferences": {},
  "deployedLinkReferences": {}
}