{
  "_format": "hh-sol-artifact-1",
  "contractName": "XpSwapGovernanceToken",
  "sourceName": "contracts/XpSwapGovernanceToken.sol",
  "abi": [
    {
      "inputs": [
        {
          "internalType": "string",
          "name": "_name",
          "type": "string"
        },
        {
          "internalType": "string",
          "name": "_symbol",
          "type": "string"
        },
        {
          "internalType": "uint256",
          "name": "_initialSupply",
          "type": "uint256"
        },
        {
          "internalType": "address",
          "name": "_owner",
          "type": "address"
        }
      ],
      "stateMutability": "nonpayable",
      "type": "constructor"
    },
    {
      "inputs": [],
      "name": "CheckpointUnorderedInsertion",
      "type": "error"
    },
    {
      "inputs": [],
      "name": "ECDSAInvalidSignature",
      "type": "error"
    },
    {
      "inputs": [
        {
          "internalType": "uint256",
          "name": "length",
          "type": "uint256"
        }
      ],
      "name": "ECDSAInvalidSignatureLength",
      "type": "error"
    },
    {
      "inputs": [
        {
          "internalType": "bytes32",
          "name": "s",
          "type": "bytes32"
        }
      ],
      "name": "ECDSAInvalidSignatureS",
      "type": "error"
    },
    {
      "inputs": [
        {
          "internalType": "uint256",
          "name": "increasedSupply",
          "type": "uint256"
        },
        {
          "internalType": "uint256",
          "name": "cap",
          "type": "uint256"
        }
      ],
      "name": "ERC20ExceededSafeSupply",
      "type": "error"
    },
    {
      "inputs": [
        {
          "internalType": "address",
          "name": "spender",
          "type": "address"
        },
        {
          "internalType": "uint256",
          "name": "allowance",
          "type": "uint256"
        },
        {
          "internalType": "uint256",
          "name": "needed",
          "type": "uint256"
        }
      ],
      "name": "ERC20InsufficientAllowance",
      "type": "error"
    },
    {
      "inputs": [
        {
          "internalType": "address",
          "name": "sender",
          "type": "address"
        },
        {
          "internalType": "uint256",
          "name": "balance",
          "type": "uint256"
        },
        {
          "internalType": "uint256",
          "name": "needed",
          "type": "uint256"
        }
      ],
      "name": "ERC20InsufficientBalance",
      "type": "error"
    },
    {
      "inputs": [
        {
          "internalType": "address",
          "name": "approver",
          "type": "address"
        }
      ],
      "name": "ERC20InvalidApprover",
      "type": "error"
    },
    {
      "inputs": [
        {
          "internalType": "address",
          "name": "receiver",
          "type": "address"
        }
      ],
      "name": "ERC20InvalidReceiver",
      "type": "error"
    },
    {
      "inputs": [
        {
          "internalType": "address",
          "name": "sender",
          "type": "address"
        }
      ],
      "name": "ERC20InvalidSender",
      "type": "error"
    },
    {
      "inputs": [
        {
          "internalType": "address",
          "name": "spender",
          "type": "address"
        }
      ],
      "name": "ERC20InvalidSpender",
      "type": "error"
    },
    {
      "inputs": [
        {
          "internalType": "uint256",
          "name": "deadline",
          "type": "uint256"
        }
      ],
      "name": "ERC2612ExpiredSignature",
      "type": "error"
    },
    {
      "inputs": [
        {
          "internalType": "address",
          "name": "signer",
          "type": "address"
        },
        {
          "internalType": "address",
          "name": "owner",
          "type": "address"
        }
      ],
      "name": "ERC2612InvalidSigner",
      "type": "error"
    },
    {
      "inputs": [
        {
          "internalType": "uint256",
          "name": "timepoint",
          "type": "uint256"
        },
        {
          "internalType": "uint48",
          "name": "clock",
          "type": "uint48"
        }
      ],
      "name": "ERC5805FutureLookup",
      "type": "error"
    },
    {
      "inputs": [],
      "name": "ERC6372InconsistentClock",
      "type": "error"
    },
    {
      "inputs": [],
      "name": "EnforcedPause",
      "type": "error"
    },
    {
      "inputs": [],
      "name": "ExpectedPause",
      "type": "error"
    },
    {
      "inputs": [
        {
          "internalType": "address",
          "name": "account",
          "type": "address"
        },
        {
          "internalType": "uint256",
          "name": "currentNonce",
          "type": "uint256"
        }
      ],
      "name": "InvalidAccountNonce",
      "type": "error"
    },
    {
      "inputs": [],
      "name": "InvalidShortString",
      "type": "error"
    },
    {
      "inputs": [
        {
          "internalType": "address",
          "name": "owner",
          "type": "address"
        }
      ],
      "name": "OwnableInvalidOwner",
      "type": "error"
    },
    {
      "inputs": [
        {
          "internalType": "address",
          "name": "account",
          "type": "address"
        }
      ],
      "name": "OwnableUnauthorizedAccount",
      "type": "error"
    },
    {
      "inputs": [
        {
          "internalType": "uint8",
          "name": "bits",
          "type": "uint8"
        },
        {
          "internalType": "uint256",
          "name": "value",
          "type": "uint256"
        }
      ],
      "name": "SafeCastOverflowedUintDowncast",
      "type": "error"
    },
    {
      "inputs": [
        {
          "internalType": "string",
          "name": "str",
          "type": "string"
        }
      ],
      "name": "StringTooLong",
      "type": "error"
    },
    {
      "inputs": [
        {
          "internalType": "uint256",
          "name": "expiry",
          "type": "uint256"
        }
      ],
      "name": "VotesExpiredSignature",
      "type": "error"
    },
    {
      "anonymous": false,
      "inputs": [
        {
          "indexed": true,
          "internalType": "address",
          "name": "owner",
          "type": "address"
        },
        {
          "indexed": true,
          "internalType": "address",
          "name": "spender",
          "type": "address"
        },
        {
          "indexed": false,
          "internalType": "uint256",
          "name": "value",
          "type": "uint256"
        }
      ],
      "name": "Approval",
      "type": "event"
    },
    {
      "anonymous": false,
      "inputs": [
        {
          "indexed": true,
          "internalType": "address",
          "name": "delegator",
          "type": "address"
        },
        {
          "indexed": true,
          "internalType": "address",
          "name": "fromDelegate",
          "type": "address"
        },
        {
          "indexed": true,
          "internalType": "address",
          "name": "toDelegate",
          "type": "address"
        }
      ],
      "name": "DelegateChanged",
      "type": "event"
    },
    {
      "anonymous": false,
      "inputs": [
        {
          "indexed": true,
          "internalType": "address",
          "name": "delegate",
          "type": "address"
        },
        {
          "indexed": false,
          "internalType": "uint256",
          "name": "previousVotes",
          "type": "uint256"
        },
        {
          "indexed": false,
          "internalType": "uint256",
          "name": "newVotes",
          "type": "uint256"
        }
      ],
      "name": "DelegateVotesChanged",
      "type": "event"
    },
    {
      "anonymous": false,
      "inputs": [],
      "name": "EIP712DomainChanged",
      "type": "event"
    },
    {
      "anonymous": false,
      "inputs": [
        {
          "indexed": true,
          "internalType": "address",
          "name": "previousOwner",
          "type": "address"
        },
        {
          "indexed": true,
          "internalType": "address",
          "name": "newOwner",
          "type": "address"
        }
      ],
      "name": "OwnershipTransferred",
      "type": "event"
    },
    {
      "anonymous": false,
      "inputs": [
        {
          "indexed": false,
          "internalType": "address",
          "name": "account",
          "type": "address"
        }
      ],
      "name": "Paused",
      "type": "event"
    },
    {
      "anonymous": false,
      "inputs": [
        {
          "indexed": true,
          "internalType": "uint256",
          "name": "proposalId",
          "type": "uint256"
        }
      ],
      "name": "ProposalCanceled",
      "type": "event"
    },
    {
      "anonymous": false,
      "inputs": [
        {
          "indexed": true,
          "internalType": "uint256",
          "name": "proposalId",
          "type": "uint256"
        },
        {
          "indexed": true,
          "internalType": "address",
          "name": "proposer",
          "type": "address"
        },
        {
          "indexed": false,
          "internalType": "string",
          "name": "title",
          "type": "string"
        },
        {
          "indexed": false,
          "internalType": "uint256",
          "name": "startTime",
          "type": "uint256"
        },
        {
          "indexed": false,
          "internalType": "uint256",
          "name": "endTime",
          "type": "uint256"
        }
      ],
      "name": "ProposalCreated",
      "type": "event"
    },
    {
      "anonymous": false,
      "inputs": [
        {
          "indexed": true,
          "internalType": "uint256",
          "name": "proposalId",
          "type": "uint256"
        }
      ],
      "name": "ProposalExecuted",
      "type": "event"
    },
    {
      "anonymous": false,
      "inputs": [
        {
          "indexed": true,
          "internalType": "address",
          "name": "from",
          "type": "address"
        },
        {
          "indexed": true,
          "internalType": "address",
          "name": "to",
          "type": "address"
        },
        {
          "indexed": false,
          "internalType": "uint256",
          "name": "value",
          "type": "uint256"
        }
      ],
      "name": "Transfer",
      "type": "event"
    },
    {
      "anonymous": false,
      "inputs": [
        {
          "indexed": false,
          "internalType": "address",
          "name": "account",
          "type": "address"
        }
      ],
      "name": "Unpaused",
      "type": "event"
    },
    {
      "anonymous": false,
      "inputs": [
        {
          "indexed": true,
          "internalType": "address",
          "name": "voter",
          "type": "address"
        },
        {
          "indexed": true,
          "internalType": "uint256",
          "name": "proposalId",
          "type": "uint256"
        },
        {
          "indexed": false,
          "internalType": "enum XpSwapGovernanceToken.VoteChoice",
          "name": "choice",
          "type": "uint8"
        },
        {
          "indexed": false,
          "internalType": "uint256",
          "name": "votes",
          "type": "uint256"
        },
        {
          "indexed": false,
          "internalType": "string",
          "name": "reason",
          "type": "string"
        }
      ],
      "name": "VoteCast",
      "type": "event"
    },
    {
      "inputs": [],
      "name": "CLOCK_MODE",
      "outputs": [
        {
          "internalType": "string",
          "name": "",
          "type": "string"
        }
      ],
      "stateMutability": "view",
      "type": "function"
    },
    {
      "inputs": [],
      "name": "DOMAIN_SEPARATOR",
      "outputs": [
        {
          "internalType": "bytes32",
          "name": "",
          "type": "bytes32"
        }
      ],
      "stateMutability": "view",
      "type": "function"
    },
    {
      "inputs": [
        {
          "internalType": "address",
          "name": "owner",
          "type": "address"
        },
        {
          "internalType": "address",
          "name": "spender",
          "type": "address"
        }
      ],
      "name": "allowance",
      "outputs": [
        {
          "internalType": "uint256",
          "name": "",
          "type": "uint256"
        }
      ],
      "stateMutability": "view",
      "type": "function"
    },
    {
      "inputs": [
        {
          "internalType": "address",
          "name": "spender",
          "type": "address"
        },
        {
          "internalType": "uint256",
          "name": "value",
          "type": "uint256"
        }
      ],
      "name": "approve",
      "outputs": [
        {
          "internalType": "bool",
          "name": "",
          "type": "bool"
        }
      ],
      "stateMutability": "nonpayable",
      "type": "function"
    },
    {
      "inputs": [
        {
          "internalType": "address",
          "name": "account",
          "type": "address"
        }
      ],
      "name": "balanceOf",
      "outputs": [
        {
          "internalType": "uint256",
          "name": "",
          "type": "uint256"
        }
      ],
      "stateMutability": "view",
      "type": "function"
    },
    {
      "inputs": [
        {
          "internalType": "uint256",
          "name": "_proposalId",
          "type": "uint256"
        }
      ],
      "name": "cancelProposal",
      "outputs": [],
      "stateMutability": "nonpayable",
      "type": "function"
    },
    {
      "inputs": [
        {
          "internalType": "uint256",
          "name": "_proposalId",
          "type": "uint256"
        },
        {
          "internalType": "enum XpSwapGovernanceToken.VoteChoice",
          "name": "_choice",
          "type": "uint8"
        }
      ],
      "name": "castVote",
      "outputs": [],
      "stateMutability": "nonpayable",
      "type": "function"
    },
    {
      "inputs": [
        {
          "internalType": "uint256",
          "name": "_proposalId",
          "type": "uint256"
        },
        {
          "internalType": "enum XpSwapGovernanceToken.VoteChoice",
          "name": "_choice",
          "type": "uint8"
        },
        {
          "internalType": "uint8",
          "name": "_v",
          "type": "uint8"
        },
        {
          "internalType": "bytes32",
          "name": "_r",
          "type": "bytes32"
        },
        {
          "internalType": "bytes32",
          "name": "_s",
          "type": "bytes32"
        }
      ],
      "name": "castVoteBySig",
      "outputs": [],
      "stateMutability": "nonpayable",
      "type": "function"
    },
    {
      "inputs": [
        {
          "internalType": "uint256",
          "name": "_proposalId",
          "type": "uint256"
        },
        {
          "internalType": "enum XpSwapGovernanceToken.VoteChoice",
          "name": "_choice",
          "type": "uint8"
        },
        {
          "internalType": "string",
          "name": "_reason",
          "type": "string"
        }
      ],
      "name": "castVoteWithReason",
      "outputs": [],
      "stateMutability": "nonpayable",
      "type": "function"
    },
    {
      "inputs": [
        {
          "internalType": "address",
          "name": "account",
          "type": "address"
        },
        {
          "internalType": "uint32",
          "name": "pos",
          "type": "uint32"
        }
      ],
      "name": "checkpoints",
      "outputs": [
        {
          "components": [
            {
              "internalType": "uint48",
              "name": "_key",
              "type": "uint48"
            },
            {
              "internalType": "uint208",
              "name": "_value",
              "type": "uint208"
            }
          ],
          "internalType": "struct Checkpoints.Checkpoint208",
          "name": "",
          "type": "tuple"
        }
      ],
      "stateMutability": "view",
      "type": "function"
    },
    {
      "inputs": [],
      "name": "clock",
      "outputs": [
        {
          "internalType": "uint48",
          "name": "",
          "type": "uint48"
        }
      ],
      "stateMutability": "view",
      "type": "function"
    },
    {
      "inputs": [],
      "name": "decimals",
      "outputs": [
        {
          "internalType": "uint8",
          "name": "",
          "type": "uint8"
        }
      ],
      "stateMutability": "view",
      "type": "function"
    },
    {
      "inputs": [
        {
          "internalType": "address",
          "name": "delegatee",
          "type": "address"
        }
      ],
      "name": "delegate",
      "outputs": [],
      "stateMutability": "nonpayable",
      "type": "function"
    },
    {
      "inputs": [
        {
          "internalType": "address",
          "name": "delegatee",
          "type": "address"
        },
        {
          "internalType": "uint256",
          "name": "nonce",
          "type": "uint256"
        },
        {
          "internalType": "uint256",
          "name": "expiry",
          "type": "uint256"
        },
        {
          "internalType": "uint8",
          "name": "v",
          "type": "uint8"
        },
        {
          "internalType": "bytes32",
          "name": "r",
          "type": "bytes32"
        },
        {
          "internalType": "bytes32",
          "name": "s",
          "type": "bytes32"
        }
      ],
      "name": "delegateBySig",
      "outputs": [],
      "stateMutability": "nonpayable",
      "type": "function"
    },
    {
      "inputs": [
        {
          "internalType": "address",
          "name": "account",
          "type": "address"
        }
      ],
      "name": "delegates",
      "outputs": [
        {
          "internalType": "address",
          "name": "",
          "type": "address"
        }
      ],
      "stateMutability": "view",
      "type": "function"
    },
    {
      "inputs": [],
      "name": "eip712Domain",
      "outputs": [
        {
          "internalType": "bytes1",
          "name": "fields",
          "type": "bytes1"
        },
        {
          "internalType": "string",
          "name": "name",
          "type": "string"
        },
        {
          "internalType": "string",
          "name": "version",
          "type": "string"
        },
        {
          "internalType": "uint256",
          "name": "chainId",
          "type": "uint256"
        },
        {
          "internalType": "address",
          "name": "verifyingContract",
          "type": "address"
        },
        {
          "internalType": "bytes32",
          "name": "salt",
          "type": "bytes32"
        },
        {
          "internalType": "uint256[]",
          "name": "extensions",
          "type": "uint256[]"
        }
      ],
      "stateMutability": "view",
      "type": "function"
    },
    {
      "inputs": [
        {
          "internalType": "uint256",
          "name": "_proposalId",
          "type": "uint256"
        }
      ],
      "name": "executeProposal",
      "outputs": [],
      "stateMutability": "nonpayable",
      "type": "function"
    },
    {
      "inputs": [
        {
          "internalType": "uint256",
          "name": "timepoint",
          "type": "uint256"
        }
      ],
      "name": "getPastTotalSupply",
      "outputs": [
        {
          "internalType": "uint256",
          "name": "",
          "type": "uint256"
        }
      ],
      "stateMutability": "view",
      "type": "function"
    },
    {
      "inputs": [
        {
          "internalType": "address",
          "name": "account",
          "type": "address"
        },
        {
          "internalType": "uint256",
          "name": "timepoint",
          "type": "uint256"
        }
      ],
      "name": "getPastVotes",
      "outputs": [
        {
          "internalType": "uint256",
          "name": "",
          "type": "uint256"
        }
      ],
      "stateMutability": "view",
      "type": "function"
    },
    {
      "inputs": [
        {
          "internalType": "uint256",
          "name": "_proposalId",
          "type": "uint256"
        }
      ],
      "name": "getProposal",
      "outputs": [
        {
          "internalType": "uint256",
          "name": "id",
          "type": "uint256"
        },
        {
          "internalType": "address",
          "name": "proposer",
          "type": "address"
        },
        {
          "internalType": "string",
          "name": "title",
          "type": "string"
        },
        {
          "internalType": "string",
          "name": "description",
          "type": "string"
        },
        {
          "internalType": "uint256",
          "name": "startTime",
          "type": "uint256"
        },
        {
          "internalType": "uint256",
          "name": "endTime",
          "type": "uint256"
        },
        {
          "internalType": "uint256",
          "name": "forVotes",
          "type": "uint256"
        },
        {
          "internalType": "uint256",
          "name": "againstVotes",
          "type": "uint256"
        },
        {
          "internalType": "uint256",
          "name": "abstainVotes",
          "type": "uint256"
        },
        {
          "internalType": "bool",
          "name": "executed",
          "type": "bool"
        },
        {
          "internalType": "bool",
          "name": "canceled",
          "type": "bool"
        }
      ],
      "stateMutability": "view",
      "type": "function"
    },
    {
      "inputs": [
        {
          "internalType": "uint256",
          "name": "_proposalId",
          "type": "uint256"
        }
      ],
      "name": "getProposalState",
      "outputs": [
        {
          "internalType": "string",
          "name": "",
          "type": "string"
        }
      ],
      "stateMutability": "view",
      "type": "function"
    },
    {
      "inputs": [
        {
          "internalType": "uint256",
          "name": "_proposalId",
          "type": "uint256"
        },
        {
          "internalType": "address",
          "name": "_user",
          "type": "address"
        }
      ],
      "name": "getUserVote",
      "outputs": [
        {
          "internalType": "bool",
          "name": "hasVoted",
          "type": "bool"
        },
        {
          "internalType": "enum XpSwapGovernanceToken.VoteChoice",
          "name": "choice",
          "type": "uint8"
        }
      ],
      "stateMutability": "view",
      "type": "function"
    },
    {
      "inputs": [
        {
          "internalType": "address",
          "name": "account",
          "type": "address"
        }
      ],
      "name": "getVotes",
      "outputs": [
        {
          "internalType": "uint256",
          "name": "",
          "type": "uint256"
        }
      ],
      "stateMutability": "view",
      "type": "function"
    },
    {
      "inputs": [],
      "name": "name",
      "outputs": [
        {
          "internalType": "string",
          "name": "",
          "type": "string"
        }
      ],
      "stateMutability": "view",
      "type": "function"
    },
    {
      "inputs": [
        {
          "internalType": "address",
          "name": "owner",
          "type": "address"
        }
      ],
      "name": "nonces",
      "outputs": [
        {
          "internalType": "uint256",
          "name": "",
          "type": "uint256"
        }
      ],
      "stateMutability": "view",
      "type": "function"
    },
    {
      "inputs": [
        {
          "internalType": "address",
          "name": "account",
          "type": "address"
        }
      ],
      "name": "numCheckpoints",
      "outputs": [
        {
          "internalType": "uint32",
          "name": "",
          "type": "uint32"
        }
      ],
      "stateMutability": "view",
      "type": "function"
    },
    {
      "inputs": [],
      "name": "owner",
      "outputs": [
        {
          "internalType": "address",
          "name": "",
          "type": "address"
        }
      ],
      "stateMutability": "view",
      "type": "function"
    },
    {
      "inputs": [],
      "name": "pause",
      "outputs": [],
      "stateMutability": "nonpayable",
      "type": "function"
    },
    {
      "inputs": [],
      "name": "paused",
      "outputs": [
        {
          "internalType": "bool",
          "name": "",
          "type": "bool"
        }
      ],
      "stateMutability": "view",
      "type": "function"
    },
    {
      "inputs": [
        {
          "internalType": "address",
          "name": "owner",
          "type": "address"
        },
        {
          "internalType": "address",
          "name": "spender",
          "type": "address"
        },
        {
          "internalType": "uint256",
          "name": "value",
          "type": "uint256"
        },
        {
          "internalType": "uint256",
          "name": "deadline",
          "type": "uint256"
        },
        {
          "internalType": "uint8",
          "name": "v",
          "type": "uint8"
        },
        {
          "internalType": "bytes32",
          "name": "r",
          "type": "bytes32"
        },
        {
          "internalType": "bytes32",
          "name": "s",
          "type": "bytes32"
        }
      ],
      "name": "permit",
      "outputs": [],
      "stateMutability": "nonpayable",
      "type": "function"
    },
    {
      "inputs": [],
      "name": "proposalCount",
      "outputs": [
        {
          "internalType": "uint256",
          "name": "",
          "type": "uint256"
        }
      ],
      "stateMutability": "view",
      "type": "function"
    },
    {
      "inputs": [],
      "name": "proposalThreshold",
      "outputs": [
        {
          "internalType": "uint256",
          "name": "",
          "type": "uint256"
        }
      ],
      "stateMutability": "view",
      "type": "function"
    },
    {
      "inputs": [
        {
          "internalType": "uint256",
          "name": "",
          "type": "uint256"
        }
      ],
      "name": "proposals",
      "outputs": [
        {
          "internalType": "uint256",
          "name": "id",
          "type": "uint256"
        },
        {
          "internalType": "address",
          "name": "proposer",
          "type": "address"
        },
        {
          "internalType": "string",
          "name": "title",
          "type": "string"
        },
        {
          "internalType": "string",
          "name": "description",
          "type": "string"
        },
        {
          "internalType": "uint256",
          "name": "startTime",
          "type": "uint256"
        },
        {
          "internalType": "uint256",
          "name": "endTime",
          "type": "uint256"
        },
        {
          "internalType": "uint256",
          "name": "forVotes",
          "type": "uint256"
        },
        {
          "internalType": "uint256",
          "name": "againstVotes",
          "type": "uint256"
        },
        {
          "internalType": "uint256",
          "name": "abstainVotes",
          "type": "uint256"
        },
        {
          "internalType": "bool",
          "name": "executed",
          "type": "bool"
        },
        {
          "internalType": "bool",
          "name": "canceled",
          "type": "bool"
        }
      ],
      "stateMutability": "view",
      "type": "function"
    },
    {
      "inputs": [
        {
          "internalType": "string",
          "name": "_title",
          "type": "string"
        },
        {
          "internalType": "string",
          "name": "_description",
          "type": "string"
        }
      ],
      "name": "propose",
      "outputs": [
        {
          "internalType": "uint256",
          "name": "",
          "type": "uint256"
        }
      ],
      "stateMutability": "nonpayable",
      "type": "function"
    },
    {
      "inputs": [],
      "name": "quorumDenominator",
      "outputs": [
        {
          "internalType": "uint256",
          "name": "",
          "type": "uint256"
        }
      ],
      "stateMutability": "view",
      "type": "function"
    },
    {
      "inputs": [],
      "name": "quorumNumerator",
      "outputs": [
        {
          "internalType": "uint256",
          "name": "",
          "type": "uint256"
        }
      ],
      "stateMutability": "view",
      "type": "function"
    },
    {
      "inputs": [],
      "name": "renounceOwnership",
      "outputs": [],
      "stateMutability": "nonpayable",
      "type": "function"
    },
    {
      "inputs": [
        {
          "internalType": "uint256",
          "name": "_newThreshold",
          "type": "uint256"
        }
      ],
      "name": "setProposalThreshold",
      "outputs": [],
      "stateMutability": "nonpayable",
      "type": "function"
    },
    {
      "inputs": [
        {
          "internalType": "uint256",
          "name": "_numerator",
          "type": "uint256"
        },
        {
          "internalType": "uint256",
          "name": "_denominator",
          "type": "uint256"
        }
      ],
      "name": "setQuorum",
      "outputs": [],
      "stateMutability": "nonpayable",
      "type": "function"
    },
    {
      "inputs": [
        {
          "internalType": "uint256",
          "name": "_newVotingDelay",
          "type": "uint256"
        }
      ],
      "name": "setVotingDelay",
      "outputs": [],
      "stateMutability": "nonpayable",
      "type": "function"
    },
    {
      "inputs": [
        {
          "internalType": "uint256",
          "name": "_newVotingPeriod",
          "type": "uint256"
        }
      ],
      "name": "setVotingPeriod",
      "outputs": [],
      "stateMutability": "nonpayable",
      "type": "function"
    },
    {
      "inputs": [],
      "name": "symbol",
      "outputs": [
        {
          "internalType": "string",
          "name": "",
          "type": "string"
        }
      ],
      "stateMutability": "view",
      "type": "function"
    },
    {
      "inputs": [],
      "name": "totalSupply",
      "outputs": [
        {
          "internalType": "uint256",
          "name": "",
          "type": "uint256"
        }
      ],
      "stateMutability": "view",
      "type": "function"
    },
    {
      "inputs": [
        {
          "internalType": "address",
          "name": "to",
          "type": "address"
        },
        {
          "internalType": "uint256",
          "name": "value",
          "type": "uint256"
        }
      ],
      "name": "transfer",
      "outputs": [
        {
          "internalType": "bool",
          "name": "",
          "type": "bool"
        }
      ],
      "stateMutability": "nonpayable",
      "type": "function"
    },
    {
      "inputs": [
        {
          "internalType": "address",
          "name": "from",
          "type": "address"
        },
        {
          "internalType": "address",
          "name": "to",
          "type": "address"
        },
        {
          "internalType": "uint256",
          "name": "value",
          "type": "uint256"
        }
      ],
      "name": "transferFrom",
      "outputs": [
        {
          "internalType": "bool",
          "name": "",
          "type": "bool"
        }
      ],
      "stateMutability": "nonpayable",
      "type": "function"
    },
    {
      "inputs": [
        {
          "internalType": "address",
          "name": "newOwner",
          "type": "address"
        }
      ],
      "name": "transferOwnership",
      "outputs": [],
      "stateMutability": "nonpayable",
      "type": "function"
    },
    {
      "inputs": [],
      "name": "unpause",
      "outputs": [],
      "stateMutability": "nonpayable",
      "type": "function"
    },
    {
      "inputs": [],
      "name": "votingDelay",
      "outputs": [
        {
          "internalType": "uint256",
          "name": "",
          "type": "uint256"
        }
      ],
      "stateMutability": "view",
      "type": "function"
    },
    {
      "inputs": [],
      "name": "votingPeriod",
      "outputs": [
        {
          "internalType": "uint256",
          "name": "",
          "type": "uint256"
        }
      ],
      "stateMutability": "view",
      "type": "function"
    }
  ],
  "bytecode": "0x61016060405262015180600e5562093a80600f55683635c9adc5dea00000601055600460115560646012553480156200003757600080fd5b50604051620044af380380620044af8339810160408190526200005a91620009e7565b808480604051806040016040528060018152602001603160f81b815250878781600390816200008a919062000b0c565b50600462000099828262000b0c565b50620000ab91508390506005620001a6565b61012052620000bc816006620001a6565b61014052815160208084019190912060e052815190820120610100524660a0526200014a60e05161010051604080517f8b73c3c69bb8fe3d512ecc4cf759cc79239f7b179b0ffacaa9a75d522b39400f60208201529081019290925260608201524660808201523060a082015260009060c00160405160208183030381529060405280519060200120905090565b60805250503060c052506001600160a01b0381166200018457604051631e4fbdf760e01b8152600060048201526024015b60405180910390fd5b6200018f81620001df565b506200019c818362000231565b5050505062000cc1565b6000602083511015620001c657620001be836200026f565b9050620001d9565b81620001d3848262000b0c565b5060ff90505b92915050565b600b80546001600160a01b038381166001600160a01b0319831681179093556040519116919082907f8be0079c531659141344cd1fd0a4f28419497f9722a3daafe3b4186f6b6457e090600090a35050565b6001600160a01b0382166200025d5760405163ec442f0560e01b8152600060048201526024016200017b565b6200026b60008383620002b2565b5050565b600080829050601f815111156200029d578260405163305a27a960e01b81526004016200017b919062000bd8565b8051620002aa8262000c0d565b179392505050565b620002bf838383620002c4565b505050565b620002d183838362000333565b6001600160a01b03831662000326576000620002ec60025490565b90506001600160d01b03808211156200032357604051630e58ae9360e11b815260048101839052602481018290526044016200017b565b50505b620002bf83838362000466565b6001600160a01b0383166200036257806002600082825462000356919062000c48565b90915550620003d69050565b6001600160a01b03831660009081526020819052604090205481811015620003b75760405163391434e360e21b81526001600160a01b038516600482015260248101829052604481018390526064016200017b565b6001600160a01b03841660009081526020819052604090209082900390555b6001600160a01b038216620003f45760028054829003905562000413565b6001600160a01b03821660009081526020819052604090208054820190555b816001600160a01b0316836001600160a01b03167fddf252ad1be2c89b69c2b068fc378daa952ba7f163c4a11628f55a4df523b3ef836040516200045991815260200190565b60405180910390a3505050565b6001600160a01b0383166200049b5762000498600a6200188c620004fe60201b17620004928462000513565b6200054d565b50505b6001600160a01b038216620004ca57620004c7600a620018986200058a60201b17620004928462000513565b50505b6001600160a01b03838116600090815260086020526040808220548584168352912054620002bf9291821691168362000598565b60006200050c828462000c5e565b9392505050565b60006001600160d01b0382111562000549576040516306dfcc6560e41b815260d06004820152602481018390526044016200017b565b5090565b6000806200057d6200055e620006ff565b620005746200056d8862000710565b868860201c565b8791906200075f565b915091505b935093915050565b60006200050c828462000c88565b816001600160a01b0316836001600160a01b031614158015620005bb5750600081115b15620002bf576001600160a01b038316156200065e576001600160a01b0383166000908152600960209081526040822082916200060991906200058a901b6200189817620004928662000513565b6001600160d01b031691506001600160d01b03169150846001600160a01b03166000805160206200448f833981519152838360405162000653929190918252602082015260400190565b60405180910390a250505b6001600160a01b03821615620002bf576001600160a01b038216600090815260096020908152604082208291620006a69190620004fe901b6200188c17620004928662000513565b6001600160d01b031691506001600160d01b03169150836001600160a01b03166000805160206200448f8339815191528383604051620006f0929190918252602082015260400190565b60405180910390a25050505050565b60006200070b6200076f565b905090565b8054600090801562000756576200073c836200072e60018462000cab565b600091825260209091200190565b54660100000000000090046001600160d01b03166200050c565b60009392505050565b6000806200057d8585856200077c565b60006200070b43620008e5565b825460009081908015620008865760006200079e876200072e60018562000cab565b805490915065ffffffffffff80821691660100000000000090046001600160d01b0316908816821115620007e557604051632520601d60e01b815260040160405180910390fd5b8765ffffffffffff168265ffffffffffff16036200082357825465ffffffffffff1666010000000000006001600160d01b0389160217835562000877565b6040805180820190915265ffffffffffff808a1682526001600160d01b03808a1660208085019182528d54600181018f5560008f815291909120945191519092166601000000000000029216919091179101555b94508593506200058292505050565b50506040805180820190915265ffffffffffff80851682526001600160d01b0380851660208085019182528854600181018a5560008a815291822095519251909316660100000000000002919093161792019190915590508162000582565b600065ffffffffffff82111562000549576040516306dfcc6560e41b815260306004820152602481018390526044016200017b565b634e487b7160e01b600052604160045260246000fd5b60005b838110156200094d57818101518382015260200162000933565b50506000910152565b600082601f8301126200096857600080fd5b81516001600160401b03808211156200098557620009856200091a565b604051601f8301601f19908116603f01168101908282118183101715620009b057620009b06200091a565b81604052838152866020858801011115620009ca57600080fd5b620009dd84602083016020890162000930565b9695505050505050565b60008060008060808587031215620009fe57600080fd5b84516001600160401b038082111562000a1657600080fd5b62000a248883890162000956565b9550602087015191508082111562000a3b57600080fd5b5062000a4a8782880162000956565b60408701516060880151919550935090506001600160a01b038116811462000a7157600080fd5b939692955090935050565b600181811c9082168062000a9157607f821691505b60208210810362000ab257634e487b7160e01b600052602260045260246000fd5b50919050565b601f821115620002bf576000816000526020600020601f850160051c8101602086101562000ae35750805b601f850160051c820191505b8181101562000b045782815560010162000aef565b505050505050565b81516001600160401b0381111562000b285762000b286200091a565b62000b408162000b39845462000a7c565b8462000ab8565b602080601f83116001811462000b78576000841562000b5f5750858301515b600019600386901b1c1916600185901b17855562000b04565b600085815260208120601f198616915b8281101562000ba95788860151825594840194600190910190840162000b88565b508582101562000bc85787850151600019600388901b60f8161c191681555b5050505050600190811b01905550565b602081526000825180602084015262000bf981604085016020870162000930565b601f01601f19169190910160400192915050565b8051602080830151919081101562000ab25760001960209190910360031b1b16919050565b634e487b7160e01b600052601160045260246000fd5b80820180821115620001d957620001d962000c32565b6001600160d01b0381811683821601908082111562000c815762000c8162000c32565b5092915050565b6001600160d01b0382811682821603908082111562000c815762000c8162000c32565b81810381811115620001d957620001d962000c32565b60805160a05160c05160e05161010051610120516101405161377362000d1c60003960006121f8015260006121cb01526000611b0101526000611ad901526000611a3401526000611a5e01526000611a8801526137736000f3fe608060405234801561001057600080fd5b50600436106102bb5760003560e01c80637a3d546811610182578063a7713a70116100e9578063da35c664116100a2578063ea0217cf1161007c578063ea0217cf1461066d578063ece40cc114610680578063f1127ed814610693578063f2fde38b146106d257600080fd5b8063da35c66414610618578063dd62ed3e14610621578063e0a8f6f51461065a57600080fd5b8063a7713a70146105ba578063a9059cbb146105c3578063b58131b0146105d6578063c3cda520146105df578063c7f758a8146105f2578063d505accf1461060557600080fd5b80638e539e8c1161013b5780638e539e8c146105515780639080936f1461056457806391ddadf41461057757806395d89b411461059657806397c3d3341461059e5780639ab24eb0146105a757600080fd5b80637a3d5468146104e45780637b3c71d3146104f75780637ecebe001461050a5780638456cb591461051d57806384b0196e146105255780638da5cb5b1461054057600080fd5b80633a46b1a8116102265780635c19a95c116101df5780635c19a95c146104535780635c975abb146104665780636fcfff451461047857806370a08231146104a057806370b0f660146104c9578063715018a6146104dc57600080fd5b80633a46b1a8146103c65780633bccf4fd146103d95780633f4ba83a146103ec5780634bf5d7e9146103f457806356781388146103fc578063587cde1e1461040f57600080fd5b806318160ddd1161027857806318160ddd146103785780631c4afc571461038057806323b872dd14610393578063313ce567146103a65780633644e515146103b55780633932abb1146103bd57600080fd5b8063013cf08b146102c057806302a251a3146102f357806303c7881a1461030a57806306fdde031461032b578063095ea7b3146103405780630d61b51914610363575b600080fd5b6102d36102ce366004612e92565b6106e5565b6040516102ea9b9a99989796959493929190612ef1565b60405180910390f35b6102fc600f5481565b6040519081526020016102ea565b61031d610318366004612f8d565b61085b565b6040516102ea929190612ff1565b6103336108d6565b6040516102ea9190613007565b61035361034e36600461301a565b610968565b60405190151581526020016102ea565b610376610371366004612e92565b610982565b005b6002546102fc565b6102fc61038e3660046130e7565b610b8d565b6103536103a136600461314b565b610d65565b604051601281526020016102ea565b6102fc610d8b565b6102fc600e5481565b6102fc6103d436600461301a565b610d9a565b6103766103e73660046131a7565b610dd6565b610376610ebb565b610333610ecd565b61037661040a3660046131f5565b610f45565b61043b61041d366004613218565b6001600160a01b039081166000908152600860205260409020541690565b6040516001600160a01b0390911681526020016102ea565b610376610461366004613218565b610f6c565b600b54600160a01b900460ff16610353565b61048b610486366004613218565b610f77565b60405163ffffffff90911681526020016102ea565b6102fc6104ae366004613218565b6001600160a01b031660009081526020819052604090205490565b6103766104d7366004612e92565b610f82565b610376610f8f565b6103766104f2366004613233565b610fa1565b610376610505366004613255565b611060565b6102fc610518366004613218565b611079565b610376611084565b61052d611094565b6040516102ea97969594939291906132ac565b600b546001600160a01b031661043b565b6102fc61055f366004612e92565b6110da565b610333610572366004612e92565b6110ff565b61057f611285565b60405165ffffffffffff90911681526020016102ea565b61033361128f565b6102fc60125481565b6102fc6105b5366004613218565b61129e565b6102fc60115481565b6103536105d136600461301a565b6112bf565b6102fc60105481565b6103766105ed366004613345565b6112cd565b6102d3610600366004612e92565b61138a565b61037661061336600461339d565b611569565b6102fc600d5481565b6102fc61062f366004613407565b6001600160a01b03918216600090815260016020908152604080832093909416825291909152205490565b610376610668366004612e92565b6116a3565b61037661067b366004612e92565b611816565b61037661068e366004612e92565b611823565b6106a66106a1366004613431565b611830565b60408051825165ffffffffffff1681526020928301516001600160d01b031692810192909252016102ea565b6103766106e0366004613218565b61184e565b600c6020526000908152604090208054600182015460028301805492936001600160a01b039092169261071790613471565b80601f016020809104026020016040519081016040528092919081815260200182805461074390613471565b80156107905780601f1061076557610100808354040283529160200191610790565b820191906000526020600020905b81548152906001019060200180831161077357829003601f168201915b5050505050908060030180546107a590613471565b80601f01602080910402602001604051908101604052809291908181526020018280546107d190613471565b801561081e5780601f106107f35761010080835404028352916020019161081e565b820191906000526020600020905b81548152906001019060200180831161080157829003601f168201915b5050506004840154600585015460068601546007870154600888015460099098015496979396929550909350919060ff808216916101009004168b565b600080600d5484111580156108705750600084115b6108955760405162461bcd60e51b815260040161088c906134ab565b60405180910390fd5b50506000918252600c602090815260408084206001600160a01b039093168452600a8301825280842054600b9093019091529091205460ff91821692911690565b6060600380546108e590613471565b80601f016020809104026020016040519081016040528092919081815260200182805461091190613471565b801561095e5780601f106109335761010080835404028352916020019161095e565b820191906000526020600020905b81548152906001019060200180831161094157829003601f168201915b5050505050905090565b6000336109768185856118a4565b60019150505b92915050565b600d5481111580156109945750600081115b6109b05760405162461bcd60e51b815260040161088c906134ab565b6000818152600c6020526040902060058101544211610a115760405162461bcd60e51b815260206004820152601760248201527f566f74696e6720706572696f64206e6f7420656e646564000000000000000000604482015260640161088c565b600981015460ff1615610a595760405162461bcd60e51b815260206004820152601060248201526f105b1c9958591e48195e1958dd5d195960821b604482015260640161088c565b6009810154610100900460ff1615610aa75760405162461bcd60e51b8152602060048201526011602482015270141c9bdc1bdcd85b0818d85b98d95b1959607a1b604482015260640161088c565b610ab0826118b1565b610af15760405162461bcd60e51b8152602060048201526012602482015271145d5bdc9d5b481b9bdd081c995858da195960721b604482015260640161088c565b6000828152600c60205260409020600781015460069091015411610b4f5760405162461bcd60e51b815260206004820152601560248201527450726f706f73616c20646964206e6f74207061737360581b604482015260640161088c565b60098101805460ff1916600117905560405182907f712ae1383f79ac853f8d882153778e0260ef8f03b504e2866e0593e04d2b291f90600090a25050565b6000610b9761191e565b601054610ba33361129e565b1015610bf15760405162461bcd60e51b815260206004820152601960248201527f496e73756666696369656e7420766f74696e6720706f77657200000000000000604482015260640161088c565b6000835111610c3a5760405162461bcd60e51b81526020600482015260156024820152745469746c652063616e6e6f7420626520656d70747960581b604482015260640161088c565b6000825111610c8b5760405162461bcd60e51b815260206004820152601b60248201527f4465736372697074696f6e2063616e6e6f7420626520656d7074790000000000604482015260640161088c565b6000600d60008154610c9c906134ee565b91829055506000818152600c602052604090208181556001810180546001600160a01b0319163317905590915060028101610cd78682613557565b5060038101610ce68582613557565b50600e54610cf49042613617565b60048201819055600f54610d0791613617565b6005820181905560098201805461ffff191690556004820154604051339285927f6c98a8c940418b35614f0cd02412d5c9606faff474cbb6cdd6640ba5d1a9f06b92610d55928b929161362a565b60405180910390a3509392505050565b600033610d73858285611949565b610d7e8585856119c8565b60019150505b9392505050565b6000610d95611a27565b905090565b6000610dc6610da883611b52565b6001600160a01b038516600090815260096020526040902090611ba1565b6001600160d01b03169392505050565b610dde61191e565b6000610de8611a27565b905060007f04d3f7d22e9eab6f1f2cb4bc586e245d10cd595cc16cde145d97085b423f439c87876002811115610e2057610e20612fb9565b33600090815260076020526040902080546001810190915560408051602081019590955284019290925260ff16606083015260808201524260a082015260c0016040516020818303038152906040528051906020012090506000610e8382611c57565b90506000610e9382888888611c84565b9050610eb089828a60405180602001604052806000815250611cb2565b505050505050505050565b610ec3611ff0565b610ecb61201d565b565b6060610ed7612072565b65ffffffffffff16610ee7611285565b65ffffffffffff1614610f0d576040516301bfc1c560e61b815260040160405180910390fd5b5060408051808201909152601d81527f6d6f64653d626c6f636b6e756d6265722666726f6d3d64656661756c74000000602082015290565b610f4d61191e565b610f6882338360405180602001604052806000815250611cb2565b5050565b33610f68818361207d565b600061097c826120ef565b610f8a611ff0565b600e55565b610f97611ff0565b610ecb6000612111565b610fa9611ff0565b60008111610ff95760405162461bcd60e51b815260206004820152601a60248201527f44656e6f6d696e61746f722063616e6e6f74206265207a65726f000000000000604482015260640161088c565b808211156110555760405162461bcd60e51b815260206004820152602360248201527f4e756d657261746f722063616e6e6f74206578636565642064656e6f6d696e616044820152623a37b960e91b606482015260840161088c565b601191909155601255565b61106861191e565b61107483338484611cb2565b505050565b600061097c82612163565b61108c611ff0565b610ecb612181565b6000606080600080600060606110a86121c4565b6110b06121f1565b60408051600080825260208201909252600f60f81b9b939a50919850469750309650945092509050565b60006110f06110e883611b52565b600a90611ba1565b6001600160d01b031692915050565b6060600d5482111580156111135750600082115b61112f5760405162461bcd60e51b815260040161088c906134ab565b6000828152600c602052604090206009810154610100900460ff161561117557505060408051808201909152600881526710d85b98d95b195960c21b6020820152919050565b600981015460ff16156111a8575050604080518082019091526008815267115e1958dd5d195960c21b6020820152919050565b80600401544210156111d957505060408051808201909152600781526650656e64696e6760c81b6020820152919050565b8060050154421161120857505060408051808201909152600681526541637469766560d01b6020820152919050565b611211836118b1565b801561123357506000838152600c602052604090206007810154600690910154115b1561125f57505060408051808201909152600981526814dd58d8d95959195960ba1b6020820152919050565b505060408051808201909152600881526711195999585d195960c21b6020820152919050565b6000610d95612072565b6060600480546108e590613471565b6001600160a01b03811660009081526009602052604081206110f09061221e565b6000336109768185856119c8565b834211156112f157604051632341d78760e11b81526004810185905260240161088c565b604080517fe48329057bfd03d55e49b547132e39cffd9c1820ad7b9d4c5307691425d15adf60208201526001600160a01b03881691810191909152606081018690526080810185905260009061136b906113639060a00160405160208183030381529060405280519060200120611c57565b858585611c84565b90506113778187612257565b611381818861207d565b50505050505050565b6000806060806000806000806000806000600d548c111580156113ad575060008c115b6113c95760405162461bcd60e51b815260040161088c906134ab565b60008c8152600c60205260409020805460018201546004830154600584015460068501546007860154600887015460098801546002890180546001600160a01b0390981697909660038b01969095909490939092909160ff8083169261010090041690899061143790613471565b80601f016020809104026020016040519081016040528092919081815260200182805461146390613471565b80156114b05780601f10611485576101008083540402835291602001916114b0565b820191906000526020600020905b81548152906001019060200180831161149357829003601f168201915b505050505098508780546114c390613471565b80601f01602080910402602001604051908101604052809291908181526020018280546114ef90613471565b801561153c5780601f106115115761010080835404028352916020019161153c565b820191906000526020600020905b81548152906001019060200180831161151f57829003601f168201915b505050505097509b509b509b509b509b509b509b509b509b509b509b505091939597999b90929496989a50565b8342111561158d5760405163313c898160e11b81526004810185905260240161088c565b60007f6e71edae12b1b97f4d1f60370fef10105fa2faae0126114a169c64845d6126c98888886115da8c6001600160a01b0316600090815260076020526040902080546001810190915590565b6040805160208101969096526001600160a01b0394851690860152929091166060840152608083015260a082015260c0810186905260e001604051602081830303815290604052805190602001209050600061163582611c57565b9050600061164582878787611c84565b9050896001600160a01b0316816001600160a01b03161461168c576040516325c0072360e11b81526001600160a01b0380831660048301528b16602482015260440161088c565b6116978a8a8a6118a4565b50505050505050505050565b600d5481111580156116b55750600081115b6116d15760405162461bcd60e51b815260040161088c906134ab565b6000818152600c6020526040902060018101546001600160a01b03163314806117045750600b546001600160a01b031633145b6117415760405162461bcd60e51b815260206004820152600e60248201526d139bdd08185d5d1a1bdc9a5e995960921b604482015260640161088c565b600981015460ff16156117895760405162461bcd60e51b815260206004820152601060248201526f105b1c9958591e48195e1958dd5d195960821b604482015260640161088c565b6009810154610100900460ff16156117d65760405162461bcd60e51b815260206004820152601060248201526f105b1c9958591e4818d85b98d95b195960821b604482015260640161088c565b60098101805461ff00191661010017905560405182907f789cf55be980739dad1d0699b93b58e806b51c9d96619bfa8fe0a28abaa7b30c90600090a25050565b61181e611ff0565b600f55565b61182b611ff0565b601055565b6040805180820190915260008082526020820152610d8483836122aa565b611856611ff0565b6001600160a01b03811661188057604051631e4fbdf760e01b81526000600482015260240161088c565b61188981612111565b50565b6000610d84828461364f565b6000610d848284613676565b61107483838360016122e0565b6000818152600c602052604081206008810154600782015460068301548492916118da91613617565b6118e49190613617565b905060006118f583600401546110da565b9050601254601154826119089190613696565b61191291906136c3565b90911015949350505050565b600b54600160a01b900460ff1615610ecb5760405163d93c066560e01b815260040160405180910390fd5b6001600160a01b038381166000908152600160209081526040808320938616835292905220546000198110156119c257818110156119b357604051637dc7a0d960e11b81526001600160a01b0384166004820152602481018290526044810183905260640161088c565b6119c2848484840360006122e0565b50505050565b6001600160a01b0383166119f257604051634b637e8f60e11b81526000600482015260240161088c565b6001600160a01b038216611a1c5760405163ec442f0560e01b81526000600482015260240161088c565b6110748383836123b5565b6000306001600160a01b037f000000000000000000000000000000000000000000000000000000000000000016148015611a8057507f000000000000000000000000000000000000000000000000000000000000000046145b15611aaa57507f000000000000000000000000000000000000000000000000000000000000000090565b610d95604080517f8b73c3c69bb8fe3d512ecc4cf759cc79239f7b179b0ffacaa9a75d522b39400f60208201527f0000000000000000000000000000000000000000000000000000000000000000918101919091527f000000000000000000000000000000000000000000000000000000000000000060608201524660808201523060a082015260009060c00160405160208183030381529060405280519060200120905090565b600080611b5d611285565b90508065ffffffffffff168310611b9857604051637669fc0f60e11b81526004810184905265ffffffffffff8216602482015260440161088c565b610d84836123c0565b815460009081816005811115611c00576000611bbc846123f7565b611bc690856136e5565b60008881526020902090915081015465ffffffffffff9081169087161015611bf057809150611bfe565b611bfb816001613617565b92505b505b6000611c0e87878585612550565b90508015611c4957611c3387611c256001846136e5565b600091825260209091200190565b54600160301b90046001600160d01b0316611c4c565b60005b979650505050505050565b600061097c611c64611a27565b8360405161190160f01b8152600281019290925260228201526042902090565b600080600080611c96888888886125b2565b925092509250611ca68282612681565b50909695505050505050565b600d548411158015611cc45750600084115b611ce05760405162461bcd60e51b815260040161088c906134ab565b6000848152600c602052604090206004810154421015611d3b5760405162461bcd60e51b8152602060048201526016602482015275159bdd1a5b99c81a185cc81b9bdd081cdd185c9d195960521b604482015260640161088c565b8060050154421115611d825760405162461bcd60e51b815260206004820152601060248201526f159bdd1a5b99c81a185cc8195b99195960821b604482015260640161088c565b600981015460ff1615611dd75760405162461bcd60e51b815260206004820152601960248201527f50726f706f73616c20616c726561647920657865637574656400000000000000604482015260640161088c565b6009810154610100900460ff1615611e255760405162461bcd60e51b8152602060048201526011602482015270141c9bdc1bdcd85b0818d85b98d95b1959607a1b604482015260640161088c565b6001600160a01b0384166000908152600a8201602052604090205460ff1615611e805760405162461bcd60e51b815260206004820152600d60248201526c105b1c9958591e481d9bdd1959609a1b604482015260640161088c565b6000611e8b8561129e565b905060008111611ecf5760405162461bcd60e51b815260206004820152600f60248201526e2737903b37ba34b733903837bbb2b960891b604482015260640161088c565b6001600160a01b0385166000908152600a8301602090815260408083208054600160ff199182168117909255600b870190935292208054879391921690836002811115611f1e57611f1e612fb9565b02179055506000846002811115611f3757611f37612fb9565b03611f5b5780826006016000828254611f509190613617565b90915550611fa29050565b6001846002811115611f6f57611f6f612fb9565b03611f885780826007016000828254611f509190613617565b80826008016000828254611f9c9190613617565b90915550505b85856001600160a01b03167fb8e138887d0aa13bab447e82de9d5c1777041ecd21ca36ba824ff1e6c07ddda4868487604051611fe0939291906136f8565b60405180910390a3505050505050565b600b546001600160a01b03163314610ecb5760405163118cdaa760e01b815233600482015260240161088c565b61202561273a565b600b805460ff60a01b191690557f5db9ee0a495bf2e6ff9c91a7834c1ba4fdd244a5e8aa4e537bd38aeae4b073aa335b6040516001600160a01b03909116815260200160405180910390a1565b6000610d95436123c0565b6001600160a01b0382811660008181526008602052604080822080548686166001600160a01b0319821681179092559151919094169392849290917f3134e8a2e6d97e929a7e54011ea5485d7d196dd5f0ba4d4ef95803e8e3fc257f9190a461107481836120ea86612764565b612782565b6001600160a01b03811660009081526009602052604081205461097c906128ee565b600b80546001600160a01b038381166001600160a01b0319831681179093556040519116919082907f8be0079c531659141344cd1fd0a4f28419497f9722a3daafe3b4186f6b6457e090600090a35050565b6001600160a01b03811660009081526007602052604081205461097c565b61218961191e565b600b805460ff60a01b1916600160a01b1790557f62e78cea01bee320cd4e420270b5ea74000d11b0c9f74754ebdbfc544b05a2586120553390565b6060610d957f0000000000000000000000000000000000000000000000000000000000000000600561291f565b6060610d957f0000000000000000000000000000000000000000000000000000000000000000600661291f565b8054600090801561224e5761223883611c256001846136e5565b54600160301b90046001600160d01b0316610d84565b60009392505050565b6001600160a01b0382166000908152600760205260409020805460018101909155818114611074576040516301d4b62360e61b81526001600160a01b03841660048201526024810182905260440161088c565b60408051808201909152600080825260208201526001600160a01b0383166000908152600960205260409020610d8490836129ca565b6001600160a01b03841661230a5760405163e602df0560e01b81526000600482015260240161088c565b6001600160a01b03831661233457604051634a1406b160e11b81526000600482015260240161088c565b6001600160a01b03808516600090815260016020908152604080832093871683529290522082905580156119c257826001600160a01b0316846001600160a01b03167f8c5be1e5ebec7d5bd14f71427d1e84f3dd0314c0f7b2291e5b200ac8c7c3b925846040516123a791815260200190565b60405180910390a350505050565b611074838383612a3a565b600065ffffffffffff8211156123f3576040516306dfcc6560e41b8152603060048201526024810183905260440161088c565b5090565b600060018211612405575090565b816001600160801b821061241e5760809190911c9060401b5b6801000000000000000082106124395760409190911c9060201b5b64010000000082106124505760209190911c9060101b5b6201000082106124655760109190911c9060081b5b61010082106124795760089190911c9060041b5b6010821061248c5760049190911c9060021b5b600482106124985760011b5b600302600190811c908185816124b0576124b06136ad565b048201901c905060018185816124c8576124c86136ad565b048201901c905060018185816124e0576124e06136ad565b048201901c905060018185816124f8576124f86136ad565b048201901c90506001818581612510576125106136ad565b048201901c90506001818581612528576125286136ad565b048201901c9050612547818581612541576125416136ad565b04821190565b90039392505050565b60005b818310156125aa5760006125678484612aa1565b60008781526020902090915065ffffffffffff86169082015465ffffffffffff161115612596578092506125a4565b6125a1816001613617565b93505b50612553565b509392505050565b600080807f7fffffffffffffffffffffffffffffff5d576e7357a4501ddfe92f46681b20a08411156125ed5750600091506003905082612677565b604080516000808252602082018084528a905260ff891692820192909252606081018790526080810186905260019060a0016020604051602081039080840390855afa158015612641573d6000803e3d6000fd5b5050604051601f1901519150506001600160a01b03811661266d57506000925060019150829050612677565b9250600091508190505b9450945094915050565b600082600381111561269557612695612fb9565b0361269e575050565b60018260038111156126b2576126b2612fb9565b036126d05760405163f645eedf60e01b815260040160405180910390fd5b60028260038111156126e4576126e4612fb9565b036127055760405163fce698f760e01b81526004810182905260240161088c565b600382600381111561271957612719612fb9565b03610f68576040516335e2f38360e21b81526004810182905260240161088c565b600b54600160a01b900460ff16610ecb57604051638dfc202b60e01b815260040160405180910390fd5b6001600160a01b03811660009081526020819052604081205461097c565b816001600160a01b0316836001600160a01b0316141580156127a45750600081115b15611074576001600160a01b0383161561284c576001600160a01b038316600090815260096020526040812081906127e7906118986127e286612abc565b612af0565b6001600160d01b031691506001600160d01b03169150846001600160a01b03167fdec2bacdd2f05b59de34da9b523dff8be42e5e38e818c82fdb0bae774387a7248383604051612841929190918252602082015260400190565b60405180910390a250505b6001600160a01b03821615611074576001600160a01b038216600090815260096020526040812081906128859061188c6127e286612abc565b6001600160d01b031691506001600160d01b03169150836001600160a01b03167fdec2bacdd2f05b59de34da9b523dff8be42e5e38e818c82fdb0bae774387a72483836040516128df929190918252602082015260400190565b60405180910390a25050505050565b600063ffffffff8211156123f3576040516306dfcc6560e41b8152602060048201526024810183905260440161088c565b606060ff83146129395761293283612b29565b905061097c565b81805461294590613471565b80601f016020809104026020016040519081016040528092919081815260200182805461297190613471565b80156129be5780601f10612993576101008083540402835291602001916129be565b820191906000526020600020905b8154815290600101906020018083116129a157829003601f168201915b5050505050905061097c565b6040805180820190915260008082526020820152826000018263ffffffff16815481106129f9576129f9613727565b60009182526020918290206040805180820190915291015465ffffffffffff81168252600160301b90046001600160d01b0316918101919091529392505050565b612a45838383612b68565b6001600160a01b038316612a96576000612a5e60025490565b90506001600160d01b0380821115612a9357604051630e58ae9360e11b8152600481018390526024810182905260440161088c565b50505b611074838383612c92565b6000612ab060028484186136c3565b610d8490848416613617565b60006001600160d01b038211156123f3576040516306dfcc6560e41b815260d060048201526024810183905260440161088c565b600080612b1c612afe611285565b612b14612b0a8861221e565b868863ffffffff16565b879190612d08565b915091505b935093915050565b60606000612b3683612d16565b604080516020808252818301909252919250600091906020820181803683375050509182525060208101929092525090565b6001600160a01b038316612b93578060026000828254612b889190613617565b90915550612c059050565b6001600160a01b03831660009081526020819052604090205481811015612be65760405163391434e360e21b81526001600160a01b0385166004820152602481018290526044810183905260640161088c565b6001600160a01b03841660009081526020819052604090209082900390555b6001600160a01b038216612c2157600280548290039055612c40565b6001600160a01b03821660009081526020819052604090208054820190555b816001600160a01b0316836001600160a01b03167fddf252ad1be2c89b69c2b068fc378daa952ba7f163c4a11628f55a4df523b3ef83604051612c8591815260200190565b60405180910390a3505050565b6001600160a01b038316612cb457612cb1600a61188c6127e284612abc565b50505b6001600160a01b038216612cd657612cd3600a6118986127e284612abc565b50505b6001600160a01b0383811660009081526008602052604080822054858416835291205461107492918216911683612782565b600080612b1c858585612d3e565b600060ff8216601f81111561097c57604051632cd44ac360e21b815260040160405180910390fd5b825460009081908015612e37576000612d5c87611c256001856136e5565b805490915065ffffffffffff80821691600160301b90046001600160d01b0316908816821115612d9f57604051632520601d60e01b815260040160405180910390fd5b8765ffffffffffff168265ffffffffffff1603612dd857825465ffffffffffff16600160301b6001600160d01b03891602178355612e29565b6040805180820190915265ffffffffffff808a1682526001600160d01b03808a1660208085019182528d54600181018f5560008f81529190912094519151909216600160301b029216919091179101555b9450859350612b2192505050565b50506040805180820190915265ffffffffffff80851682526001600160d01b0380851660208085019182528854600181018a5560008a815291822095519251909316600160301b029190931617920191909155905081612b21565b600060208284031215612ea457600080fd5b5035919050565b6000815180845260005b81811015612ed157602081850181015186830182015201612eb5565b506000602082860101526020601f19601f83011685010191505092915050565b8b81526001600160a01b038b16602082015261016060408201819052600090612f1c8382018d612eab565b90508281036060840152612f30818c612eab565b608084019a909a52505060a081019690965260c086019490945260e08501929092526101008401521515610120830152151561014090910152949350505050565b80356001600160a01b0381168114612f8857600080fd5b919050565b60008060408385031215612fa057600080fd5b82359150612fb060208401612f71565b90509250929050565b634e487b7160e01b600052602160045260246000fd5b60038110612fed57634e487b7160e01b600052602160045260246000fd5b9052565b821515815260408101610d846020830184612fcf565b602081526000610d846020830184612eab565b6000806040838503121561302d57600080fd5b61303683612f71565b946020939093013593505050565b634e487b7160e01b600052604160045260246000fd5b600082601f83011261306b57600080fd5b813567ffffffffffffffff8082111561308657613086613044565b604051601f8301601f19908116603f011681019082821181831017156130ae576130ae613044565b816040528381528660208588010111156130c757600080fd5b836020870160208301376000602085830101528094505050505092915050565b600080604083850312156130fa57600080fd5b823567ffffffffffffffff8082111561311257600080fd5b61311e8683870161305a565b9350602085013591508082111561313457600080fd5b506131418582860161305a565b9150509250929050565b60008060006060848603121561316057600080fd5b61316984612f71565b925061317760208501612f71565b9150604084013590509250925092565b803560038110612f8857600080fd5b803560ff81168114612f8857600080fd5b600080600080600060a086880312156131bf57600080fd5b853594506131cf60208701613187565b93506131dd60408701613196565b94979396509394606081013594506080013592915050565b6000806040838503121561320857600080fd5b82359150612fb060208401613187565b60006020828403121561322a57600080fd5b610d8482612f71565b6000806040838503121561324657600080fd5b50508035926020909101359150565b60008060006060848603121561326a57600080fd5b8335925061327a60208501613187565b9150604084013567ffffffffffffffff81111561329657600080fd5b6132a28682870161305a565b9150509250925092565b60ff60f81b881681526000602060e060208401526132cd60e084018a612eab565b83810360408501526132df818a612eab565b606085018990526001600160a01b038816608086015260a0850187905284810360c08601528551808252602080880193509091019060005b8181101561333357835183529284019291840191600101613317565b50909c9b505050505050505050505050565b60008060008060008060c0878903121561335e57600080fd5b61336787612f71565b9550602087013594506040870135935061338360608801613196565b92506080870135915060a087013590509295509295509295565b600080600080600080600060e0888a0312156133b857600080fd5b6133c188612f71565b96506133cf60208901612f71565b955060408801359450606088013593506133eb60808901613196565b925060a0880135915060c0880135905092959891949750929550565b6000806040838503121561341a57600080fd5b61342383612f71565b9150612fb060208401612f71565b6000806040838503121561344457600080fd5b61344d83612f71565b9150602083013563ffffffff8116811461346657600080fd5b809150509250929050565b600181811c9082168061348557607f821691505b6020821081036134a557634e487b7160e01b600052602260045260246000fd5b50919050565b602080825260139082015272125b9d985b1a59081c1c9bdc1bdcd85b081251606a1b604082015260600190565b634e487b7160e01b600052601160045260246000fd5b600060018201613500576135006134d8565b5060010190565b601f821115611074576000816000526020600020601f850160051c810160208610156135305750805b601f850160051c820191505b8181101561354f5782815560010161353c565b505050505050565b815167ffffffffffffffff81111561357157613571613044565b6135858161357f8454613471565b84613507565b602080601f8311600181146135ba57600084156135a25750858301515b600019600386901b1c1916600185901b17855561354f565b600085815260208120601f198616915b828110156135e9578886015182559484019460019091019084016135ca565b50858210156136075787850151600019600388901b60f8161c191681555b5050505050600190811b01905550565b8082018082111561097c5761097c6134d8565b60608152600061363d6060830186612eab565b60208301949094525060400152919050565b6001600160d01b0381811683821601908082111561366f5761366f6134d8565b5092915050565b6001600160d01b0382811682821603908082111561366f5761366f6134d8565b808202811582820484141761097c5761097c6134d8565b634e487b7160e01b600052601260045260246000fd5b6000826136e057634e487b7160e01b600052601260045260246000fd5b500490565b8181038181111561097c5761097c6134d8565b6137028185612fcf565b82602082015260606040820152600061371e6060830184612eab565b95945050505050565b634e487b7160e01b600052603260045260246000fdfea26469706673582212206f9a07f90eac537c2dc140b63d4c24121a08d5145ee5df1653f02f41d817611f64736f6c63430008180033dec2bacdd2f05b59de34da9b523dff8be42e5e38e818c82fdb0bae774387a724",
  "linkReferences": {},
  "deployedLinkReferences": {}
}