{
  "_format": "hh-sol-artifact-1",
  "contractName": "MultiSigWallet",
  "sourceName": "contracts/MultiSigWallet.sol",
  "abi": [
    {
      "inputs": [
        {
          "internalType": "address[]",
          "name": "_owners",
          "type": "address[]"
        },
        {
          "internalType": "uint256",
          "name": "_required",
          "type": "uint256"
        }
      ],
      "stateMutability": "nonpayable",
      "type": "constructor"
    },
    {
      "inputs": [
        {
          "internalType": "address",
          "name": "owner",
          "type": "address"
        }
      ],
      "name": "OwnableInvalidOwner",
      "type": "error"
    },
    {
      "inputs": [
        {
          "internalType": "address",
          "name": "account",
          "type": "address"
        }
      ],
      "name": "OwnableUnauthorizedAccount",
      "type": "error"
    },
    {
      "anonymous": false,
      "inputs": [
        {
          "indexed": true,
          "internalType": "address",
          "name": "sender",
          "type": "address"
        },
        {
          "indexed": true,
          "internalType": "uint256",
          "name": "transactionId",
          "type": "uint256"
        }
      ],
      "name": "Confirmation",
      "type": "event"
    },
    {
      "anonymous": false,
      "inputs": [
        {
          "indexed": true,
          "internalType": "uint256",
          "name": "transactionId",
          "type": "uint256"
        }
      ],
      "name": "Execution",
      "type": "event"
    },
    {
      "anonymous": false,
      "inputs": [
        {
          "indexed": true,
          "internalType": "address",
          "name": "previousOwner",
          "type": "address"
        },
        {
          "indexed": true,
          "internalType": "address",
          "name": "newOwner",
          "type": "address"
        }
      ],
      "name": "OwnershipTransferred",
      "type": "event"
    },
    {
      "anonymous": false,
      "inputs": [
        {
          "indexed": true,
          "internalType": "uint256",
          "name": "transactionId",
          "type": "uint256"
        }
      ],
      "name": "SubmitTransaction",
      "type": "event"
    },
    {
      "inputs": [
        {
          "internalType": "uint256",
          "name": "transactionId",
          "type": "uint256"
        }
      ],
      "name": "confirmTransaction",
      "outputs": [],
      "stateMutability": "nonpayable",
      "type": "function"
    },
    {
      "inputs": [
        {
          "internalType": "uint256",
          "name": "",
          "type": "uint256"
        },
        {
          "internalType": "address",
          "name": "",
          "type": "address"
        }
      ],
      "name": "confirmations",
      "outputs": [
        {
          "internalType": "bool",
          "name": "",
          "type": "bool"
        }
      ],
      "stateMutability": "view",
      "type": "function"
    },
    {
      "inputs": [
        {
          "internalType": "uint256",
          "name": "transactionId",
          "type": "uint256"
        }
      ],
      "name": "executeTransaction",
      "outputs": [],
      "stateMutability": "nonpayable",
      "type": "function"
    },
    {
      "inputs": [
        {
          "internalType": "uint256",
          "name": "transactionId",
          "type": "uint256"
        }
      ],
      "name": "isConfirmed",
      "outputs": [
        {
          "internalType": "bool",
          "name": "",
          "type": "bool"
        }
      ],
      "stateMutability": "view",
      "type": "function"
    },
    {
      "inputs": [
        {
          "internalType": "address",
          "name": "",
          "type": "address"
        }
      ],
      "name": "isOwner",
      "outputs": [
        {
          "internalType": "bool",
          "name": "",
          "type": "bool"
        }
      ],
      "stateMutability": "view",
      "type": "function"
    },
    {
      "inputs": [],
      "name": "owner",
      "outputs": [
        {
          "internalType": "address",
          "name": "",
          "type": "address"
        }
      ],
      "stateMutability": "view",
      "type": "function"
    },
    {
      "inputs": [
        {
          "internalType": "uint256",
          "name": "",
          "type": "uint256"
        }
      ],
      "name": "owners",
      "outputs": [
        {
          "internalType": "address",
          "name": "",
          "type": "address"
        }
      ],
      "stateMutability": "view",
      "type": "function"
    },
    {
      "inputs": [],
      "name": "renounceOwnership",
      "outputs": [],
      "stateMutability": "nonpayable",
      "type": "function"
    },
    {
      "inputs": [],
      "name": "required",
      "outputs": [
        {
          "internalType": "uint256",
          "name": "",
          "type": "uint256"
        }
      ],
      "stateMutability": "view",
      "type": "function"
    },
    {
      "inputs": [
        {
          "internalType": "address",
          "name": "to",
          "type": "address"
        },
        {
          "internalType": "uint256",
          "name": "value",
          "type": "uint256"
        },
        {
          "internalType": "bytes",
          "name": "data",
          "type": "bytes"
        }
      ],
      "name": "submitTransaction",
      "outputs": [
        {
          "internalType": "uint256",
          "name": "transactionId",
          "type": "uint256"
        }
      ],
      "stateMutability": "nonpayable",
      "type": "function"
    },
    {
      "inputs": [],
      "name": "transactionCount",
      "outputs": [
        {
          "internalType": "uint256",
          "name": "",
          "type": "uint256"
        }
      ],
      "stateMutability": "view",
      "type": "function"
    },
    {
      "inputs": [
        {
          "internalType": "uint256",
          "name": "",
          "type": "uint256"
        }
      ],
      "name": "transactions",
      "outputs": [
        {
          "internalType": "address",
          "name": "to",
          "type": "address"
        },
        {
          "internalType": "uint256",
          "name": "value",
          "type": "uint256"
        },
        {
          "internalType": "bytes",
          "name": "data",
          "type": "bytes"
        },
        {
          "internalType": "bool",
          "name": "executed",
          "type": "bool"
        },
        {
          "internalType": "uint256",
          "name": "confirmations",
          "type": "uint256"
        }
      ],
      "stateMutability": "view",
      "type": "function"
    },
    {
      "inputs": [
        {
          "internalType": "address",
          "name": "newOwner",
          "type": "address"
        }
      ],
      "name": "transferOwnership",
      "outputs": [],
      "stateMutability": "nonpayable",
      "type": "function"
    },
    {
      "stateMutability": "payable",
      "type": "receive"
    }
  ],
  "bytecode": "0x60806040523480156200001157600080fd5b50604051620010c2380380620010c28339810160408190526200003491620002e8565b33806200005c57604051631e4fbdf760e01b8152600060048201526024015b60405180910390fd5b620000678162000265565b506000825111620000ad5760405162461bcd60e51b815260206004820152600f60248201526e13dddb995c9cc81c995c5d5a5c9959608a1b604482015260640162000053565b600081118015620000bf575081518111155b6200010d5760405162461bcd60e51b815260206004820152601760248201527f496e76616c6964207265717569726564206e756d626572000000000000000000604482015260640162000053565b60005b82518110156200025a576000838281518110620001315762000131620003c2565b6020026020010151905060006001600160a01b0316816001600160a01b0316036200018f5760405162461bcd60e51b815260206004820152600d60248201526c24b73b30b634b21037bbb732b960991b604482015260640162000053565b6001600160a01b03811660009081526003602052604090205460ff1615620001ed5760405162461bcd60e51b815260206004820152601060248201526f4f776e6572206e6f7420756e6971756560801b604482015260640162000053565b6001600160a01b03166000818152600360205260408120805460ff1916600190811790915560048054808301825592527f8a35acfbc15ff81a39ae7d344fd709f28e8600b4aa8c65c6b64bfe7fe36bd19b90910180546001600160a01b0319169092179091550162000110565b5060055550620003d8565b600080546001600160a01b038381166001600160a01b0319831681178455604051919092169283917f8be0079c531659141344cd1fd0a4f28419497f9722a3daafe3b4186f6b6457e09190a35050565b634e487b7160e01b600052604160045260246000fd5b80516001600160a01b0381168114620002e357600080fd5b919050565b60008060408385031215620002fc57600080fd5b82516001600160401b03808211156200031457600080fd5b818501915085601f8301126200032957600080fd5b8151602082821115620003405762000340620002b5565b8160051b604051601f19603f83011681018181108682111715620003685762000368620002b5565b6040529283528183019350848101820192898411156200038757600080fd5b948201945b83861015620003b057620003a086620002cb565b855294820194938201936200038c565b97909101519698969750505050505050565b634e487b7160e01b600052603260045260246000fd5b610cda80620003e86000396000f3fe6080604052600436106100c65760003560e01c80639ace38c21161007f578063c642747411610059578063c64274741461026a578063dc8452cd1461028a578063ee22610b146102a0578063f2fde38b146102c057600080fd5b80639ace38c2146101f5578063b77bf60014610226578063c01a8c841461024a57600080fd5b8063025e7c27146100d25780632f54bf6e1461010f5780633411c81c1461014f578063715018a61461018a578063784547a7146101a15780638da5cb5b146101d757600080fd5b366100cd57005b600080fd5b3480156100de57600080fd5b506100f26100ed3660046108dc565b6102e0565b6040516001600160a01b0390911681526020015b60405180910390f35b34801561011b57600080fd5b5061013f61012a366004610911565b60036020526000908152604090205460ff1681565b6040519015158152602001610106565b34801561015b57600080fd5b5061013f61016a366004610933565b600260209081526000928352604080842090915290825290205460ff1681565b34801561019657600080fd5b5061019f61030a565b005b3480156101ad57600080fd5b5061013f6101bc3660046108dc565b60055460009182526001602052604090912060040154101590565b3480156101e357600080fd5b506000546001600160a01b03166100f2565b34801561020157600080fd5b506102156102103660046108dc565b61031e565b60405161010695949392919061095f565b34801561023257600080fd5b5061023c60065481565b604051908152602001610106565b34801561025657600080fd5b5061019f6102653660046108dc565b6103e6565b34801561027657600080fd5b5061023c6102853660046109f1565b61057d565b34801561029657600080fd5b5061023c60055481565b3480156102ac57600080fd5b5061019f6102bb3660046108dc565b6106b3565b3480156102cc57600080fd5b5061019f6102db366004610911565b610821565b600481815481106102f057600080fd5b6000918252602090912001546001600160a01b0316905081565b61031261085f565b61031c600061088c565b565b60016020819052600091825260409091208054918101546002820180546001600160a01b039094169391929161035390610abc565b80601f016020809104026020016040519081016040528092919081815260200182805461037f90610abc565b80156103cc5780601f106103a1576101008083540402835291602001916103cc565b820191906000526020600020905b8154815290600101906020018083116103af57829003601f168201915b505050506003830154600490930154919260ff1691905085565b3360008181526003602052604090205460ff166104365760405162461bcd60e51b81526020600482015260096024820152682737ba1037bbb732b960b91b60448201526064015b60405180910390fd5b60008281526001602052604090205482906001600160a01b03166104955760405162461bcd60e51b81526020600482015260166024820152755472616e73616374696f6e206e6f742065786973747360501b604482015260640161042d565b60008381526002602090815260408083203380855292529091205484919060ff16156104f75760405162461bcd60e51b8152602060048201526011602482015270105b1c9958591e4818dbdb999a5c9b5959607a1b604482015260640161042d565b60008581526002602090815260408083203384528252808320805460ff1916600190811790915588845291829052822060040180549192909161053b908490610af6565b9091555050604051859033907f4a504a94899432a9846e1aa406dceb1bcfd538bb839071d49d1e5e23f5be30ef90600090a3610576856106b3565b5050505050565b3360008181526003602052604081205490919060ff166105cb5760405162461bcd60e51b81526020600482015260096024820152682737ba1037bbb732b960b91b604482015260640161042d565b6006546040805160a0810182526001600160a01b03888116825260208083018981528385018981526000606086018190526080860181905287815260019384905295909520845181546001600160a01b0319169416939093178355519082015591519294509160028201906106409082610b6e565b50606082015160038201805460ff1916911515919091179055608090910151600490910155600680546001919060009061067b908490610af6565b909155505060405182907fdce08ffd49d3e7091684341cab08a4ffba42fdb443cb0deb2c92729772f4704b90600090a2509392505050565b600081815260016020526040902060030154819060ff161561070a5760405162461bcd60e51b815260206004820152601060248201526f105b1c9958591e48195e1958dd5d195960821b604482015260640161042d565b6005546000838152600160205260409020600401541061081d57600082815260016020819052604080832060038101805460ff19168417905580549281015491519093926001600160a01b03169190610767906002860190610c2e565b60006040518083038185875af1925050503d80600081146107a4576040519150601f19603f3d011682016040523d82523d6000602084013e6107a9565b606091505b50509050806107ef5760405162461bcd60e51b8152602060048201526012602482015271151c985b9cd858dd1a5bdb8819985a5b195960721b604482015260640161042d565b60405184907f33e13ecb54c3076d8e8bb8c2881800a4d972b792045ffae98fdf46df365fed7590600090a250505b5050565b61082961085f565b6001600160a01b03811661085357604051631e4fbdf760e01b81526000600482015260240161042d565b61085c8161088c565b50565b6000546001600160a01b0316331461031c5760405163118cdaa760e01b815233600482015260240161042d565b600080546001600160a01b038381166001600160a01b0319831681178455604051919092169283917f8be0079c531659141344cd1fd0a4f28419497f9722a3daafe3b4186f6b6457e09190a35050565b6000602082840312156108ee57600080fd5b5035919050565b80356001600160a01b038116811461090c57600080fd5b919050565b60006020828403121561092357600080fd5b61092c826108f5565b9392505050565b6000806040838503121561094657600080fd5b82359150610956602084016108f5565b90509250929050565b60018060a01b03861681526000602086602084015260a0604084015285518060a085015260005b818110156109a25787810183015185820160c001528201610986565b50600060c0828601015260c0601f19601f830116850101925050506109cb606083018515159052565b8260808301529695505050505050565b634e487b7160e01b600052604160045260246000fd5b600080600060608486031215610a0657600080fd5b610a0f846108f5565b925060208401359150604084013567ffffffffffffffff80821115610a3357600080fd5b818601915086601f830112610a4757600080fd5b813581811115610a5957610a596109db565b604051601f8201601f19908116603f01168101908382118183101715610a8157610a816109db565b81604052828152896020848701011115610a9a57600080fd5b8260208601602083013760006020848301015280955050505050509250925092565b600181811c90821680610ad057607f821691505b602082108103610af057634e487b7160e01b600052602260045260246000fd5b50919050565b80820180821115610b1757634e487b7160e01b600052601160045260246000fd5b92915050565b601f821115610b69576000816000526020600020601f850160051c81016020861015610b465750805b601f850160051c820191505b81811015610b6557828155600101610b52565b5050505b505050565b815167ffffffffffffffff811115610b8857610b886109db565b610b9c81610b968454610abc565b84610b1d565b602080601f831160018114610bd15760008415610bb95750858301515b600019600386901b1c1916600185901b178555610b65565b600085815260208120601f198616915b82811015610c0057888601518255948401946001909101908401610be1565b5085821015610c1e5787850151600019600388901b60f8161c191681555b5050505050600190811b01905550565b6000808354610c3c81610abc565b60018281168015610c545760018114610c6957610c98565b60ff1984168752821515830287019450610c98565b8760005260208060002060005b85811015610c8f5781548a820152908401908201610c76565b50505082870194505b5092969550505050505056fea2646970667358221220b292b8a1c8cb50c7fb2c749fd33a811f9c9ca51a277defe9f1d84b249399fa6664736f6c63430008180033",
  "linkReferences": {},
  "deployedLinkReferences": {}
}