{
  "_format": "hh-sol-artifact-1",
  "contractName": "XpSwapFarmingRewards",
  "sourceName": "contracts/XpSwapFarmingRewards.sol",
  "abi": [
    {
      "inputs": [
        {
          "internalType": "address",
          "name": "_rewardToken",
          "type": "address"
        },
        {
          "internalType": "uint256",
          "name": "_rewardPerSecond",
          "type": "uint256"
        },
        {
          "internalType": "uint256",
          "name": "_startTime",
          "type": "uint256"
        }
      ],
      "stateMutability": "nonpayable",
      "type": "constructor"
    },
    {
      "inputs": [],
      "name": "EnforcedPause",
      "type": "error"
    },
    {
      "inputs": [],
      "name": "ExpectedPause",
      "type": "error"
    },
    {
      "inputs": [
        {
          "internalType": "address",
          "name": "owner",
          "type": "address"
        }
      ],
      "name": "OwnableInvalidOwner",
      "type": "error"
    },
    {
      "inputs": [
        {
          "internalType": "address",
          "name": "account",
          "type": "address"
        }
      ],
      "name": "OwnableUnauthorizedAccount",
      "type": "error"
    },
    {
      "inputs": [],
      "name": "ReentrancyGuardReentrantCall",
      "type": "error"
    },
    {
      "anonymous": false,
      "inputs": [
        {
          "indexed": true,
          "internalType": "address",
          "name": "user",
          "type": "address"
        },
        {
          "indexed": true,
          "internalType": "uint256",
          "name": "pid",
          "type": "uint256"
        },
        {
          "indexed": false,
          "internalType": "uint256",
          "name": "amount",
          "type": "uint256"
        }
      ],
      "name": "Deposit",
      "type": "event"
    },
    {
      "anonymous": false,
      "inputs": [
        {
          "indexed": true,
          "internalType": "address",
          "name": "user",
          "type": "address"
        },
        {
          "indexed": true,
          "internalType": "uint256",
          "name": "pid",
          "type": "uint256"
        },
        {
          "indexed": false,
          "internalType": "uint256",
          "name": "amount",
          "type": "uint256"
        }
      ],
      "name": "EmergencyWithdraw",
      "type": "event"
    },
    {
      "anonymous": false,
      "inputs": [
        {
          "indexed": true,
          "internalType": "address",
          "name": "previousOwner",
          "type": "address"
        },
        {
          "indexed": true,
          "internalType": "address",
          "name": "newOwner",
          "type": "address"
        }
      ],
      "name": "OwnershipTransferred",
      "type": "event"
    },
    {
      "anonymous": false,
      "inputs": [
        {
          "indexed": false,
          "internalType": "address",
          "name": "account",
          "type": "address"
        }
      ],
      "name": "Paused",
      "type": "event"
    },
    {
      "anonymous": false,
      "inputs": [
        {
          "indexed": true,
          "internalType": "uint256",
          "name": "pid",
          "type": "uint256"
        },
        {
          "indexed": false,
          "internalType": "address",
          "name": "lpToken",
          "type": "address"
        },
        {
          "indexed": false,
          "internalType": "uint256",
          "name": "allocPoint",
          "type": "uint256"
        }
      ],
      "name": "PoolAdded",
      "type": "event"
    },
    {
      "anonymous": false,
      "inputs": [
        {
          "indexed": true,
          "internalType": "uint256",
          "name": "pid",
          "type": "uint256"
        },
        {
          "indexed": false,
          "internalType": "uint256",
          "name": "allocPoint",
          "type": "uint256"
        }
      ],
      "name": "PoolUpdated",
      "type": "event"
    },
    {
      "anonymous": false,
      "inputs": [
        {
          "indexed": true,
          "internalType": "address",
          "name": "user",
          "type": "address"
        },
        {
          "indexed": true,
          "internalType": "uint256",
          "name": "pid",
          "type": "uint256"
        },
        {
          "indexed": false,
          "internalType": "uint256",
          "name": "amount",
          "type": "uint256"
        }
      ],
      "name": "RewardClaimed",
      "type": "event"
    },
    {
      "anonymous": false,
      "inputs": [
        {
          "indexed": false,
          "internalType": "address",
          "name": "account",
          "type": "address"
        }
      ],
      "name": "Unpaused",
      "type": "event"
    },
    {
      "anonymous": false,
      "inputs": [
        {
          "indexed": true,
          "internalType": "address",
          "name": "user",
          "type": "address"
        },
        {
          "indexed": true,
          "internalType": "uint256",
          "name": "pid",
          "type": "uint256"
        },
        {
          "indexed": false,
          "internalType": "uint256",
          "name": "amount",
          "type": "uint256"
        }
      ],
      "name": "Withdraw",
      "type": "event"
    },
    {
      "inputs": [],
      "name": "REWARD_PRECISION",
      "outputs": [
        {
          "internalType": "uint256",
          "name": "",
          "type": "uint256"
        }
      ],
      "stateMutability": "view",
      "type": "function"
    },
    {
      "inputs": [
        {
          "internalType": "address",
          "name": "_lpToken",
          "type": "address"
        },
        {
          "internalType": "uint256",
          "name": "_allocPoint",
          "type": "uint256"
        },
        {
          "internalType": "uint256",
          "name": "_minStakeAmount",
          "type": "uint256"
        },
        {
          "internalType": "uint256",
          "name": "_lockPeriod",
          "type": "uint256"
        },
        {
          "internalType": "bool",
          "name": "_withUpdate",
          "type": "bool"
        }
      ],
      "name": "addPool",
      "outputs": [],
      "stateMutability": "nonpayable",
      "type": "function"
    },
    {
      "inputs": [
        {
          "internalType": "uint256",
          "name": "_pid",
          "type": "uint256"
        }
      ],
      "name": "claimReward",
      "outputs": [],
      "stateMutability": "nonpayable",
      "type": "function"
    },
    {
      "inputs": [
        {
          "internalType": "uint256",
          "name": "_pid",
          "type": "uint256"
        },
        {
          "internalType": "uint256",
          "name": "_amount",
          "type": "uint256"
        }
      ],
      "name": "deposit",
      "outputs": [],
      "stateMutability": "nonpayable",
      "type": "function"
    },
    {
      "inputs": [
        {
          "internalType": "uint256",
          "name": "_amount",
          "type": "uint256"
        }
      ],
      "name": "emergencyRewardWithdraw",
      "outputs": [],
      "stateMutability": "nonpayable",
      "type": "function"
    },
    {
      "inputs": [
        {
          "internalType": "uint256",
          "name": "_pid",
          "type": "uint256"
        }
      ],
      "name": "emergencyWithdraw",
      "outputs": [],
      "stateMutability": "nonpayable",
      "type": "function"
    },
    {
      "inputs": [
        {
          "internalType": "uint256",
          "name": "_pid",
          "type": "uint256"
        },
        {
          "internalType": "address",
          "name": "_user",
          "type": "address"
        }
      ],
      "name": "getUserInfo",
      "outputs": [
        {
          "internalType": "uint256",
          "name": "amount",
          "type": "uint256"
        },
        {
          "internalType": "uint256",
          "name": "rewardDebt",
          "type": "uint256"
        },
        {
          "internalType": "uint256",
          "name": "lastStakeTime",
          "type": "uint256"
        },
        {
          "internalType": "uint256",
          "name": "totalRewardsClaimed",
          "type": "uint256"
        },
        {
          "internalType": "uint256",
          "name": "pendingRewards",
          "type": "uint256"
        }
      ],
      "stateMutability": "view",
      "type": "function"
    },
    {
      "inputs": [],
      "name": "massUpdatePools",
      "outputs": [],
      "stateMutability": "nonpayable",
      "type": "function"
    },
    {
      "inputs": [],
      "name": "owner",
      "outputs": [
        {
          "internalType": "address",
          "name": "",
          "type": "address"
        }
      ],
      "stateMutability": "view",
      "type": "function"
    },
    {
      "inputs": [],
      "name": "pause",
      "outputs": [],
      "stateMutability": "nonpayable",
      "type": "function"
    },
    {
      "inputs": [],
      "name": "paused",
      "outputs": [
        {
          "internalType": "bool",
          "name": "",
          "type": "bool"
        }
      ],
      "stateMutability": "view",
      "type": "function"
    },
    {
      "inputs": [
        {
          "internalType": "uint256",
          "name": "_pid",
          "type": "uint256"
        },
        {
          "internalType": "address",
          "name": "_user",
          "type": "address"
        }
      ],
      "name": "pendingReward",
      "outputs": [
        {
          "internalType": "uint256",
          "name": "",
          "type": "uint256"
        }
      ],
      "stateMutability": "view",
      "type": "function"
    },
    {
      "inputs": [
        {
          "internalType": "uint256",
          "name": "",
          "type": "uint256"
        }
      ],
      "name": "poolInfo",
      "outputs": [
        {
          "internalType": "contract IERC20",
          "name": "lpToken",
          "type": "address"
        },
        {
          "internalType": "uint256",
          "name": "allocPoint",
          "type": "uint256"
        },
        {
          "internalType": "uint256",
          "name": "lastRewardTime",
          "type": "uint256"
        },
        {
          "internalType": "uint256",
          "name": "accRewardPerShare",
          "type": "uint256"
        },
        {
          "internalType": "uint256",
          "name": "totalStaked",
          "type": "uint256"
        },
        {
          "internalType": "uint256",
          "name": "minStakeAmount",
          "type": "uint256"
        },
        {
          "internalType": "uint256",
          "name": "lockPeriod",
          "type": "uint256"
        },
        {
          "internalType": "bool",
          "name": "active",
          "type": "bool"
        }
      ],
      "stateMutability": "view",
      "type": "function"
    },
    {
      "inputs": [],
      "name": "poolLength",
      "outputs": [
        {
          "internalType": "uint256",
          "name": "",
          "type": "uint256"
        }
      ],
      "stateMutability": "view",
      "type": "function"
    },
    {
      "inputs": [
        {
          "internalType": "uint256",
          "name": "",
          "type": "uint256"
        }
      ],
      "name": "poolMultipliers",
      "outputs": [
        {
          "internalType": "uint256",
          "name": "",
          "type": "uint256"
        }
      ],
      "stateMutability": "view",
      "type": "function"
    },
    {
      "inputs": [],
      "name": "renounceOwnership",
      "outputs": [],
      "stateMutability": "nonpayable",
      "type": "function"
    },
    {
      "inputs": [],
      "name": "rewardPerSecond",
      "outputs": [
        {
          "internalType": "uint256",
          "name": "",
          "type": "uint256"
        }
      ],
      "stateMutability": "view",
      "type": "function"
    },
    {
      "inputs": [],
      "name": "rewardToken",
      "outputs": [
        {
          "internalType": "contract IERC20",
          "name": "",
          "type": "address"
        }
      ],
      "stateMutability": "view",
      "type": "function"
    },
    {
      "inputs": [
        {
          "internalType": "uint256",
          "name": "_pid",
          "type": "uint256"
        },
        {
          "internalType": "uint256",
          "name": "_multiplier",
          "type": "uint256"
        }
      ],
      "name": "setPoolMultiplier",
      "outputs": [],
      "stateMutability": "nonpayable",
      "type": "function"
    },
    {
      "inputs": [
        {
          "internalType": "uint256",
          "name": "_rewardPerSecond",
          "type": "uint256"
        }
      ],
      "name": "setRewardPerSecond",
      "outputs": [],
      "stateMutability": "nonpayable",
      "type": "function"
    },
    {
      "inputs": [],
      "name": "startTime",
      "outputs": [
        {
          "internalType": "uint256",
          "name": "",
          "type": "uint256"
        }
      ],
      "stateMutability": "view",
      "type": "function"
    },
    {
      "inputs": [],
      "name": "totalAllocPoint",
      "outputs": [
        {
          "internalType": "uint256",
          "name": "",
          "type": "uint256"
        }
      ],
      "stateMutability": "view",
      "type": "function"
    },
    {
      "inputs": [
        {
          "internalType": "address",
          "name": "newOwner",
          "type": "address"
        }
      ],
      "name": "transferOwnership",
      "outputs": [],
      "stateMutability": "nonpayable",
      "type": "function"
    },
    {
      "inputs": [],
      "name": "unpause",
      "outputs": [],
      "stateMutability": "nonpayable",
      "type": "function"
    },
    {
      "inputs": [
        {
          "internalType": "uint256",
          "name": "_pid",
          "type": "uint256"
        },
        {
          "internalType": "uint256",
          "name": "_allocPoint",
          "type": "uint256"
        },
        {
          "internalType": "uint256",
          "name": "_minStakeAmount",
          "type": "uint256"
        },
        {
          "internalType": "uint256",
          "name": "_lockPeriod",
          "type": "uint256"
        },
        {
          "internalType": "bool",
          "name": "_active",
          "type": "bool"
        }
      ],
      "name": "updatePool",
      "outputs": [],
      "stateMutability": "nonpayable",
      "type": "function"
    },
    {
      "inputs": [
        {
          "internalType": "uint256",
          "name": "_pid",
          "type": "uint256"
        }
      ],
      "name": "updatePoolReward",
      "outputs": [],
      "stateMutability": "nonpayable",
      "type": "function"
    },
    {
      "inputs": [
        {
          "internalType": "uint256",
          "name": "",
          "type": "uint256"
        },
        {
          "internalType": "address",
          "name": "",
          "type": "address"
        }
      ],
      "name": "userInfo",
      "outputs": [
        {
          "internalType": "uint256",
          "name": "amount",
          "type": "uint256"
        },
        {
          "internalType": "uint256",
          "name": "rewardDebt",
          "type": "uint256"
        },
        {
          "internalType": "uint256",
          "name": "lastStakeTime",
          "type": "uint256"
        },
        {
          "internalType": "uint256",
          "name": "totalRewardsClaimed",
          "type": "uint256"
        }
      ],
      "stateMutability": "view",
      "type": "function"
    },
    {
      "inputs": [
        {
          "internalType": "uint256",
          "name": "_pid",
          "type": "uint256"
        },
        {
          "internalType": "uint256",
          "name": "_amount",
          "type": "uint256"
        }
      ],
      "name": "withdraw",
      "outputs": [],
      "stateMutability": "nonpayable",
      "type": "function"
    }
  ],
  "bytecode": "0x60a06040523480156200001157600080fd5b5060405162001fa038038062001fa08339810160408190526200003491620000ed565b600160005533806200006057604051631e4fbdf760e01b81526000600482015260240160405180910390fd5b6200006b816200009b565b506001600160a01b038316608052600482905580156200008c57806200008e565b425b6006555062000132915050565b600180546001600160a01b038381166001600160a01b0319831681179093556040519116919082907f8be0079c531659141344cd1fd0a4f28419497f9722a3daafe3b4186f6b6457e090600090a35050565b6000806000606084860312156200010357600080fd5b83516001600160a01b03811681146200011b57600080fd5b602085015160409095015190969495509392505050565b608051611e366200016a60003960008181610468015281816106e10152818161197a01528181611a1d0152611ab70152611e366000f3fe608060405234801561001057600080fd5b50600436106101c45760003560e01c806378e97925116100f957806398969e8211610097578063d9a8944c11610071578063d9a8944c1461042a578063e2bbb1581461043d578063f2fde38b14610450578063f7c618c11461046357600080fd5b806398969e82146103f1578063ae169a5014610404578063b6d9d9191461041757600080fd5b80638f10369a116100d35780638f10369a1461036357806392fea6101461036c57806393f1a40b1461037f5780639593c06c146103de57600080fd5b806378e979251461032d5780638456cb59146103365780638da5cb5b1461033e57600080fd5b8063441a3e70116101665780635c975abb116101405780635c975abb146102ed578063630b5ba11461030a57806366da581514610312578063715018a61461032557600080fd5b8063441a3e70146102a75780635312ea8e146102ba5780635aeaaed4146102cd57600080fd5b806317caf6f1116101a257806317caf6f1146102755780633279beab1461027e5780633d6aa5e1146102935780633f4ba83a1461029f57600080fd5b8063081e3eda146101c95780631069f3b5146101e05780631526fe271461021b575b600080fd5b6002545b6040519081526020015b60405180910390f35b6101f36101ee366004611bec565b61048a565b604080519586526020860194909452928401919091526060830152608082015260a0016101d7565b61022e610229366004611c18565b610674565b604080516001600160a01b0390991689526020890197909752958701949094526060860192909252608085015260a084015260c0830152151560e0820152610100016101d7565b6101cd60055481565b61029161028c366004611c18565b6106d7565b005b6101cd64e8d4a5100081565b610291610795565b6102916102b5366004611c31565b6107a7565b6102916102c8366004611c18565b610a80565b6101cd6102db366004611c18565b60076020526000908152604090205481565b600154600160a01b900460ff1660405190151581526020016101d7565b610291610c10565b610291610320366004611c18565b610c2f565b610291610c44565b6101cd60065481565b610291610c56565b6001546001600160a01b03165b6040516001600160a01b0390911681526020016101d7565b6101cd60045481565b61029161037a366004611c18565b610c66565b6103be61038d366004611bec565b6003602081815260009384526040808520909152918352912080546001820154600283015492909301549092919084565b6040805194855260208501939093529183015260608201526080016101d7565b6102916103ec366004611c61565b610d8e565b6101cd6103ff366004611bec565b610efa565b610291610412366004611c18565b6110f7565b610291610425366004611cae565b611263565b610291610438366004611c31565b61151a565b61029161044b366004611c31565b611555565b61029161045e366004611cf4565b61187b565b61034b7f000000000000000000000000000000000000000000000000000000000000000081565b60008281526003602081815260408084206001600160a01b0386168552825280842081516080810183528154808252600183015494820185905260028084015494830185905292909501546060820181905282549596949593949093909283918a9081106104fa576104fa611d16565b60009182526020918290206040805161010081018252600890930290910180546001600160a01b03168352600181015493830193909352600283015490820181905260038301546060830181905260048401546080840152600584015460a0840152600684015460c084015260079093015460ff16151560e08301529092504211801561058a5750608082015115155b801561059a575060008260200151115b156106385760008260400151426105b19190611d42565b905060006005548460200151600454846105cb9190611d55565b6105d59190611d55565b6105df9190611d6c565b60008d8152600760205260409020549091506064906105fe9083611d55565b6106089190611d6c565b608085015190915061061f64e8d4a5100083611d55565b6106299190611d6c565b6106339084611d8e565b925050505b6020830151835164e8d4a5100090610651908490611d55565b61065b9190611d6c565b6106659190611d42565b93505050509295509295909350565b6002818154811061068457600080fd5b6000918252602090912060089091020180546001820154600283015460038401546004850154600586015460068701546007909701546001600160a01b0390961697509395929491939092909160ff1688565b6106df6118b6565b7f00000000000000000000000000000000000000000000000000000000000000006001600160a01b031663a9059cbb6107206001546001600160a01b031690565b6040516001600160e01b031960e084901b1681526001600160a01b039091166004820152602481018490526044016020604051808303816000875af115801561076d573d6000803e3d6000fd5b505050506040513d601f19601f820116820180604052508101906107919190611da1565b5050565b61079d6118b6565b6107a56118e3565b565b6107af611938565b60025482106107d95760405162461bcd60e51b81526004016107d090611dbe565b60405180910390fd5b6000600283815481106107ee576107ee611d16565b60009182526020808320868452600382526040808520338652909252922080546008909202909201925083111561085e5760405162461bcd60e51b8152602060048201526014602482015273496e73756666696369656e742062616c616e636560601b60448201526064016107d0565b6006820154156108cb578160060154816002015461087c9190611d8e565b4210156108cb5760405162461bcd60e51b815260206004820152601760248201527f546f6b656e7320617265207374696c6c206c6f636b656400000000000000000060448201526064016107d0565b6108d484610c66565b6000816001015464e8d4a51000846003015484600001546108f59190611d55565b6108ff9190611d6c565b6109099190611d42565b9050801561096c5761091b3382611962565b8082600301600082825461092f9190611d8e565b9091555050604051818152859033907ff01da32686223933d8a18a391060918c7f11a3648639edd87ae013e2e27317439060200160405180910390a35b838260000160008282546109809190611d42565b90915550506003830154825464e8d4a510009161099c91611d55565b6109a69190611d6c565b8260010181905550838360040160008282546109c29190611d42565b9091555050825460405163a9059cbb60e01b8152336004820152602481018690526001600160a01b039091169063a9059cbb906044016020604051808303816000875af1158015610a17573d6000803e3d6000fd5b505050506040513d601f19601f82011682018060405250810190610a3b9190611da1565b50604051848152859033907ff279e6a1f5e320cca91135676d9cb6e44ca8a08c0b88342bcdb1144f6511b5689060200160405180910390a35050506107916001600055565b610a88611938565b6002548110610aa95760405162461bcd60e51b81526004016107d090611dbe565b600060028281548110610abe57610abe611d16565b60009182526020808320858452600382526040808520338652909252922080546008909202909201925080610b2e5760405162461bcd60e51b81526020600482015260166024820152754e6f2062616c616e636520746f20776974686472617760501b60448201526064016107d0565b600080835560018301819055600484018054839290610b4e908490611d42565b9091555050825460405163a9059cbb60e01b8152336004820152602481018390526001600160a01b039091169063a9059cbb906044016020604051808303816000875af1158015610ba3573d6000803e3d6000fd5b505050506040513d601f19601f82011682018060405250810190610bc79190611da1565b50604051818152849033907fbb757047c2b5f3974fe26b7c10f732e7bce710b0952a71082702781e62ae0595906020015b60405180910390a3505050610c0d6001600055565b50565b60025460005b8181101561079157610c2781610c66565b600101610c16565b610c376118b6565b610c3f610c10565b600455565b610c4c6118b6565b6107a56000611ae6565b610c5e6118b6565b6107a5611b38565b6002548110610c875760405162461bcd60e51b81526004016107d090611dbe565b600060028281548110610c9c57610c9c611d16565b9060005260206000209060080201905080600201544211610cbb575050565b60048101541580610cce57506001810154155b15610cdd574260029091015550565b6000816002015442610cef9190611d42565b90506000600554836001015460045484610d099190611d55565b610d139190611d55565b610d1d9190611d6c565b600085815260076020526040902054909150606490610d3c9083611d55565b610d469190611d6c565b6004840154909150610d5d64e8d4a5100083611d55565b610d679190611d6c565b836003016000828254610d7a9190611d8e565b909155505042600290930192909255505050565b610d966118b6565b6002548510610db75760405162461bcd60e51b81526004016107d090611dbe565b610dbf610c10565b8360028681548110610dd357610dd3611d16565b906000526020600020906008020160010154600554610df29190611d42565b610dfc9190611d8e565b6005819055508360028681548110610e1657610e16611d16565b9060005260206000209060080201600101819055508260028681548110610e3f57610e3f611d16565b9060005260206000209060080201600501819055508160028681548110610e6857610e68611d16565b9060005260206000209060080201600601819055508060028681548110610e9157610e91611d16565b906000526020600020906008020160070160006101000a81548160ff021916908315150217905550847f7fa9647ec1cc14e3822b46d05a2b9d4e019bde8875c0088c46b6503d71bf172285604051610eeb91815260200190565b60405180910390a25050505050565b6002546000908310610f1e5760405162461bcd60e51b81526004016107d090611dbe565b600060028481548110610f3357610f33611d16565b600091825260208083206040805161010081018252600890940290910180546001600160a01b039081168552600180830154868601526002808401548786019081526003808601546060808b0191825260048801546080808d0191909152600589015460a08d0152600689015460c08d015260079098015460ff16151560e08c01528f8c52828a52888c20968f168c52958952998790208751968701885280548752938401549786019790975290820154948401949094529093015492810192909252925192519193509190421180156110105750608083015115155b8015611020575060008360200151115b156110be5760008360400151426110379190611d42565b905060006005548560200151600454846110519190611d55565b61105b9190611d55565b6110659190611d6c565b6000898152600760205260409020549091506064906110849083611d55565b61108e9190611d6c565b60808601519091506110a564e8d4a5100083611d55565b6110af9190611d6c565b6110b99084611d8e565b925050505b6020820151825164e8d4a51000906110d7908490611d55565b6110e19190611d6c565b6110eb9190611d42565b93505050505b92915050565b6110ff611938565b60025481106111205760405162461bcd60e51b81526004016107d090611dbe565b60006002828154811061113557611135611d16565b6000918252602080832085845260038252604080852033865290925292206008909102909101915061116683610c66565b6000816001015464e8d4a51000846003015484600001546111879190611d55565b6111919190611d6c565b61119b9190611d42565b9050600081116111e25760405162461bcd60e51b81526020600482015260126024820152714e6f2072657761726420746f20636c61696d60701b60448201526064016107d0565b6003830154825464e8d4a51000916111f991611d55565b6112039190611d6c565b82600101819055508082600301600082825461121f9190611d8e565b9091555061122f90503382611962565b604051818152849033907ff01da32686223933d8a18a391060918c7f11a3648639edd87ae013e2e273174390602001610bf8565b61126b6118b6565b6001600160a01b0385166112c15760405162461bcd60e51b815260206004820152601860248201527f496e76616c6964204c5020746f6b656e2061646472657373000000000000000060448201526064016107d0565b80156112cf576112cf610c10565b600060065442116112e2576006546112e4565b425b905084600560008282546112f89190611d8e565b909155505060408051610100810182526001600160a01b038881168252602082018881529282018481526000606084018181526080850182815260a086018b815260c087018b8152600160e089018181526002805480840182558189529a517f405787fa12a823e0f2b7631cc41b3ba8828b3321ca811111fa75cd3aa3bb5ace6008909c029b8c0180546001600160a01b03191691909b161790995599517f405787fa12a823e0f2b7631cc41b3ba8828b3321ca811111fa75cd3aa3bb5acf8a015595517f405787fa12a823e0f2b7631cc41b3ba8828b3321ca811111fa75cd3aa3bb5ad089015592517f405787fa12a823e0f2b7631cc41b3ba8828b3321ca811111fa75cd3aa3bb5ad188015590517f405787fa12a823e0f2b7631cc41b3ba8828b3321ca811111fa75cd3aa3bb5ad2870155517f405787fa12a823e0f2b7631cc41b3ba8828b3321ca811111fa75cd3aa3bb5ad3860155517f405787fa12a823e0f2b7631cc41b3ba8828b3321ca811111fa75cd3aa3bb5ad485015593517f405787fa12a823e0f2b7631cc41b3ba8828b3321ca811111fa75cd3aa3bb5ad5909301805460ff191693151593909317909255546114b79190611d42565b6000818152600760209081526040918290206064905581516001600160a01b038b16815290810189905291925082917f6c5d0ef1d0199b6de41ecbce95f59643be4d723ca363faf92d756e61e82fb13e910160405180910390a250505050505050565b6115226118b6565b60025482106115435760405162461bcd60e51b81526004016107d090611dbe565b60009182526007602052604090912055565b61155d611938565b611565611b7b565b60025482106115865760405162461bcd60e51b81526004016107d090611dbe565b600081116115d65760405162461bcd60e51b815260206004820152601d60248201527f416d6f756e74206d7573742062652067726561746572207468616e203000000060448201526064016107d0565b6000600283815481106115eb576115eb611d16565b600091825260208083208684526003825260408085203386529092529220600760089092029092019081015490925060ff1661165e5760405162461bcd60e51b8152602060048201526012602482015271506f6f6c206973206e6f742061637469766560701b60448201526064016107d0565b81600501548310156116b25760405162461bcd60e51b815260206004820152601a60248201527f416d6f756e742062656c6f77206d696e696d756d207374616b6500000000000060448201526064016107d0565b6116bb84610c66565b80541561175c576000816001015464e8d4a51000846003015484600001546116e39190611d55565b6116ed9190611d6c565b6116f79190611d42565b9050801561175a576117093382611962565b8082600301600082825461171d9190611d8e565b9091555050604051818152859033907ff01da32686223933d8a18a391060918c7f11a3648639edd87ae013e2e27317439060200160405180910390a35b505b81546040516323b872dd60e01b8152336004820152306024820152604481018590526001600160a01b03909116906323b872dd906064016020604051808303816000875af11580156117b2573d6000803e3d6000fd5b505050506040513d601f19601f820116820180604052508101906117d69190611da1565b50828160000160008282546117eb9190611d8e565b90915550504260028201556003820154815464e8d4a510009161180d91611d55565b6118179190611d6c565b8160010181905550828260040160008282546118339190611d8e565b9091555050604051838152849033907f90890809c654f11d6e72a28fa60149770a0d11ec6c92319d6ceb2bb0a4ea1a159060200160405180910390a350506107916001600055565b6118836118b6565b6001600160a01b0381166118ad57604051631e4fbdf760e01b8152600060048201526024016107d0565b610c0d81611ae6565b6001546001600160a01b031633146107a55760405163118cdaa760e01b81523360048201526024016107d0565b6118eb611ba6565b6001805460ff60a01b191690557f5db9ee0a495bf2e6ff9c91a7834c1ba4fdd244a5e8aa4e537bd38aeae4b073aa335b6040516001600160a01b03909116815260200160405180910390a1565b60026000540361195b57604051633ee5aeb560e01b815260040160405180910390fd5b6002600055565b6040516370a0823160e01b81523060048201526000907f00000000000000000000000000000000000000000000000000000000000000006001600160a01b0316906370a0823190602401602060405180830381865afa1580156119c9573d6000803e3d6000fd5b505050506040513d601f19601f820116820180604052508101906119ed9190611de7565b905080821115611a915760405163a9059cbb60e01b81526001600160a01b038481166004830152602482018390527f0000000000000000000000000000000000000000000000000000000000000000169063a9059cbb906044015b6020604051808303816000875af1158015611a67573d6000803e3d6000fd5b505050506040513d601f19601f82011682018060405250810190611a8b9190611da1565b50505050565b60405163a9059cbb60e01b81526001600160a01b038481166004830152602482018490527f0000000000000000000000000000000000000000000000000000000000000000169063a9059cbb90604401611a48565b600180546001600160a01b038381166001600160a01b0319831681179093556040519116919082907f8be0079c531659141344cd1fd0a4f28419497f9722a3daafe3b4186f6b6457e090600090a35050565b611b40611b7b565b6001805460ff60a01b1916600160a01b1790557f62e78cea01bee320cd4e420270b5ea74000d11b0c9f74754ebdbfc544b05a25861191b3390565b600154600160a01b900460ff16156107a55760405163d93c066560e01b815260040160405180910390fd5b600154600160a01b900460ff166107a557604051638dfc202b60e01b815260040160405180910390fd5b80356001600160a01b0381168114611be757600080fd5b919050565b60008060408385031215611bff57600080fd5b82359150611c0f60208401611bd0565b90509250929050565b600060208284031215611c2a57600080fd5b5035919050565b60008060408385031215611c4457600080fd5b50508035926020909101359150565b8015158114610c0d57600080fd5b600080600080600060a08688031215611c7957600080fd5b853594506020860135935060408601359250606086013591506080860135611ca081611c53565b809150509295509295909350565b600080600080600060a08688031215611cc657600080fd5b611ccf86611bd0565b94506020860135935060408601359250606086013591506080860135611ca081611c53565b600060208284031215611d0657600080fd5b611d0f82611bd0565b9392505050565b634e487b7160e01b600052603260045260246000fd5b634e487b7160e01b600052601160045260246000fd5b818103818111156110f1576110f1611d2c565b80820281158282048414176110f1576110f1611d2c565b600082611d8957634e487b7160e01b600052601260045260246000fd5b500490565b808201808211156110f1576110f1611d2c565b600060208284031215611db357600080fd5b8151611d0f81611c53565b6020808252600f908201526e125b9d985b1a59081c1bdbdb081251608a1b604082015260600190565b600060208284031215611df957600080fd5b505191905056fea2646970667358221220a93054629075936e5cd62fb69383b0c133a93a354ff8f0a489d26864aee2437364736f6c63430008180033",
  "linkReferences": {},
  "deployedLinkReferences": {}
}