{
  "_format": "hh-sol-artifact-1",
  "contractName": "XPSwapFlashLoanSecurity",
  "sourceName": "contracts/XPSwapFlashLoanSecurity.sol",
  "abi": [
    {
      "inputs": [],
      "stateMutability": "nonpayable",
      "type": "constructor"
    },
    {
      "inputs": [
        {
          "internalType": "address",
          "name": "owner",
          "type": "address"
        }
      ],
      "name": "OwnableInvalidOwner",
      "type": "error"
    },
    {
      "inputs": [
        {
          "internalType": "address",
          "name": "account",
          "type": "address"
        }
      ],
      "name": "OwnableUnauthorizedAccount",
      "type": "error"
    },
    {
      "inputs": [],
      "name": "ReentrancyGuardReentrantCall",
      "type": "error"
    },
    {
      "anonymous": false,
      "inputs": [
        {
          "indexed": true,
          "internalType": "address",
          "name": "borrower",
          "type": "address"
        },
        {
          "indexed": true,
          "internalType": "address",
          "name": "asset",
          "type": "address"
        },
        {
          "indexed": false,
          "internalType": "uint256",
          "name": "amount",
          "type": "uint256"
        },
        {
          "indexed": false,
          "internalType": "uint256",
          "name": "fee",
          "type": "uint256"
        }
      ],
      "name": "FlashLoan",
      "type": "event"
    },
    {
      "anonymous": false,
      "inputs": [
        {
          "indexed": true,
          "internalType": "address",
          "name": "previousOwner",
          "type": "address"
        },
        {
          "indexed": true,
          "internalType": "address",
          "name": "newOwner",
          "type": "address"
        }
      ],
      "name": "OwnershipTransferred",
      "type": "event"
    },
    {
      "inputs": [],
      "name": "COOLDOWN_PERIOD",
      "outputs": [
        {
          "internalType": "uint256",
          "name": "",
          "type": "uint256"
        }
      ],
      "stateMutability": "view",
      "type": "function"
    },
    {
      "inputs": [],
      "name": "FLASH_LOAN_FEE",
      "outputs": [
        {
          "internalType": "uint256",
          "name": "",
          "type": "uint256"
        }
      ],
      "stateMutability": "view",
      "type": "function"
    },
    {
      "inputs": [
        {
          "internalType": "address",
          "name": "",
          "type": "address"
        }
      ],
      "name": "authorizedCallers",
      "outputs": [
        {
          "internalType": "bool",
          "name": "",
          "type": "bool"
        }
      ],
      "stateMutability": "view",
      "type": "function"
    },
    {
      "inputs": [
        {
          "internalType": "address",
          "name": "",
          "type": "address"
        }
      ],
      "name": "cooldowns",
      "outputs": [
        {
          "internalType": "uint256",
          "name": "",
          "type": "uint256"
        }
      ],
      "stateMutability": "view",
      "type": "function"
    },
    {
      "inputs": [
        {
          "internalType": "address",
          "name": "asset",
          "type": "address"
        },
        {
          "internalType": "uint256",
          "name": "amount",
          "type": "uint256"
        },
        {
          "internalType": "bytes",
          "name": "data",
          "type": "bytes"
        }
      ],
      "name": "executeFlashLoan",
      "outputs": [],
      "stateMutability": "nonpayable",
      "type": "function"
    },
    {
      "inputs": [],
      "name": "owner",
      "outputs": [
        {
          "internalType": "address",
          "name": "",
          "type": "address"
        }
      ],
      "stateMutability": "view",
      "type": "function"
    },
    {
      "inputs": [],
      "name": "renounceOwnership",
      "outputs": [],
      "stateMutability": "nonpayable",
      "type": "function"
    },
    {
      "inputs": [
        {
          "internalType": "address",
          "name": "caller",
          "type": "address"
        },
        {
          "internalType": "bool",
          "name": "authorized",
          "type": "bool"
        }
      ],
      "name": "setAuthorizedCaller",
      "outputs": [],
      "stateMutability": "nonpayable",
      "type": "function"
    },
    {
      "inputs": [
        {
          "internalType": "address",
          "name": "newOwner",
          "type": "address"
        }
      ],
      "name": "transferOwnership",
      "outputs": [],
      "stateMutability": "nonpayable",
      "type": "function"
    }
  ],
  "bytecode": "0x608060405234801561001057600080fd5b506001600055338061003c57604051631e4fbdf760e01b81526000600482015260240160405180910390fd5b6100458161004b565b5061009d565b600180546001600160a01b038381166001600160a01b0319831681179093556040519116919082907f8be0079c531659141344cd1fd0a4f28419497f9722a3daafe3b4186f6b6457e090600090a35050565b610818806100ac6000396000f3fe608060405234801561001057600080fd5b50600436106100935760003560e01c8063715018a611610066578063715018a61461011c5780638da5cb5b146101245780638ffaacaa1461013f578063f2fde38b14610147578063f3df12531461015a57600080fd5b806301320fe214610098578063454bbd29146100cb578063536fff6c146100e05780636e99d52f14610113575b600080fd5b6100b86100a6366004610646565b60036020526000908152604090205481565b6040519081526020015b60405180910390f35b6100de6100d9366004610676565b61016d565b005b6101036100ee366004610646565b60026020526000908152604090205460ff1681565b60405190151581526020016100c2565b6100b861025881565b6100de6101a0565b6001546040516001600160a01b0390911681526020016100c2565b6100b8600981565b6100de610155366004610646565b6101b4565b6100de6101683660046106ad565b6101f7565b610175610581565b6001600160a01b03919091166000908152600260205260409020805460ff1916911515919091179055565b6101a8610581565b6101b260006105ae565b565b6101bc610581565b6001600160a01b0381166101eb57604051631e4fbdf760e01b8152600060048201526024015b60405180910390fd5b6101f4816105ae565b50565b6101ff610600565b3360009081526002602052604090205460ff1661024d5760405162461bcd60e51b815260206004820152600c60248201526b155b985d5d1a1bdc9a5e995960a21b60448201526064016101e2565b3360009081526003602052604090205461026a906102589061074a565b4210156102ab5760405162461bcd60e51b815260206004820152600f60248201526e436f6f6c646f776e2061637469766560881b60448201526064016101e2565b60006127106102bb600986610763565b6102c5919061077a565b6040516370a0823160e01b81523060048201529091506000906001600160a01b038716906370a0823190602401602060405180830381865afa15801561030f573d6000803e3d6000fd5b505050506040513d601f19601f82011682018060405250810190610333919061079c565b60405163a9059cbb60e01b8152336004820152602481018790529091506001600160a01b0387169063a9059cbb906044016020604051808303816000875af1158015610383573d6000803e3d6000fd5b505050506040513d601f19601f820116820180604052508101906103a791906107b5565b506000336001600160a01b031685856040516103c49291906107d2565b6000604051808303816000865af19150503d8060008114610401576040519150601f19603f3d011682016040523d82523d6000602084013e610406565b606091505b50509050806104575760405162461bcd60e51b815260206004820152601b60248201527f466c617368206c6f616e20657865637574696f6e206661696c6564000000000060448201526064016101e2565b6040516370a0823160e01b81523060048201526000906001600160a01b038916906370a0823190602401602060405180830381865afa15801561049e573d6000803e3d6000fd5b505050506040513d601f19601f820116820180604052508101906104c2919061079c565b90506104ce848461074a565b8110156105155760405162461bcd60e51b8152602060048201526015602482015274119b185cda081b1bd85b881b9bdd081c995c185a59605a1b60448201526064016101e2565b3360008181526003602090815260409182902042905581518a81529081018790526001600160a01b038b1692917f0d7d75e01ab95780d3cd1c8ec0dd6c2ce19e3a20427eec8bf53283b6fb8e95f0910160405180910390a35050505061057b6001600055565b50505050565b6001546001600160a01b031633146101b25760405163118cdaa760e01b81523360048201526024016101e2565b600180546001600160a01b038381166001600160a01b0319831681179093556040519116919082907f8be0079c531659141344cd1fd0a4f28419497f9722a3daafe3b4186f6b6457e090600090a35050565b60026000540361062357604051633ee5aeb560e01b815260040160405180910390fd5b6002600055565b80356001600160a01b038116811461064157600080fd5b919050565b60006020828403121561065857600080fd5b6106618261062a565b9392505050565b80151581146101f457600080fd5b6000806040838503121561068957600080fd5b6106928361062a565b915060208301356106a281610668565b809150509250929050565b600080600080606085870312156106c357600080fd5b6106cc8561062a565b935060208501359250604085013567ffffffffffffffff808211156106f057600080fd5b818701915087601f83011261070457600080fd5b81358181111561071357600080fd5b88602082850101111561072557600080fd5b95989497505060200194505050565b634e487b7160e01b600052601160045260246000fd5b8082018082111561075d5761075d610734565b92915050565b808202811582820484141761075d5761075d610734565b60008261079757634e487b7160e01b600052601260045260246000fd5b500490565b6000602082840312156107ae57600080fd5b5051919050565b6000602082840312156107c757600080fd5b815161066181610668565b818382376000910190815291905056fea2646970667358221220a4952fd4199661e8277803236314ef5133159148113590e38d00639589177a8764736f6c63430008180033",
  "linkReferences": {},
  "deployedLinkReferences": {}
}