{
  "_format": "hh-sol-artifact-1",
  "contractName": "XpSwapStaking",
  "sourceName": "contracts/XpSwapStaking.sol",
  "abi": [
    {
      "inputs": [
        {
          "internalType": "address",
          "name": "_stakingToken",
          "type": "address"
        },
        {
          "internalType": "uint256",
          "name": "_rewardPerSecond",
          "type": "uint256"
        }
      ],
      "stateMutability": "nonpayable",
      "type": "constructor"
    },
    {
      "inputs": [],
      "name": "EnforcedPause",
      "type": "error"
    },
    {
      "inputs": [],
      "name": "ExpectedPause",
      "type": "error"
    },
    {
      "inputs": [
        {
          "internalType": "address",
          "name": "owner",
          "type": "address"
        }
      ],
      "name": "OwnableInvalidOwner",
      "type": "error"
    },
    {
      "inputs": [
        {
          "internalType": "address",
          "name": "account",
          "type": "address"
        }
      ],
      "name": "OwnableUnauthorizedAccount",
      "type": "error"
    },
    {
      "inputs": [],
      "name": "ReentrancyGuardReentrantCall",
      "type": "error"
    },
    {
      "anonymous": false,
      "inputs": [
        {
          "indexed": true,
          "internalType": "address",
          "name": "previousOwner",
          "type": "address"
        },
        {
          "indexed": true,
          "internalType": "address",
          "name": "newOwner",
          "type": "address"
        }
      ],
      "name": "OwnershipTransferred",
      "type": "event"
    },
    {
      "anonymous": false,
      "inputs": [
        {
          "indexed": false,
          "internalType": "address",
          "name": "account",
          "type": "address"
        }
      ],
      "name": "Paused",
      "type": "event"
    },
    {
      "anonymous": false,
      "inputs": [
        {
          "indexed": true,
          "internalType": "address",
          "name": "user",
          "type": "address"
        },
        {
          "indexed": false,
          "internalType": "uint256",
          "name": "reward",
          "type": "uint256"
        }
      ],
      "name": "RewardClaimed",
      "type": "event"
    },
    {
      "anonymous": false,
      "inputs": [
        {
          "indexed": false,
          "internalType": "uint256",
          "name": "oldRate",
          "type": "uint256"
        },
        {
          "indexed": false,
          "internalType": "uint256",
          "name": "newRate",
          "type": "uint256"
        }
      ],
      "name": "RewardRateUpdated",
      "type": "event"
    },
    {
      "anonymous": false,
      "inputs": [
        {
          "indexed": true,
          "internalType": "address",
          "name": "user",
          "type": "address"
        },
        {
          "indexed": false,
          "internalType": "uint256",
          "name": "amount",
          "type": "uint256"
        },
        {
          "indexed": false,
          "internalType": "uint256",
          "name": "lockPeriod",
          "type": "uint256"
        }
      ],
      "name": "Staked",
      "type": "event"
    },
    {
      "anonymous": false,
      "inputs": [
        {
          "indexed": false,
          "internalType": "address",
          "name": "account",
          "type": "address"
        }
      ],
      "name": "Unpaused",
      "type": "event"
    },
    {
      "anonymous": false,
      "inputs": [
        {
          "indexed": true,
          "internalType": "address",
          "name": "user",
          "type": "address"
        },
        {
          "indexed": false,
          "internalType": "uint256",
          "name": "amount",
          "type": "uint256"
        }
      ],
      "name": "Unstaked",
      "type": "event"
    },
    {
      "inputs": [],
      "name": "REWARD_PRECISION",
      "outputs": [
        {
          "internalType": "uint256",
          "name": "",
          "type": "uint256"
        }
      ],
      "stateMutability": "view",
      "type": "function"
    },
    {
      "inputs": [],
      "name": "accRewardPerShare",
      "outputs": [
        {
          "internalType": "uint256",
          "name": "",
          "type": "uint256"
        }
      ],
      "stateMutability": "view",
      "type": "function"
    },
    {
      "inputs": [],
      "name": "claimReward",
      "outputs": [],
      "stateMutability": "nonpayable",
      "type": "function"
    },
    {
      "inputs": [
        {
          "internalType": "address",
          "name": "_token",
          "type": "address"
        },
        {
          "internalType": "uint256",
          "name": "_amount",
          "type": "uint256"
        }
      ],
      "name": "emergencyWithdraw",
      "outputs": [],
      "stateMutability": "nonpayable",
      "type": "function"
    },
    {
      "inputs": [
        {
          "internalType": "address",
          "name": "_user",
          "type": "address"
        }
      ],
      "name": "getUserStakeInfo",
      "outputs": [
        {
          "internalType": "uint256",
          "name": "amount",
          "type": "uint256"
        },
        {
          "internalType": "uint256",
          "name": "stakingTime",
          "type": "uint256"
        },
        {
          "internalType": "uint256",
          "name": "lockPeriod",
          "type": "uint256"
        },
        {
          "internalType": "uint256",
          "name": "unlockTime",
          "type": "uint256"
        },
        {
          "internalType": "uint256",
          "name": "pendingRewards",
          "type": "uint256"
        }
      ],
      "stateMutability": "view",
      "type": "function"
    },
    {
      "inputs": [],
      "name": "lastRewardTime",
      "outputs": [
        {
          "internalType": "uint256",
          "name": "",
          "type": "uint256"
        }
      ],
      "stateMutability": "view",
      "type": "function"
    },
    {
      "inputs": [
        {
          "internalType": "uint256",
          "name": "",
          "type": "uint256"
        }
      ],
      "name": "lockPeriodRewards",
      "outputs": [
        {
          "internalType": "uint256",
          "name": "",
          "type": "uint256"
        }
      ],
      "stateMutability": "view",
      "type": "function"
    },
    {
      "inputs": [],
      "name": "owner",
      "outputs": [
        {
          "internalType": "address",
          "name": "",
          "type": "address"
        }
      ],
      "stateMutability": "view",
      "type": "function"
    },
    {
      "inputs": [],
      "name": "pause",
      "outputs": [],
      "stateMutability": "nonpayable",
      "type": "function"
    },
    {
      "inputs": [],
      "name": "paused",
      "outputs": [
        {
          "internalType": "bool",
          "name": "",
          "type": "bool"
        }
      ],
      "stateMutability": "view",
      "type": "function"
    },
    {
      "inputs": [
        {
          "internalType": "address",
          "name": "_user",
          "type": "address"
        }
      ],
      "name": "pendingReward",
      "outputs": [
        {
          "internalType": "uint256",
          "name": "",
          "type": "uint256"
        }
      ],
      "stateMutability": "view",
      "type": "function"
    },
    {
      "inputs": [],
      "name": "renounceOwnership",
      "outputs": [],
      "stateMutability": "nonpayable",
      "type": "function"
    },
    {
      "inputs": [],
      "name": "rewardPerSecond",
      "outputs": [
        {
          "internalType": "uint256",
          "name": "",
          "type": "uint256"
        }
      ],
      "stateMutability": "view",
      "type": "function"
    },
    {
      "inputs": [],
      "name": "rewardRate",
      "outputs": [
        {
          "internalType": "uint256",
          "name": "",
          "type": "uint256"
        }
      ],
      "stateMutability": "view",
      "type": "function"
    },
    {
      "inputs": [
        {
          "internalType": "uint256",
          "name": "_lockPeriod",
          "type": "uint256"
        },
        {
          "internalType": "uint256",
          "name": "_rewardRate",
          "type": "uint256"
        }
      ],
      "name": "setLockPeriodReward",
      "outputs": [],
      "stateMutability": "nonpayable",
      "type": "function"
    },
    {
      "inputs": [
        {
          "internalType": "uint256",
          "name": "_rewardPerSecond",
          "type": "uint256"
        }
      ],
      "name": "setRewardRate",
      "outputs": [],
      "stateMutability": "nonpayable",
      "type": "function"
    },
    {
      "inputs": [
        {
          "internalType": "uint256",
          "name": "_amount",
          "type": "uint256"
        },
        {
          "internalType": "uint256",
          "name": "_lockPeriod",
          "type": "uint256"
        }
      ],
      "name": "stake",
      "outputs": [],
      "stateMutability": "nonpayable",
      "type": "function"
    },
    {
      "inputs": [
        {
          "internalType": "address",
          "name": "",
          "type": "address"
        }
      ],
      "name": "stakes",
      "outputs": [
        {
          "internalType": "uint256",
          "name": "amount",
          "type": "uint256"
        },
        {
          "internalType": "uint256",
          "name": "rewardDebt",
          "type": "uint256"
        },
        {
          "internalType": "uint256",
          "name": "stakingTime",
          "type": "uint256"
        },
        {
          "internalType": "uint256",
          "name": "lockPeriod",
          "type": "uint256"
        }
      ],
      "stateMutability": "view",
      "type": "function"
    },
    {
      "inputs": [],
      "name": "stakingToken",
      "outputs": [
        {
          "internalType": "contract IERC20",
          "name": "",
          "type": "address"
        }
      ],
      "stateMutability": "view",
      "type": "function"
    },
    {
      "inputs": [],
      "name": "totalStaked",
      "outputs": [
        {
          "internalType": "uint256",
          "name": "",
          "type": "uint256"
        }
      ],
      "stateMutability": "view",
      "type": "function"
    },
    {
      "inputs": [
        {
          "internalType": "address",
          "name": "newOwner",
          "type": "address"
        }
      ],
      "name": "transferOwnership",
      "outputs": [],
      "stateMutability": "nonpayable",
      "type": "function"
    },
    {
      "inputs": [],
      "name": "unpause",
      "outputs": [],
      "stateMutability": "nonpayable",
      "type": "function"
    },
    {
      "inputs": [
        {
          "internalType": "uint256",
          "name": "_amount",
          "type": "uint256"
        }
      ],
      "name": "unstake",
      "outputs": [],
      "stateMutability": "nonpayable",
      "type": "function"
    },
    {
      "inputs": [],
      "name": "updateReward",
      "outputs": [],
      "stateMutability": "nonpayable",
      "type": "function"
    }
  ],
  "bytecode": "0x60a0604052606460055534801561001557600080fd5b5060405161147338038061147383398101604081905261003491610198565b6001600055338061005f57604051631e4fbdf760e01b81526000600482015260240160405180910390fd5b61006881610146565b506001600160a01b0390911660805260085542600755600360205260647f3617319a054d772f909f7c479a2cebe5066e836a939412e32403c99029b92eff5561012c7f6117fee2f1274e1b392d2c3fe842478040a980d896757f38cbfe2ceebfa9f55f556103207f3219ed562b3fd9188a49dd9a57bec5aecadcb61ea33f29053262442c210d825f556105dc7f3803eb3ad32319afb811b1ed93c96ec4bdf98bf0a9358801efe0713a54aa4f195561016d6000526109c47fd884e5b0e4d84f92cdd6484ba3abb6370e267f2b09aa13614f6a41f90e2690f9556101d2565b600180546001600160a01b038381166001600160a01b0319831681179093556040519116919082907f8be0079c531659141344cd1fd0a4f28419497f9722a3daafe3b4186f6b6457e090600090a35050565b600080604083850312156101ab57600080fd5b82516001600160a01b03811681146101c257600080fd5b6020939093015192949293505050565b6080516112636102106000396000818161022a01528181610525015281816105bd015281816107cc015281816108af0152610be201526112636000f3fe608060405234801561001057600080fd5b50600436106101585760003560e01c80638da5cb5b116100c3578063b88a802f1161007c578063b88a802f146102e3578063c32d3ae2146102eb578063e2feb98a14610326578063f2fde38b14610346578063f36c0a7214610359578063f40f0f521461036157600080fd5b80638da5cb5b146102915780638f10369a146102a25780639231cf74146102ab578063939d6237146102b457806395ccea67146102bd5780639e447fc6146102d057600080fd5b8063715018a611610115578063715018a61461021d57806372f702f3146102255780637b0472f0146102645780637b0a47ee14610277578063817b1cd2146102805780638456cb591461028957600080fd5b806316934fc41461015d5780632a956c13146101b95780632e17de78146101ce5780633d6aa5e1146101e15780633f4ba83a146101f85780635c975abb14610200575b600080fd5b61019461016b366004611109565b600260208190526000918252604090912080546001820154928201546003909201549092919084565b6040805194855260208501939093529183015260608201526080015b60405180910390f35b6101cc6101c736600461112b565b610374565b005b6101cc6101dc36600461114d565b61038e565b6101ea61271081565b6040519081526020016101b0565b6101cc6106ad565b600154600160a01b900460ff1660405190151581526020016101b0565b6101cc6106bf565b61024c7f000000000000000000000000000000000000000000000000000000000000000081565b6040516001600160a01b0390911681526020016101b0565b6101cc61027236600461112b565b6106d1565b6101ea60055481565b6101ea60045481565b6101cc610a0b565b6001546001600160a01b031661024c565b6101ea60085481565b6101ea60075481565b6101ea60065481565b6101cc6102cb366004611166565b610a1b565b6101cc6102de36600461114d565b610aba565b6101cc610b0b565b6102fe6102f9366004611109565b610c99565b604080519586526020860194909452928401919091526060830152608082015260a0016101b0565b6101ea61033436600461114d565b60036020526000908152604090205481565b6101cc610354366004611109565b610dbd565b6101cc610df8565b6101ea61036f366004611109565b610e72565b61037c610f57565b60009182526003602052604090912055565b610396610f84565b33600090815260026020526040902080548211156103fb5760405162461bcd60e51b815260206004820152601a60248201527f496e73756666696369656e74207374616b656420616d6f756e7400000000000060448201526064015b60405180910390fd5b60038101541561047557600381015461041790620151806111a6565b816002015461042691906111c3565b4210156104755760405162461bcd60e51b815260206004820152601760248201527f546f6b656e7320617265207374696c6c206c6f636b656400000000000000000060448201526064016103f2565b61047d610df8565b6000816001015464e8d4a51000600654846000015461049c91906111a6565b6104a691906111d6565b6104b091906111f8565b9050828260000160008282546104c691906111f8565b9091555050600654825464e8d4a51000916104e0916111a6565b6104ea91906111d6565b8260010181905550826004600082825461050491906111f8565b909155505060405163a9059cbb60e01b8152336004820152602481018490527f00000000000000000000000000000000000000000000000000000000000000006001600160a01b03169063a9059cbb906044016020604051808303816000875af1158015610576573d6000803e3d6000fd5b505050506040513d601f19601f8201168201806040525081019061059a919061120b565b5080156106695760405163a9059cbb60e01b8152336004820152602481018290527f00000000000000000000000000000000000000000000000000000000000000006001600160a01b03169063a9059cbb906044016020604051808303816000875af115801561060e573d6000803e3d6000fd5b505050506040513d601f19601f82011682018060405250810190610632919061120b565b5060405181815233907f106f923f993c2149d49b4255ff723acafa1f2d94393f561d3eda32ae348f72419060200160405180910390a25b60405183815233907f0f5bb82176feb1b5e747e28471aa92156a04d9f3ab9f45f28e2d704232b93f759060200160405180910390a250506106aa6001600055565b50565b6106b5610f57565b6106bd610fae565b565b6106c7610f57565b6106bd6000611003565b6106d9610f84565b6106e1611055565b600082116107315760405162461bcd60e51b815260206004820152601d60248201527f416d6f756e74206d7573742062652067726561746572207468616e203000000060448201526064016103f2565b80158061073e575080601e145b80610749575080605a145b8061075457508060b4145b8061076057508061016d145b6107a25760405162461bcd60e51b8152602060048201526013602482015272125b9d985b1a59081b1bd8dac81c195c9a5bd9606a1b60448201526064016103f2565b6107aa610df8565b6040516323b872dd60e01b8152336004820152306024820152604481018390527f00000000000000000000000000000000000000000000000000000000000000006001600160a01b0316906323b872dd906064016020604051808303816000875af115801561081d573d6000803e3d6000fd5b505050506040513d601f19601f82011682018060405250810190610841919061120b565b5033600090815260026020526040902080541561095d576000816001015464e8d4a51000600654846000015461087791906111a6565b61088191906111d6565b61088b91906111f8565b9050801561095b5760405163a9059cbb60e01b8152336004820152602481018290527f00000000000000000000000000000000000000000000000000000000000000006001600160a01b03169063a9059cbb906044016020604051808303816000875af1158015610900573d6000803e3d6000fd5b505050506040513d601f19601f82011682018060405250810190610924919061120b565b5060405181815233907f106f923f993c2149d49b4255ff723acafa1f2d94393f561d3eda32ae348f72419060200160405180910390a25b505b8281600001600082825461097191906111c3565b909155505042600282015560038101829055600654815464e8d4a5100091610998916111a6565b6109a291906111d6565b816001018190555082600460008282546109bc91906111c3565b9091555050604080518481526020810184905233917f1449c6dd7851abc30abf37f57715f492010519147cc2652fbc38202c18a6ee90910160405180910390a250610a076001600055565b5050565b610a13610f57565b6106bd611080565b610a23610f57565b816001600160a01b031663a9059cbb610a446001546001600160a01b031690565b6040516001600160e01b031960e084901b1681526001600160a01b039091166004820152602481018490526044016020604051808303816000875af1158015610a91573d6000803e3d6000fd5b505050506040513d601f19601f82011682018060405250810190610ab5919061120b565b505050565b610ac2610f57565b610aca610df8565b600881905560408051828152602081018390527fc390a98ace15a7bb6bab611eedfdbb2685043b241a869420043cdfb23ccfee50910160405180910390a150565b610b13610f84565b610b1b610df8565b3360009081526002602052604081206001810154600654825492939264e8d4a5100091610b47916111a6565b610b5191906111d6565b610b5b91906111f8565b905060008111610ba25760405162461bcd60e51b81526020600482015260126024820152714e6f2072657761726420746f20636c61696d60701b60448201526064016103f2565b600654825464e8d4a5100091610bb7916111a6565b610bc191906111d6565b600183015560405163a9059cbb60e01b8152336004820152602481018290527f00000000000000000000000000000000000000000000000000000000000000006001600160a01b03169063a9059cbb906044016020604051808303816000875af1158015610c33573d6000803e3d6000fd5b505050506040513d601f19601f82011682018060405250810190610c57919061120b565b5060405181815233907f106f923f993c2149d49b4255ff723acafa1f2d94393f561d3eda32ae348f72419060200160405180910390a250506106bd6001600055565b6001600160a01b03811660009081526002602081815260408084208151608081018352815480825260018301549482019490945293810154918401829052600301546060840181905291939092819083610cf4576000610d15565b6060810151610d0690620151806111a6565b8160400151610d1591906111c3565b6006546007549194509042118015610d2e575060045415155b15610d8357600060075442610d4391906111f8565b9050600060085482610d5591906111a6565b600454909150610d6a8264e8d4a510006111a6565b610d7491906111d6565b610d7e90846111c3565b925050505b6020820151825164e8d4a5100090610d9c9084906111a6565b610da691906111d6565b610db091906111f8565b9250505091939590929450565b610dc5610f57565b6001600160a01b038116610def57604051631e4fbdf760e01b8152600060048201526024016103f2565b6106aa81611003565b6007544211610e0357565b600454600003610e135742600755565b600060075442610e2391906111f8565b9050600060085482610e3591906111a6565b600454909150610e4a8264e8d4a510006111a6565b610e5491906111d6565b60066000828254610e6591906111c3565b9091555050426007555050565b6001600160a01b03811660009081526002602081815260408084208151608081018352815481526001820154938101939093529283015490820152600390910154606082015260065460075442118015610ecd575060045415155b15610f2257600060075442610ee291906111f8565b9050600060085482610ef491906111a6565b600454909150610f098264e8d4a510006111a6565b610f1391906111d6565b610f1d90846111c3565b925050505b6020820151825164e8d4a5100090610f3b9084906111a6565b610f4591906111d6565b610f4f91906111f8565b949350505050565b6001546001600160a01b031633146106bd5760405163118cdaa760e01b81523360048201526024016103f2565b600260005403610fa757604051633ee5aeb560e01b815260040160405180910390fd5b6002600055565b610fb66110c3565b6001805460ff60a01b191690557f5db9ee0a495bf2e6ff9c91a7834c1ba4fdd244a5e8aa4e537bd38aeae4b073aa335b6040516001600160a01b03909116815260200160405180910390a1565b600180546001600160a01b038381166001600160a01b0319831681179093556040519116919082907f8be0079c531659141344cd1fd0a4f28419497f9722a3daafe3b4186f6b6457e090600090a35050565b600154600160a01b900460ff16156106bd5760405163d93c066560e01b815260040160405180910390fd5b611088611055565b6001805460ff60a01b1916600160a01b1790557f62e78cea01bee320cd4e420270b5ea74000d11b0c9f74754ebdbfc544b05a258610fe63390565b600154600160a01b900460ff166106bd57604051638dfc202b60e01b815260040160405180910390fd5b80356001600160a01b038116811461110457600080fd5b919050565b60006020828403121561111b57600080fd5b611124826110ed565b9392505050565b6000806040838503121561113e57600080fd5b50508035926020909101359150565b60006020828403121561115f57600080fd5b5035919050565b6000806040838503121561117957600080fd5b611182836110ed565b946020939093013593505050565b634e487b7160e01b600052601160045260246000fd5b80820281158282048414176111bd576111bd611190565b92915050565b808201808211156111bd576111bd611190565b6000826111f357634e487b7160e01b600052601260045260246000fd5b500490565b818103818111156111bd576111bd611190565b60006020828403121561121d57600080fd5b8151801515811461112457600080fdfea264697066735822122010e9fc22a509a2e831d1ab271e32d253b2e9827513f03160749449f3117a380864736f6c63430008180033",
  "linkReferences": {},
  "deployedLinkReferences": {}
}