{
  "_format": "hh-sol-artifact-1",
  "contractName": "XpSwapRevenueManager",
  "sourceName": "contracts/XpSwapRevenueManager.sol",
  "abi": [
    {
      "inputs": [
        {
          "internalType": "address",
          "name": "_feeRecipient",
          "type": "address"
        }
      ],
      "stateMutability": "nonpayable",
      "type": "constructor"
    },
    {
      "inputs": [],
      "name": "EnforcedPause",
      "type": "error"
    },
    {
      "inputs": [],
      "name": "ExpectedPause",
      "type": "error"
    },
    {
      "inputs": [
        {
          "internalType": "address",
          "name": "owner",
          "type": "address"
        }
      ],
      "name": "OwnableInvalidOwner",
      "type": "error"
    },
    {
      "inputs": [
        {
          "internalType": "address",
          "name": "account",
          "type": "address"
        }
      ],
      "name": "OwnableUnauthorizedAccount",
      "type": "error"
    },
    {
      "inputs": [],
      "name": "ReentrancyGuardReentrantCall",
      "type": "error"
    },
    {
      "anonymous": false,
      "inputs": [
        {
          "indexed": false,
          "internalType": "address",
          "name": "token",
          "type": "address"
        },
        {
          "indexed": false,
          "internalType": "uint256",
          "name": "platformFee",
          "type": "uint256"
        },
        {
          "indexed": false,
          "internalType": "uint256",
          "name": "burnAmount",
          "type": "uint256"
        }
      ],
      "name": "FeesDistributed",
      "type": "event"
    },
    {
      "anonymous": false,
      "inputs": [
        {
          "indexed": true,
          "internalType": "address",
          "name": "previousOwner",
          "type": "address"
        },
        {
          "indexed": true,
          "internalType": "address",
          "name": "newOwner",
          "type": "address"
        }
      ],
      "name": "OwnershipTransferred",
      "type": "event"
    },
    {
      "anonymous": false,
      "inputs": [
        {
          "indexed": false,
          "internalType": "address",
          "name": "account",
          "type": "address"
        }
      ],
      "name": "Paused",
      "type": "event"
    },
    {
      "anonymous": false,
      "inputs": [
        {
          "indexed": true,
          "internalType": "address",
          "name": "stakeHolder",
          "type": "address"
        },
        {
          "indexed": false,
          "internalType": "address",
          "name": "token",
          "type": "address"
        },
        {
          "indexed": false,
          "internalType": "uint256",
          "name": "amount",
          "type": "uint256"
        }
      ],
      "name": "PayoutClaimed",
      "type": "event"
    },
    {
      "anonymous": false,
      "inputs": [
        {
          "indexed": true,
          "internalType": "uint256",
          "name": "streamId",
          "type": "uint256"
        },
        {
          "indexed": false,
          "internalType": "uint256",
          "name": "amount",
          "type": "uint256"
        }
      ],
      "name": "RevenueDistributed",
      "type": "event"
    },
    {
      "anonymous": false,
      "inputs": [
        {
          "indexed": true,
          "internalType": "uint256",
          "name": "streamId",
          "type": "uint256"
        },
        {
          "indexed": false,
          "internalType": "uint256",
          "name": "amount",
          "type": "uint256"
        }
      ],
      "name": "RevenueReceived",
      "type": "event"
    },
    {
      "anonymous": false,
      "inputs": [
        {
          "indexed": true,
          "internalType": "uint256",
          "name": "streamId",
          "type": "uint256"
        },
        {
          "indexed": false,
          "internalType": "string",
          "name": "name",
          "type": "string"
        },
        {
          "indexed": false,
          "internalType": "address",
          "name": "token",
          "type": "address"
        }
      ],
      "name": "RevenueStreamAdded",
      "type": "event"
    },
    {
      "anonymous": false,
      "inputs": [
        {
          "indexed": true,
          "internalType": "address",
          "name": "stakeHolder",
          "type": "address"
        },
        {
          "indexed": false,
          "internalType": "uint256",
          "name": "sharePercentage",
          "type": "uint256"
        }
      ],
      "name": "StakeHolderAdded",
      "type": "event"
    },
    {
      "anonymous": false,
      "inputs": [
        {
          "indexed": true,
          "internalType": "address",
          "name": "stakeHolder",
          "type": "address"
        },
        {
          "indexed": false,
          "internalType": "uint256",
          "name": "newSharePercentage",
          "type": "uint256"
        }
      ],
      "name": "StakeHolderUpdated",
      "type": "event"
    },
    {
      "anonymous": false,
      "inputs": [
        {
          "indexed": false,
          "internalType": "address",
          "name": "account",
          "type": "address"
        }
      ],
      "name": "Unpaused",
      "type": "event"
    },
    {
      "inputs": [
        {
          "internalType": "string",
          "name": "_name",
          "type": "string"
        },
        {
          "internalType": "address",
          "name": "_token",
          "type": "address"
        }
      ],
      "name": "addRevenueStream",
      "outputs": [
        {
          "internalType": "uint256",
          "name": "",
          "type": "uint256"
        }
      ],
      "stateMutability": "nonpayable",
      "type": "function"
    },
    {
      "inputs": [
        {
          "internalType": "address",
          "name": "_stakeHolder",
          "type": "address"
        },
        {
          "internalType": "uint256",
          "name": "_sharePercentage",
          "type": "uint256"
        },
        {
          "internalType": "address",
          "name": "_payoutAddress",
          "type": "address"
        }
      ],
      "name": "addStakeHolder",
      "outputs": [],
      "stateMutability": "nonpayable",
      "type": "function"
    },
    {
      "inputs": [],
      "name": "burnAddress",
      "outputs": [
        {
          "internalType": "address",
          "name": "",
          "type": "address"
        }
      ],
      "stateMutability": "view",
      "type": "function"
    },
    {
      "inputs": [],
      "name": "burnRate",
      "outputs": [
        {
          "internalType": "uint256",
          "name": "",
          "type": "uint256"
        }
      ],
      "stateMutability": "view",
      "type": "function"
    },
    {
      "inputs": [],
      "name": "claimAllPayouts",
      "outputs": [],
      "stateMutability": "nonpayable",
      "type": "function"
    },
    {
      "inputs": [
        {
          "internalType": "uint256",
          "name": "_streamId",
          "type": "uint256"
        }
      ],
      "name": "claimPayout",
      "outputs": [],
      "stateMutability": "nonpayable",
      "type": "function"
    },
    {
      "inputs": [
        {
          "internalType": "uint256",
          "name": "",
          "type": "uint256"
        },
        {
          "internalType": "address",
          "name": "",
          "type": "address"
        }
      ],
      "name": "claimableAmount",
      "outputs": [
        {
          "internalType": "uint256",
          "name": "",
          "type": "uint256"
        }
      ],
      "stateMutability": "view",
      "type": "function"
    },
    {
      "inputs": [
        {
          "internalType": "uint256",
          "name": "_streamId",
          "type": "uint256"
        }
      ],
      "name": "distributeRevenue",
      "outputs": [],
      "stateMutability": "nonpayable",
      "type": "function"
    },
    {
      "inputs": [
        {
          "internalType": "address",
          "name": "_token",
          "type": "address"
        },
        {
          "internalType": "uint256",
          "name": "_amount",
          "type": "uint256"
        }
      ],
      "name": "emergencyWithdraw",
      "outputs": [],
      "stateMutability": "nonpayable",
      "type": "function"
    },
    {
      "inputs": [],
      "name": "feeRecipient",
      "outputs": [
        {
          "internalType": "address",
          "name": "",
          "type": "address"
        }
      ],
      "stateMutability": "view",
      "type": "function"
    },
    {
      "inputs": [
        {
          "internalType": "uint256",
          "name": "_streamId",
          "type": "uint256"
        },
        {
          "internalType": "address",
          "name": "_stakeholder",
          "type": "address"
        }
      ],
      "name": "getClaimableAmount",
      "outputs": [
        {
          "internalType": "uint256",
          "name": "",
          "type": "uint256"
        }
      ],
      "stateMutability": "view",
      "type": "function"
    },
    {
      "inputs": [
        {
          "internalType": "uint256",
          "name": "_streamId",
          "type": "uint256"
        }
      ],
      "name": "getRevenueStreamInfo",
      "outputs": [
        {
          "internalType": "string",
          "name": "name",
          "type": "string"
        },
        {
          "internalType": "address",
          "name": "token",
          "type": "address"
        },
        {
          "internalType": "uint256",
          "name": "totalRevenue",
          "type": "uint256"
        },
        {
          "internalType": "uint256",
          "name": "distributedRevenue",
          "type": "uint256"
        },
        {
          "internalType": "uint256",
          "name": "availableRevenue",
          "type": "uint256"
        },
        {
          "internalType": "uint256",
          "name": "lastDistributionTime",
          "type": "uint256"
        },
        {
          "internalType": "bool",
          "name": "active",
          "type": "bool"
        }
      ],
      "stateMutability": "view",
      "type": "function"
    },
    {
      "inputs": [
        {
          "internalType": "address",
          "name": "_stakeholder",
          "type": "address"
        }
      ],
      "name": "getTotalClaimableAmount",
      "outputs": [
        {
          "internalType": "uint256",
          "name": "total",
          "type": "uint256"
        }
      ],
      "stateMutability": "view",
      "type": "function"
    },
    {
      "inputs": [],
      "name": "owner",
      "outputs": [
        {
          "internalType": "address",
          "name": "",
          "type": "address"
        }
      ],
      "stateMutability": "view",
      "type": "function"
    },
    {
      "inputs": [],
      "name": "pause",
      "outputs": [],
      "stateMutability": "nonpayable",
      "type": "function"
    },
    {
      "inputs": [],
      "name": "paused",
      "outputs": [
        {
          "internalType": "bool",
          "name": "",
          "type": "bool"
        }
      ],
      "stateMutability": "view",
      "type": "function"
    },
    {
      "inputs": [],
      "name": "platformFeeRate",
      "outputs": [
        {
          "internalType": "uint256",
          "name": "",
          "type": "uint256"
        }
      ],
      "stateMutability": "view",
      "type": "function"
    },
    {
      "inputs": [
        {
          "internalType": "uint256",
          "name": "_streamId",
          "type": "uint256"
        },
        {
          "internalType": "uint256",
          "name": "_amount",
          "type": "uint256"
        }
      ],
      "name": "recordRevenue",
      "outputs": [],
      "stateMutability": "nonpayable",
      "type": "function"
    },
    {
      "inputs": [],
      "name": "renounceOwnership",
      "outputs": [],
      "stateMutability": "nonpayable",
      "type": "function"
    },
    {
      "inputs": [
        {
          "internalType": "uint256",
          "name": "",
          "type": "uint256"
        }
      ],
      "name": "revenueStreams",
      "outputs": [
        {
          "internalType": "string",
          "name": "name",
          "type": "string"
        },
        {
          "internalType": "address",
          "name": "token",
          "type": "address"
        },
        {
          "internalType": "uint256",
          "name": "totalRevenue",
          "type": "uint256"
        },
        {
          "internalType": "uint256",
          "name": "distributedRevenue",
          "type": "uint256"
        },
        {
          "internalType": "uint256",
          "name": "lastDistributionTime",
          "type": "uint256"
        },
        {
          "internalType": "bool",
          "name": "active",
          "type": "bool"
        }
      ],
      "stateMutability": "view",
      "type": "function"
    },
    {
      "inputs": [
        {
          "internalType": "uint256",
          "name": "_newRate",
          "type": "uint256"
        }
      ],
      "name": "setBurnRate",
      "outputs": [],
      "stateMutability": "nonpayable",
      "type": "function"
    },
    {
      "inputs": [
        {
          "internalType": "address",
          "name": "_newRecipient",
          "type": "address"
        }
      ],
      "name": "setFeeRecipient",
      "outputs": [],
      "stateMutability": "nonpayable",
      "type": "function"
    },
    {
      "inputs": [
        {
          "internalType": "uint256",
          "name": "_newRate",
          "type": "uint256"
        }
      ],
      "name": "setPlatformFeeRate",
      "outputs": [],
      "stateMutability": "nonpayable",
      "type": "function"
    },
    {
      "inputs": [
        {
          "internalType": "uint256",
          "name": "_streamId",
          "type": "uint256"
        },
        {
          "internalType": "bool",
          "name": "_active",
          "type": "bool"
        }
      ],
      "name": "setStreamActive",
      "outputs": [],
      "stateMutability": "nonpayable",
      "type": "function"
    },
    {
      "inputs": [
        {
          "internalType": "uint256",
          "name": "",
          "type": "uint256"
        }
      ],
      "name": "stakeHolderList",
      "outputs": [
        {
          "internalType": "address",
          "name": "",
          "type": "address"
        }
      ],
      "stateMutability": "view",
      "type": "function"
    },
    {
      "inputs": [
        {
          "internalType": "address",
          "name": "",
          "type": "address"
        }
      ],
      "name": "stakeHolders",
      "outputs": [
        {
          "internalType": "uint256",
          "name": "sharePercentage",
          "type": "uint256"
        },
        {
          "internalType": "address",
          "name": "payoutAddress",
          "type": "address"
        },
        {
          "internalType": "uint256",
          "name": "totalPaidOut",
          "type": "uint256"
        },
        {
          "internalType": "bool",
          "name": "active",
          "type": "bool"
        }
      ],
      "stateMutability": "view",
      "type": "function"
    },
    {
      "inputs": [],
      "name": "streamCount",
      "outputs": [
        {
          "internalType": "uint256",
          "name": "",
          "type": "uint256"
        }
      ],
      "stateMutability": "view",
      "type": "function"
    },
    {
      "inputs": [
        {
          "internalType": "address",
          "name": "",
          "type": "address"
        }
      ],
      "name": "tokenRevenue",
      "outputs": [
        {
          "internalType": "uint256",
          "name": "",
          "type": "uint256"
        }
      ],
      "stateMutability": "view",
      "type": "function"
    },
    {
      "inputs": [
        {
          "internalType": "address",
          "name": "",
          "type": "address"
        }
      ],
      "name": "totalDistributed",
      "outputs": [
        {
          "internalType": "uint256",
          "name": "",
          "type": "uint256"
        }
      ],
      "stateMutability": "view",
      "type": "function"
    },
    {
      "inputs": [],
      "name": "totalSharePercentage",
      "outputs": [
        {
          "internalType": "uint256",
          "name": "",
          "type": "uint256"
        }
      ],
      "stateMutability": "view",
      "type": "function"
    },
    {
      "inputs": [
        {
          "internalType": "address",
          "name": "newOwner",
          "type": "address"
        }
      ],
      "name": "transferOwnership",
      "outputs": [],
      "stateMutability": "nonpayable",
      "type": "function"
    },
    {
      "inputs": [],
      "name": "unpause",
      "outputs": [],
      "stateMutability": "nonpayable",
      "type": "function"
    },
    {
      "inputs": [
        {
          "internalType": "address",
          "name": "_stakeHolder",
          "type": "address"
        },
        {
          "internalType": "uint256",
          "name": "_newSharePercentage",
          "type": "uint256"
        },
        {
          "internalType": "address",
          "name": "_newPayoutAddress",
          "type": "address"
        }
      ],
      "name": "updateStakeHolder",
      "outputs": [],
      "stateMutability": "nonpayable",
      "type": "function"
    }
  ],
  "bytecode": "0x608060405261012c6008556064600955600b80546001600160a01b03191661dead1790553480156200003057600080fd5b50604051620023dc380380620023dc83398101604081905262000053916200015c565b600160005533806200008057604051631e4fbdf760e01b8152600060048201526024015b60405180910390fd5b6200008b816200010a565b506001600160a01b038116620000e45760405162461bcd60e51b815260206004820152601560248201527f496e76616c69642066656520726563697069656e740000000000000000000000604482015260640162000077565b600a80546001600160a01b0319166001600160a01b03929092169190911790556200018e565b600180546001600160a01b038381166001600160a01b0319831681179093556040519116919082907f8be0079c531659141344cd1fd0a4f28419497f9722a3daafe3b4186f6b6457e090600090a35050565b6000602082840312156200016f57600080fd5b81516001600160a01b03811681146200018757600080fd5b9392505050565b61223e806200019e6000396000f3fe608060405234801561001057600080fd5b50600436106101fb5760003560e01c806389d0e1191161011a578063bed99850116100ad578063e26ff10a1161007c578063e26ff10a1461043e578063e74b981b146104ab578063eeca08f0146104be578063f2fde38b146104c7578063f311df8e146104da57600080fd5b8063bed99850146103fc578063c4828fc214610405578063dbdcbc3614610418578063e19f5bad1461042b57600080fd5b8063927fef2e116100e9578063927fef2e1461039e57806395ccea67146103b1578063b0747a3d146103c4578063be0e4f6f146103e957600080fd5b806389d0e119146103515780638a69614e1461035a5780638b8dfa391461036d5780638da5cb5b1461038d57600080fd5b80635c975abb11610192578063715018a611610161578063715018a61461032557806371b7b24e1461032d57806378c5195e146103365780638456cb591461034957600080fd5b80635c975abb146102bc578063605d52eb146102d9578063633c4054146102ec57806370d5ae051461031257600080fd5b80633925754e116101ce5780633925754e146102435780633f4ba83a14610276578063469048401461027e57806359fde1e0146102a957600080fd5b80630768341e14610200578063189d165e146102155780631b833f0614610228578063239e82081461023b575b600080fd5b61021361020e366004611cd6565b610505565b005b610213610223366004611d12565b6107ee565b610213610236366004611d2b565b61084d565b610213610a22565b610263610251366004611d4d565b600c6020526000908152604090205481565b6040519081526020015b60405180910390f35b610213610c46565b600a54610291906001600160a01b031681565b6040516001600160a01b03909116815260200161026d565b6102136102b7366004611d12565b610c56565b600154600160a01b900460ff16604051901515815260200161026d565b6102636102e7366004611d4d565b610d59565b6102ff6102fa366004611d12565b610da4565b60405161026d9796959493929190611db5565b600b54610291906001600160a01b031681565b610213610ecd565b61026360075481565b610263610344366004611e04565b610edf565b610213610f09565b61026360065481565b610213610368366004611d12565b610f19565b61026361037b366004611d4d565b600d6020526000908152604090205481565b6001546001600160a01b0316610291565b6102136103ac366004611d12565b611127565b6102136103bf366004611e30565b611186565b6103d76103d2366004611d12565b611220565b60405161026d96959493929190611e5a565b6102136103f7366004611eaf565b6112ea565b61026360095481565b610263610413366004611ef5565b611336565b610213610426366004611cd6565b6114e7565b610291610439366004611d12565b6116b6565b61048161044c366004611d4d565b6003602081905260009182526040909120805460018201546002830154929093015490926001600160a01b0316919060ff1684565b604080519485526001600160a01b039093166020850152918301521515606082015260800161026d565b6102136104b9366004611d4d565b6116e0565b61026360085481565b6102136104d5366004611d4d565b611760565b6102636104e8366004611e04565b600460209081526000928352604080842090915290825290205481565b61050d61179b565b6001600160a01b0383166105685760405162461bcd60e51b815260206004820152601b60248201527f496e76616c6964207374616b65686f6c6465722061646472657373000000000060448201526064015b60405180910390fd5b6001600160a01b0381166105b75760405162461bcd60e51b8152602060048201526016602482015275496e76616c6964207061796f7574206164647265737360501b604482015260640161055f565b600082116106175760405162461bcd60e51b815260206004820152602760248201527f53686172652070657263656e74616765206d75737420626520677265617465726044820152660207468616e20360cc1b606482015260840161055f565b612710826007546106289190611fc4565b11156106715760405162461bcd60e51b8152602060048201526018602482015277546f74616c2073686172652065786365656473203130302560401b604482015260640161055f565b6001600160a01b0383166000908152600360208190526040909120015460ff16156106de5760405162461bcd60e51b815260206004820152601a60248201527f5374616b65686f6c64657220616c726561647920657869737473000000000000604482015260640161055f565b604080516080810182528381526001600160a01b03808416602080840191825260008486018181526001606087018181528b87168085526003958690529884209751885594518782018054919097166001600160a01b03199182161790965590516002870155925194909101805494151560ff199095169490941790935560058054918201815583527f036b6384b5eca791c62761152d0c79bb0604c104a5fb6f4eb0703f3154bb3db0018054909116909217909155600780548492906107a6908490611fc4565b90915550506040518281526001600160a01b038416907fc91c06db85d8cc30ee257c03be3e37e93d6c6f9492491ecd357b5b38f970efeb9060200160405180910390a2505050565b6107f661179b565b6101f48111156108485760405162461bcd60e51b815260206004820152601a60248201527f4275726e20726174652063616e6e6f7420657863656564203525000000000000604482015260640161055f565b600955565b600654821061086e5760405162461bcd60e51b815260040161055f90611fd7565b600081116108be5760405162461bcd60e51b815260206004820152601d60248201527f416d6f756e74206d7573742062652067726561746572207468616e2030000000604482015260640161055f565b6000828152600260205260409020600581015460ff166109175760405162461bcd60e51b815260206004820152601460248201527353747265616d206973206e6f742061637469766560601b604482015260640161055f565b60018101546040516323b872dd60e01b8152336004820152306024820152604481018490526001600160a01b03909116906323b872dd906064016020604051808303816000875af1158015610970573d6000803e3d6000fd5b505050506040513d601f19601f820116820180604052508101906109949190612002565b50818160020160008282546109a99190611fc4565b909155505060018101546001600160a01b03166000908152600c6020526040812080548492906109da908490611fc4565b909155505060405182815283907ff213ae9678e29ddf71cfd6bb58204207ac2f5a37f62a198ca6bc86737f0158689060200160405180910390a2610a1d836117c8565b505050565b610a2a61183c565b336000908152600360208190526040909120015460ff16610a815760405162461bcd60e51b81526020600482015260116024820152702737ba10309039ba30b5b2b437b63232b960791b604482015260640161055f565b336000908152600360205260408120600101546001600160a01b031690805b600654811015610bc95760008181526004602090815260408083203384529091529020548015610bc057600082815260026020908152604080832060048352818420338552909252822091909155610af88285611fc4565b600182015460405163a9059cbb60e01b81526001600160a01b0388811660048301526024820186905292965091169063a9059cbb906044016020604051808303816000875af1158015610b4f573d6000803e3d6000fd5b505050506040513d601f19601f82011682018060405250810190610b739190612002565b506001810154604080516001600160a01b0390921682526020820184905233917f16b63aea592f9ff2536669385de33b0f5bdf01b81d2602c102556e57e5374ac7910160405180910390a2505b50600101610aa0565b5060008111610c105760405162461bcd60e51b8152602060048201526013602482015272139bc818db185a5b58589b1948185b5bdd5b9d606a1b604482015260640161055f565b3360009081526003602052604081206002018054839290610c32908490611fc4565b9091555050600160005550610c449050565b565b610c4e61179b565b610c44611866565b610c5e61183c565b6006548110610c7f5760405162461bcd60e51b815260040161055f90611fd7565b6000818152600260205260409020600581015460ff16610cd85760405162461bcd60e51b815260206004820152601460248201527353747265616d206973206e6f742061637469766560601b604482015260640161055f565b600081600301548260020154610cee919061201f565b905060008111610d405760405162461bcd60e51b815260206004820152601860248201527f4e6f20726576656e756520746f20646973747269627574650000000000000000604482015260640161055f565b610d4a83826118bb565b5050610d566001600055565b50565b6000805b600654811015610d9e5760008181526004602090815260408083206001600160a01b0387168452909152902054610d949083611fc4565b9150600101610d5d565b50919050565b60606000806000806000806006548810610dd05760405162461bcd60e51b815260040161055f90611fd7565b60008881526002602081905260409091206003810154918101549091610df59161201f565b60018201546002830154600384015460048501546005860154865495995086956001600160a01b03909516948a929160ff16908790610e3390612032565b80601f0160208091040260200160405190810160405280929190818152602001828054610e5f90612032565b8015610eac5780601f10610e8157610100808354040283529160200191610eac565b820191906000526020600020905b815481529060010190602001808311610e8f57829003601f168201915b50505050509650975097509750975097509750975050919395979092949650565b610ed561179b565b610c446000611bd0565b60008281526004602090815260408083206001600160a01b03851684529091529020545b92915050565b610f1161179b565b610c44611c22565b610f2161183c565b6006548110610f425760405162461bcd60e51b815260040161055f90611fd7565b336000908152600360208190526040909120015460ff16610f995760405162461bcd60e51b81526020600482015260116024820152702737ba10309039ba30b5b2b437b63232b960791b604482015260640161055f565b600081815260046020908152604080832033845290915290205480610ff65760405162461bcd60e51b8152602060048201526013602482015272139bc818db185a5b58589b1948185b5bdd5b9d606a1b604482015260640161055f565b600082815260026020818152604080842033808652600380855283872060018101548a8952600487528589209389529286529387208790559093529201805492936001600160a01b0390921692859290611051908490611fc4565b9091555050600182015460405163a9059cbb60e01b81526001600160a01b038381166004830152602482018690529091169063a9059cbb906044016020604051808303816000875af11580156110ab573d6000803e3d6000fd5b505050506040513d601f19601f820116820180604052508101906110cf9190612002565b506001820154604080516001600160a01b0390921682526020820185905233917f16b63aea592f9ff2536669385de33b0f5bdf01b81d2602c102556e57e5374ac7910160405180910390a2505050610d566001600055565b61112f61179b565b6103e88111156111815760405162461bcd60e51b815260206004820152601a60248201527f46656520726174652063616e6e6f742065786365656420313025000000000000604482015260640161055f565b600855565b61118e61179b565b816001600160a01b031663a9059cbb6111af6001546001600160a01b031690565b6040516001600160e01b031960e084901b1681526001600160a01b039091166004820152602481018490526044016020604051808303816000875af11580156111fc573d6000803e3d6000fd5b505050506040513d601f19601f82011682018060405250810190610a1d9190612002565b60026020526000908152604090208054819061123b90612032565b80601f016020809104026020016040519081016040528092919081815260200182805461126790612032565b80156112b45780601f10611289576101008083540402835291602001916112b4565b820191906000526020600020905b81548152906001019060200180831161129757829003601f168201915b505050600184015460028501546003860154600487015460059097015495966001600160a01b0390931695919450925060ff1686565b6112f261179b565b60065482106113135760405162461bcd60e51b815260040161055f90611fd7565b600091825260026020526040909120600501805460ff1916911515919091179055565b600061134061179b565b6001600160a01b03821661138e5760405162461bcd60e51b8152602060048201526015602482015274496e76616c696420746f6b656e206164647265737360581b604482015260640161055f565b60008351116113d65760405162461bcd60e51b81526020600482015260146024820152734e616d652063616e6e6f7420626520656d70747960601b604482015260640161055f565b60068054600091826113e783612066565b909155506040805160c0810182528681526001600160a01b038616602080830191909152600082840181905260608301819052426080840152600160a084015284815260029091529190912081519293509091819061144690826120cf565b5060208201516001820180546001600160a01b0319166001600160a01b039092169190911790556040808301516002830155606083015160038301556080830151600483015560a0909201516005909101805460ff19169115159190911790555181907f66cd71971bc25dc3c1980654103f4d6942e2acb4b0be253dc2457a1b3494a4d8906114d8908790879061218f565b60405180910390a29392505050565b6114ef61179b565b6001600160a01b0383166000908152600360208190526040909120015460ff1661155b5760405162461bcd60e51b815260206004820152601a60248201527f5374616b65686f6c64657220646f6573206e6f74206578697374000000000000604482015260640161055f565b6001600160a01b0381166115aa5760405162461bcd60e51b8152602060048201526016602482015275496e76616c6964207061796f7574206164647265737360501b604482015260640161055f565b6001600160a01b0383166000908152600360205260409020546007546127109084906115d790849061201f565b6115e19190611fc4565b111561162a5760405162461bcd60e51b8152602060048201526018602482015277546f74616c2073686172652065786365656473203130302560401b604482015260640161055f565b8281600754611639919061201f565b6116439190611fc4565b6007556001600160a01b0384811660008181526003602090815260409182902087815560010180546001600160a01b031916948716949094179093555185815290917f12f05bdcc50c36c3f1dfda4f6d9878b40f6e3ad1d9ecb160cca81b6e0ee8e206910160405180910390a250505050565b600581815481106116c657600080fd5b6000918252602090912001546001600160a01b0316905081565b6116e861179b565b6001600160a01b03811661173e5760405162461bcd60e51b815260206004820152601960248201527f496e76616c696420726563697069656e74206164647265737300000000000000604482015260640161055f565b600a80546001600160a01b0319166001600160a01b0392909216919091179055565b61176861179b565b6001600160a01b03811661179257604051631e4fbdf760e01b81526000600482015260240161055f565b610d5681611bd0565b6001546001600160a01b03163314610c445760405163118cdaa760e01b815233600482015260240161055f565b600081815260026020819052604082206003810154918101549092916117ed9161201f565b9050683635c9adc5dea0000062093a808183101580611826575060008311801561182657508084600401546118229190611fc4565b4210155b156118355761183585846118bb565b5050505050565b60026000540361185f57604051633ee5aeb560e01b815260040160405180910390fd5b6002600055565b61186e611c65565b6001805460ff60a01b191690557f5db9ee0a495bf2e6ff9c91a7834c1ba4fdd244a5e8aa4e537bd38aeae4b073aa335b6040516001600160a01b03909116815260200160405180910390a1565b6000828152600260205260408120600854909190612710906118dd90856121b9565b6118e791906121d0565b90506000612710600954856118fc91906121b9565b61190691906121d0565b9050600081611915848761201f565b61191f919061201f565b905060005b6005548110156119ed57600060058281548110611943576119436121f2565b60009182526020808320909101546001600160a01b03168083526003918290526040909220015490915060ff16156119e4576001600160a01b0381166000908152600360205260408120546127109061199c90866121b9565b6119a691906121d0565b60008a81526004602090815260408083206001600160a01b03871684529091528120805492935083929091906119dd908490611fc4565b9091555050505b50600101611924565b508215611a71576001840154600a5460405163a9059cbb60e01b81526001600160a01b0391821660048201526024810186905291169063a9059cbb906044016020604051808303816000875af1158015611a4b573d6000803e3d6000fd5b505050506040513d601f19601f82011682018060405250810190611a6f9190612002565b505b8115611af4576001840154600b5460405163a9059cbb60e01b81526001600160a01b0391821660048201526024810185905291169063a9059cbb906044016020604051808303816000875af1158015611ace573d6000803e3d6000fd5b505050506040513d601f19601f82011682018060405250810190611af29190612002565b505b84846003016000828254611b089190611fc4565b909155505042600485015560018401546001600160a01b03166000908152600d602052604081208054839290611b3f908490611fc4565b909155505060405185815286907ff2838e4b541f90d41a1076a560d75e948f7d1008e72118a655568626a30b451f9060200160405180910390a26001840154604080516001600160a01b0390921682526020820185905281018390527f85da6ab72d2b48932522aea80adb8ca4fab6cdeb87bc2e7f6c03fd78d3b2100e9060600160405180910390a1505050505050565b600180546001600160a01b038381166001600160a01b0319831681179093556040519116919082907f8be0079c531659141344cd1fd0a4f28419497f9722a3daafe3b4186f6b6457e090600090a35050565b611c2a611c8f565b6001805460ff60a01b1916600160a01b1790557f62e78cea01bee320cd4e420270b5ea74000d11b0c9f74754ebdbfc544b05a25861189e3390565b600154600160a01b900460ff16610c4457604051638dfc202b60e01b815260040160405180910390fd5b600154600160a01b900460ff1615610c445760405163d93c066560e01b815260040160405180910390fd5b80356001600160a01b0381168114611cd157600080fd5b919050565b600080600060608486031215611ceb57600080fd5b611cf484611cba565b925060208401359150611d0960408501611cba565b90509250925092565b600060208284031215611d2457600080fd5b5035919050565b60008060408385031215611d3e57600080fd5b50508035926020909101359150565b600060208284031215611d5f57600080fd5b611d6882611cba565b9392505050565b6000815180845260005b81811015611d9557602081850181015186830182015201611d79565b506000602082860101526020601f19601f83011685010191505092915050565b60e081526000611dc860e083018a611d6f565b6001600160a01b039890981660208301525060408101959095526060850193909352608084019190915260a0830152151560c090910152919050565b60008060408385031215611e1757600080fd5b82359150611e2760208401611cba565b90509250929050565b60008060408385031215611e4357600080fd5b611e4c83611cba565b946020939093013593505050565b60c081526000611e6d60c0830189611d6f565b6001600160a01b0397909716602083015250604081019490945260608401929092526080830152151560a090910152919050565b8015158114610d5657600080fd5b60008060408385031215611ec257600080fd5b823591506020830135611ed481611ea1565b809150509250929050565b634e487b7160e01b600052604160045260246000fd5b60008060408385031215611f0857600080fd5b823567ffffffffffffffff80821115611f2057600080fd5b818501915085601f830112611f3457600080fd5b813581811115611f4657611f46611edf565b604051601f8201601f19908116603f01168101908382118183101715611f6e57611f6e611edf565b81604052828152886020848701011115611f8757600080fd5b826020860160208301376000602084830101528096505050505050611e2760208401611cba565b634e487b7160e01b600052601160045260246000fd5b80820180821115610f0357610f03611fae565b602080825260119082015270125b9d985b1a59081cdd1c99585b481251607a1b604082015260600190565b60006020828403121561201457600080fd5b8151611d6881611ea1565b81810381811115610f0357610f03611fae565b600181811c9082168061204657607f821691505b602082108103610d9e57634e487b7160e01b600052602260045260246000fd5b60006001820161207857612078611fae565b5060010190565b601f821115610a1d576000816000526020600020601f850160051c810160208610156120a85750805b601f850160051c820191505b818110156120c7578281556001016120b4565b505050505050565b815167ffffffffffffffff8111156120e9576120e9611edf565b6120fd816120f78454612032565b8461207f565b602080601f831160018114612132576000841561211a5750858301515b600019600386901b1c1916600185901b1785556120c7565b600085815260208120601f198616915b8281101561216157888601518255948401946001909101908401612142565b508582101561217f5787850151600019600388901b60f8161c191681555b5050505050600190811b01905550565b6040815260006121a26040830185611d6f565b905060018060a01b03831660208301529392505050565b8082028115828204841417610f0357610f03611fae565b6000826121ed57634e487b7160e01b600052601260045260246000fd5b500490565b634e487b7160e01b600052603260045260246000fdfea2646970667358221220feb7af05f87a47f48de8fc826b3c67671563f4f19640e15925aa82ffbdc6014064736f6c63430008180033",
  "linkReferences": {},
  "deployedLinkReferences": {}
}