{
  "_format": "hh-sol-artifact-1",
  "contractName": "XpSwapCrosschainBridge",
  "sourceName": "contracts/XpSwapCrosschainBridge.sol",
  "abi": [
    {
      "inputs": [
        {
          "internalType": "address",
          "name": "_feeRecipient",
          "type": "address"
        },
        {
          "internalType": "uint256",
          "name": "_currentChainId",
          "type": "uint256"
        }
      ],
      "stateMutability": "nonpayable",
      "type": "constructor"
    },
    {
      "inputs": [],
      "name": "EnforcedPause",
      "type": "error"
    },
    {
      "inputs": [],
      "name": "ExpectedPause",
      "type": "error"
    },
    {
      "inputs": [
        {
          "internalType": "address",
          "name": "owner",
          "type": "address"
        }
      ],
      "name": "OwnableInvalidOwner",
      "type": "error"
    },
    {
      "inputs": [
        {
          "internalType": "address",
          "name": "account",
          "type": "address"
        }
      ],
      "name": "OwnableUnauthorizedAccount",
      "type": "error"
    },
    {
      "inputs": [],
      "name": "ReentrancyGuardReentrantCall",
      "type": "error"
    },
    {
      "anonymous": false,
      "inputs": [
        {
          "indexed": true,
          "internalType": "bytes32",
          "name": "txHash",
          "type": "bytes32"
        },
        {
          "indexed": true,
          "internalType": "address",
          "name": "recipient",
          "type": "address"
        },
        {
          "indexed": false,
          "internalType": "uint256",
          "name": "amount",
          "type": "uint256"
        }
      ],
      "name": "BridgeCompleted",
      "type": "event"
    },
    {
      "anonymous": false,
      "inputs": [
        {
          "indexed": true,
          "internalType": "bytes32",
          "name": "txHash",
          "type": "bytes32"
        },
        {
          "indexed": true,
          "internalType": "address",
          "name": "validator",
          "type": "address"
        },
        {
          "indexed": false,
          "internalType": "uint256",
          "name": "confirmations",
          "type": "uint256"
        }
      ],
      "name": "BridgeConfirmed",
      "type": "event"
    },
    {
      "anonymous": false,
      "inputs": [
        {
          "indexed": true,
          "internalType": "bytes32",
          "name": "txHash",
          "type": "bytes32"
        },
        {
          "indexed": false,
          "internalType": "string",
          "name": "reason",
          "type": "string"
        }
      ],
      "name": "BridgeFailed",
      "type": "event"
    },
    {
      "anonymous": false,
      "inputs": [
        {
          "indexed": true,
          "internalType": "bytes32",
          "name": "txHash",
          "type": "bytes32"
        },
        {
          "indexed": true,
          "internalType": "address",
          "name": "sender",
          "type": "address"
        },
        {
          "indexed": true,
          "internalType": "address",
          "name": "recipient",
          "type": "address"
        },
        {
          "indexed": false,
          "internalType": "address",
          "name": "fromToken",
          "type": "address"
        },
        {
          "indexed": false,
          "internalType": "address",
          "name": "toToken",
          "type": "address"
        },
        {
          "indexed": false,
          "internalType": "uint256",
          "name": "amount",
          "type": "uint256"
        },
        {
          "indexed": false,
          "internalType": "uint256",
          "name": "fromChainId",
          "type": "uint256"
        },
        {
          "indexed": false,
          "internalType": "uint256",
          "name": "toChainId",
          "type": "uint256"
        },
        {
          "indexed": false,
          "internalType": "uint256",
          "name": "fee",
          "type": "uint256"
        }
      ],
      "name": "BridgeInitiated",
      "type": "event"
    },
    {
      "anonymous": false,
      "inputs": [
        {
          "indexed": true,
          "internalType": "bytes32",
          "name": "txHash",
          "type": "bytes32"
        },
        {
          "indexed": true,
          "internalType": "address",
          "name": "sender",
          "type": "address"
        },
        {
          "indexed": false,
          "internalType": "uint256",
          "name": "amount",
          "type": "uint256"
        }
      ],
      "name": "BridgeRefunded",
      "type": "event"
    },
    {
      "anonymous": false,
      "inputs": [
        {
          "indexed": true,
          "internalType": "uint256",
          "name": "chainId",
          "type": "uint256"
        },
        {
          "indexed": false,
          "internalType": "bool",
          "name": "supported",
          "type": "bool"
        }
      ],
      "name": "ChainSupported",
      "type": "event"
    },
    {
      "anonymous": false,
      "inputs": [
        {
          "indexed": true,
          "internalType": "address",
          "name": "previousOwner",
          "type": "address"
        },
        {
          "indexed": true,
          "internalType": "address",
          "name": "newOwner",
          "type": "address"
        }
      ],
      "name": "OwnershipTransferred",
      "type": "event"
    },
    {
      "anonymous": false,
      "inputs": [
        {
          "indexed": false,
          "internalType": "address",
          "name": "account",
          "type": "address"
        }
      ],
      "name": "Paused",
      "type": "event"
    },
    {
      "anonymous": false,
      "inputs": [
        {
          "indexed": true,
          "internalType": "address",
          "name": "token",
          "type": "address"
        },
        {
          "indexed": false,
          "internalType": "bool",
          "name": "supported",
          "type": "bool"
        }
      ],
      "name": "TokenSupported",
      "type": "event"
    },
    {
      "anonymous": false,
      "inputs": [
        {
          "indexed": false,
          "internalType": "address",
          "name": "account",
          "type": "address"
        }
      ],
      "name": "Unpaused",
      "type": "event"
    },
    {
      "anonymous": false,
      "inputs": [
        {
          "indexed": true,
          "internalType": "address",
          "name": "validator",
          "type": "address"
        }
      ],
      "name": "ValidatorAdded",
      "type": "event"
    },
    {
      "anonymous": false,
      "inputs": [
        {
          "indexed": true,
          "internalType": "address",
          "name": "validator",
          "type": "address"
        }
      ],
      "name": "ValidatorRemoved",
      "type": "event"
    },
    {
      "inputs": [
        {
          "internalType": "address",
          "name": "_validator",
          "type": "address"
        }
      ],
      "name": "addValidator",
      "outputs": [],
      "stateMutability": "nonpayable",
      "type": "function"
    },
    {
      "inputs": [],
      "name": "bridgeFee",
      "outputs": [
        {
          "internalType": "uint256",
          "name": "",
          "type": "uint256"
        }
      ],
      "stateMutability": "view",
      "type": "function"
    },
    {
      "inputs": [
        {
          "internalType": "bytes32",
          "name": "",
          "type": "bytes32"
        }
      ],
      "name": "bridgeTransactions",
      "outputs": [
        {
          "internalType": "bytes32",
          "name": "txHash",
          "type": "bytes32"
        },
        {
          "internalType": "address",
          "name": "fromToken",
          "type": "address"
        },
        {
          "internalType": "address",
          "name": "toToken",
          "type": "address"
        },
        {
          "internalType": "uint256",
          "name": "amount",
          "type": "uint256"
        },
        {
          "internalType": "address",
          "name": "sender",
          "type": "address"
        },
        {
          "internalType": "address",
          "name": "recipient",
          "type": "address"
        },
        {
          "internalType": "uint256",
          "name": "fromChainId",
          "type": "uint256"
        },
        {
          "internalType": "uint256",
          "name": "toChainId",
          "type": "uint256"
        },
        {
          "internalType": "uint256",
          "name": "timestamp",
          "type": "uint256"
        },
        {
          "internalType": "enum XpSwapCrosschainBridge.BridgeStatus",
          "name": "status",
          "type": "uint8"
        },
        {
          "internalType": "uint256",
          "name": "fee",
          "type": "uint256"
        },
        {
          "internalType": "bytes32",
          "name": "proof",
          "type": "bytes32"
        }
      ],
      "stateMutability": "view",
      "type": "function"
    },
    {
      "inputs": [
        {
          "internalType": "uint256",
          "name": "_amount",
          "type": "uint256"
        }
      ],
      "name": "calculateBridgeFee",
      "outputs": [
        {
          "internalType": "uint256",
          "name": "",
          "type": "uint256"
        }
      ],
      "stateMutability": "view",
      "type": "function"
    },
    {
      "inputs": [
        {
          "internalType": "bytes32",
          "name": "_txHash",
          "type": "bytes32"
        },
        {
          "internalType": "address",
          "name": "_toToken",
          "type": "address"
        },
        {
          "internalType": "uint256",
          "name": "_amount",
          "type": "uint256"
        },
        {
          "internalType": "address",
          "name": "_recipient",
          "type": "address"
        },
        {
          "internalType": "bytes32",
          "name": "_proof",
          "type": "bytes32"
        }
      ],
      "name": "completeBridge",
      "outputs": [],
      "stateMutability": "nonpayable",
      "type": "function"
    },
    {
      "inputs": [
        {
          "internalType": "bytes32",
          "name": "",
          "type": "bytes32"
        }
      ],
      "name": "confirmationCount",
      "outputs": [
        {
          "internalType": "uint256",
          "name": "",
          "type": "uint256"
        }
      ],
      "stateMutability": "view",
      "type": "function"
    },
    {
      "inputs": [
        {
          "internalType": "address",
          "name": "_token",
          "type": "address"
        },
        {
          "internalType": "uint256",
          "name": "_amount",
          "type": "uint256"
        },
        {
          "internalType": "address",
          "name": "_to",
          "type": "address"
        }
      ],
      "name": "emergencyWithdraw",
      "outputs": [],
      "stateMutability": "nonpayable",
      "type": "function"
    },
    {
      "inputs": [
        {
          "internalType": "bytes32",
          "name": "_txHash",
          "type": "bytes32"
        },
        {
          "internalType": "string",
          "name": "_reason",
          "type": "string"
        }
      ],
      "name": "failBridge",
      "outputs": [],
      "stateMutability": "nonpayable",
      "type": "function"
    },
    {
      "inputs": [],
      "name": "feeRecipient",
      "outputs": [
        {
          "internalType": "address",
          "name": "",
          "type": "address"
        }
      ],
      "stateMutability": "view",
      "type": "function"
    },
    {
      "inputs": [
        {
          "internalType": "bytes32",
          "name": "_txHash",
          "type": "bytes32"
        }
      ],
      "name": "getBridgeStatus",
      "outputs": [
        {
          "internalType": "enum XpSwapCrosschainBridge.BridgeStatus",
          "name": "status",
          "type": "uint8"
        },
        {
          "internalType": "uint256",
          "name": "confirmations",
          "type": "uint256"
        },
        {
          "internalType": "uint256",
          "name": "required",
          "type": "uint256"
        }
      ],
      "stateMutability": "view",
      "type": "function"
    },
    {
      "inputs": [
        {
          "internalType": "bytes32",
          "name": "_txHash",
          "type": "bytes32"
        }
      ],
      "name": "getBridgeTransaction",
      "outputs": [
        {
          "internalType": "address",
          "name": "fromToken",
          "type": "address"
        },
        {
          "internalType": "address",
          "name": "toToken",
          "type": "address"
        },
        {
          "internalType": "uint256",
          "name": "amount",
          "type": "uint256"
        },
        {
          "internalType": "address",
          "name": "sender",
          "type": "address"
        },
        {
          "internalType": "address",
          "name": "recipient",
          "type": "address"
        },
        {
          "internalType": "uint256",
          "name": "fromChainId",
          "type": "uint256"
        },
        {
          "internalType": "uint256",
          "name": "toChainId",
          "type": "uint256"
        },
        {
          "internalType": "uint256",
          "name": "timestamp",
          "type": "uint256"
        },
        {
          "internalType": "enum XpSwapCrosschainBridge.BridgeStatus",
          "name": "status",
          "type": "uint8"
        },
        {
          "internalType": "uint256",
          "name": "fee",
          "type": "uint256"
        }
      ],
      "stateMutability": "view",
      "type": "function"
    },
    {
      "inputs": [
        {
          "internalType": "address",
          "name": "_fromToken",
          "type": "address"
        },
        {
          "internalType": "address",
          "name": "_toToken",
          "type": "address"
        },
        {
          "internalType": "uint256",
          "name": "_amount",
          "type": "uint256"
        },
        {
          "internalType": "address",
          "name": "_recipient",
          "type": "address"
        },
        {
          "internalType": "uint256",
          "name": "_toChainId",
          "type": "uint256"
        }
      ],
      "name": "initiateBridge",
      "outputs": [
        {
          "internalType": "bytes32",
          "name": "",
          "type": "bytes32"
        }
      ],
      "stateMutability": "payable",
      "type": "function"
    },
    {
      "inputs": [
        {
          "internalType": "uint256",
          "name": "_chainId",
          "type": "uint256"
        }
      ],
      "name": "isChainSupported",
      "outputs": [
        {
          "internalType": "bool",
          "name": "",
          "type": "bool"
        }
      ],
      "stateMutability": "view",
      "type": "function"
    },
    {
      "inputs": [
        {
          "internalType": "address",
          "name": "_token",
          "type": "address"
        }
      ],
      "name": "isTokenSupported",
      "outputs": [
        {
          "internalType": "bool",
          "name": "",
          "type": "bool"
        }
      ],
      "stateMutability": "view",
      "type": "function"
    },
    {
      "inputs": [
        {
          "internalType": "address",
          "name": "_validator",
          "type": "address"
        }
      ],
      "name": "isValidator",
      "outputs": [
        {
          "internalType": "bool",
          "name": "",
          "type": "bool"
        }
      ],
      "stateMutability": "view",
      "type": "function"
    },
    {
      "inputs": [],
      "name": "maxBridgeAmount",
      "outputs": [
        {
          "internalType": "uint256",
          "name": "",
          "type": "uint256"
        }
      ],
      "stateMutability": "view",
      "type": "function"
    },
    {
      "inputs": [],
      "name": "minBridgeAmount",
      "outputs": [
        {
          "internalType": "uint256",
          "name": "",
          "type": "uint256"
        }
      ],
      "stateMutability": "view",
      "type": "function"
    },
    {
      "inputs": [],
      "name": "owner",
      "outputs": [
        {
          "internalType": "address",
          "name": "",
          "type": "address"
        }
      ],
      "stateMutability": "view",
      "type": "function"
    },
    {
      "inputs": [],
      "name": "pause",
      "outputs": [],
      "stateMutability": "nonpayable",
      "type": "function"
    },
    {
      "inputs": [],
      "name": "paused",
      "outputs": [
        {
          "internalType": "bool",
          "name": "",
          "type": "bool"
        }
      ],
      "stateMutability": "view",
      "type": "function"
    },
    {
      "inputs": [
        {
          "internalType": "bytes32",
          "name": "",
          "type": "bytes32"
        }
      ],
      "name": "processedTxs",
      "outputs": [
        {
          "internalType": "bool",
          "name": "",
          "type": "bool"
        }
      ],
      "stateMutability": "view",
      "type": "function"
    },
    {
      "inputs": [
        {
          "internalType": "bytes32",
          "name": "_txHash",
          "type": "bytes32"
        }
      ],
      "name": "refundBridge",
      "outputs": [],
      "stateMutability": "nonpayable",
      "type": "function"
    },
    {
      "inputs": [
        {
          "internalType": "address",
          "name": "_validator",
          "type": "address"
        }
      ],
      "name": "removeValidator",
      "outputs": [],
      "stateMutability": "nonpayable",
      "type": "function"
    },
    {
      "inputs": [],
      "name": "renounceOwnership",
      "outputs": [],
      "stateMutability": "nonpayable",
      "type": "function"
    },
    {
      "inputs": [],
      "name": "requiredConfirmations",
      "outputs": [
        {
          "internalType": "uint256",
          "name": "",
          "type": "uint256"
        }
      ],
      "stateMutability": "view",
      "type": "function"
    },
    {
      "inputs": [
        {
          "internalType": "uint256",
          "name": "_minAmount",
          "type": "uint256"
        },
        {
          "internalType": "uint256",
          "name": "_maxAmount",
          "type": "uint256"
        }
      ],
      "name": "setBridgeAmountLimits",
      "outputs": [],
      "stateMutability": "nonpayable",
      "type": "function"
    },
    {
      "inputs": [
        {
          "internalType": "uint256",
          "name": "_newFee",
          "type": "uint256"
        }
      ],
      "name": "setBridgeFee",
      "outputs": [],
      "stateMutability": "nonpayable",
      "type": "function"
    },
    {
      "inputs": [
        {
          "internalType": "address",
          "name": "_newRecipient",
          "type": "address"
        }
      ],
      "name": "setFeeRecipient",
      "outputs": [],
      "stateMutability": "nonpayable",
      "type": "function"
    },
    {
      "inputs": [
        {
          "internalType": "uint256",
          "name": "_confirmations",
          "type": "uint256"
        }
      ],
      "name": "setRequiredConfirmations",
      "outputs": [],
      "stateMutability": "nonpayable",
      "type": "function"
    },
    {
      "inputs": [
        {
          "internalType": "uint256",
          "name": "_chainId",
          "type": "uint256"
        },
        {
          "internalType": "bool",
          "name": "_supported",
          "type": "bool"
        }
      ],
      "name": "setSupportedChain",
      "outputs": [],
      "stateMutability": "nonpayable",
      "type": "function"
    },
    {
      "inputs": [
        {
          "internalType": "address",
          "name": "_token",
          "type": "address"
        },
        {
          "internalType": "bool",
          "name": "_supported",
          "type": "bool"
        }
      ],
      "name": "setSupportedToken",
      "outputs": [],
      "stateMutability": "nonpayable",
      "type": "function"
    },
    {
      "inputs": [
        {
          "internalType": "uint256",
          "name": "",
          "type": "uint256"
        }
      ],
      "name": "supportedChains",
      "outputs": [
        {
          "internalType": "bool",
          "name": "",
          "type": "bool"
        }
      ],
      "stateMutability": "view",
      "type": "function"
    },
    {
      "inputs": [
        {
          "internalType": "address",
          "name": "",
          "type": "address"
        }
      ],
      "name": "supportedTokens",
      "outputs": [
        {
          "internalType": "bool",
          "name": "",
          "type": "bool"
        }
      ],
      "stateMutability": "view",
      "type": "function"
    },
    {
      "inputs": [
        {
          "internalType": "address",
          "name": "newOwner",
          "type": "address"
        }
      ],
      "name": "transferOwnership",
      "outputs": [],
      "stateMutability": "nonpayable",
      "type": "function"
    },
    {
      "inputs": [],
      "name": "unpause",
      "outputs": [],
      "stateMutability": "nonpayable",
      "type": "function"
    },
    {
      "inputs": [
        {
          "internalType": "bytes32",
          "name": "",
          "type": "bytes32"
        },
        {
          "internalType": "address",
          "name": "",
          "type": "address"
        }
      ],
      "name": "validatorConfirmations",
      "outputs": [
        {
          "internalType": "bool",
          "name": "",
          "type": "bool"
        }
      ],
      "stateMutability": "view",
      "type": "function"
    },
    {
      "inputs": [],
      "name": "validatorCount",
      "outputs": [
        {
          "internalType": "uint256",
          "name": "",
          "type": "uint256"
        }
      ],
      "stateMutability": "view",
      "type": "function"
    },
    {
      "inputs": [
        {
          "internalType": "address",
          "name": "",
          "type": "address"
        }
      ],
      "name": "validators",
      "outputs": [
        {
          "internalType": "bool",
          "name": "",
          "type": "bool"
        }
      ],
      "stateMutability": "view",
      "type": "function"
    }
  ],
  "bytecode": "0x6080604052600a600955670de0b6b3a7640000600a5569d3c21bcecceda1000000600b556003600c553480156200003557600080fd5b506040516200238e3803806200238e83398101604081905262000058916200017b565b600160005533806200008557604051631e4fbdf760e01b8152600060048201526024015b60405180910390fd5b620000908162000129565b506001600160a01b038216620000e95760405162461bcd60e51b815260206004820152601560248201527f496e76616c69642066656520726563697069656e74000000000000000000000060448201526064016200007c565b600e80546001600160a01b0319166001600160a01b0393909316929092179091556000908152600460205260409020805460ff19166001179055620001b7565b600180546001600160a01b038381166001600160a01b0319831681179093556040519116919082907f8be0079c531659141344cd1fd0a4f28419497f9722a3daafe3b4186f6b6457e090600090a35050565b600080604083850312156200018f57600080fd5b82516001600160a01b0381168114620001a757600080fd5b6020939093015192949293505050565b6121c780620001c76000396000f3fe6080604052600436106102245760003560e01c80637b7c343d11610123578063b4a0b7b7116100ab578063f2fde38b1161006f578063f2fde38b146107c8578063f871da4c146107e8578063fa52c7d814610808578063facd743b14610838578063fbf0b0fc1461087157600080fd5b8063b4a0b7b714610732578063c3c2247514610752578063d81ebdff14610768578063e74b981b14610788578063e7986466146107a857600080fd5b80638d751415116100f25780638d7514151461064e5780638da5cb5b146106a4578063998cdf83146106c25780639e16f217146106e2578063ade1af121461071257600080fd5b80637b7c343d146105ed57806382b12dd71461060d57806382e717f7146106235780638456cb591461063957600080fd5b80635221c1f0116101b157806360132c9c1161017557806360132c9c146104b157806368c4ac26146104c75780636c63f971146104f7578063715018a61461059f57806375151b63146105b457600080fd5b80635221c1f0146103d5578063548d496f14610415578063551512de1461044557806359bf77df146104655780635c975abb1461049257600080fd5b806340a141ff116101f857806340a141ff1461031d57806343685ef81461033d578063469048401461035d57806346c6f5f4146103955780634d238c8e146103b557600080fd5b806224a1b8146102295780630f43a677146102cf57806332c9dbe2146102f35780633f4ba83a14610306575b600080fd5b34801561023557600080fd5b506102b0610244366004611cc4565b60009081526002602081905260409091206001810154918101546003820154600483015460058401546006850154600786015460088701546009880154600a909801546001600160a01b03998a169a978a1699969895871697969094169592949193909260ff90921691565b6040516102c69a99989796959493929190611d15565b60405180910390f35b3480156102db57600080fd5b506102e5600d5481565b6040519081526020016102c6565b6102e5610301366004611d9a565b6108ac565b34801561031257600080fd5b5061031b610e37565b005b34801561032957600080fd5b5061031b610338366004611def565b610e49565b34801561034957600080fd5b5061031b610358366004611e27565b610f23565b34801561036957600080fd5b50600e5461037d906001600160a01b031681565b6040516001600160a01b0390911681526020016102c6565b3480156103a157600080fd5b5061031b6103b0366004611ef0565b611028565b3480156103c157600080fd5b5061031b6103d0366004611def565b6110cb565b3480156103e157600080fd5b506104056103f0366004611cc4565b60009081526004602052604090205460ff1690565b60405190151581526020016102c6565b34801561042157600080fd5b50610405610430366004611cc4565b60046020526000908152604090205460ff1681565b34801561045157600080fd5b5061031b610460366004611f20565b6111ff565b34801561047157600080fd5b506102e5610480366004611cc4565b60086020526000908152604090205481565b34801561049e57600080fd5b50600154600160a01b900460ff16610405565b3480156104bd57600080fd5b506102e5600b5481565b3480156104d357600080fd5b506104056104e2366004611def565b60036020526000908152604090205460ff1681565b34801561050357600080fd5b50610587610512366004611cc4565b600260208190526000918252604090912080546001820154928201546003830154600484015460058501546006860154600787015460088801546009890154600a8a0154600b909a0154989a6001600160a01b039081169a9881169997989681169795169593949293919260ff90911691908c565b6040516102c69c9b9a99989796959493929190611f5c565b3480156105ab57600080fd5b5061031b6112ca565b3480156105c057600080fd5b506104056105cf366004611def565b6001600160a01b031660009081526003602052604090205460ff1690565b3480156105f957600080fd5b5061031b610608366004611cc4565b6112dc565b34801561061957600080fd5b506102e560095481565b34801561062f57600080fd5b506102e5600c5481565b34801561064557600080fd5b5061031b611397565b34801561065a57600080fd5b50610695610669366004611cc4565b600090815260026020908152604080832060090154600890925290912054600c5460ff90921692909190565b6040516102c693929190611fd2565b3480156106b057600080fd5b506001546001600160a01b031661037d565b3480156106ce57600080fd5b5061031b6106dd366004611cc4565b6113a7565b3480156106ee57600080fd5b506104056106fd366004611cc4565b60066020526000908152604090205460ff1681565b34801561071e57600080fd5b506102e561072d366004611cc4565b6113fe565b34801561073e57600080fd5b5061031b61074d366004611ff1565b611421565b34801561075e57600080fd5b506102e5600a5481565b34801561077457600080fd5b5061031b610783366004612013565b6114e9565b34801561079457600080fd5b5061031b6107a3366004611def565b611800565b3480156107b457600080fd5b5061031b6107c336600461203b565b611880565b3480156107d457600080fd5b5061031b6107e3366004611def565b61192e565b3480156107f457600080fd5b5061031b610803366004611cc4565b61196c565b34801561081457600080fd5b50610405610823366004611def565b60056020526000908152604090205460ff1681565b34801561084457600080fd5b50610405610853366004611def565b6001600160a01b031660009081526005602052604090205460ff1690565b34801561087d57600080fd5b5061040561088c366004612067565b600760209081526000928352604080842090915290825290205460ff1681565b60006108b6611b2e565b6108be611b58565b6001600160a01b03861660009081526003602052604090205460ff166109215760405162461bcd60e51b8152602060048201526013602482015272151bdad95b881b9bdd081cdd5c1c1bdc9d1959606a1b60448201526064015b60405180910390fd5b60008281526004602052604090205460ff166109755760405162461bcd60e51b815260206004820152601360248201527210da185a5b881b9bdd081cdd5c1c1bdc9d1959606a1b6044820152606401610918565b600a548410156109be5760405162461bcd60e51b8152602060048201526014602482015273416d6f756e742062656c6f77206d696e696d756d60601b6044820152606401610918565b600b54841115610a095760405162461bcd60e51b8152602060048201526016602482015275416d6f756e742065786365656473206d6178696d756d60501b6044820152606401610918565b6001600160a01b038316610a535760405162461bcd60e51b8152602060048201526011602482015270125b9d985b1a59081c9958da5c1a595b9d607a1b6044820152606401610918565b468203610aa25760405162461bcd60e51b815260206004820152601b60248201527f43616e6e6f742062726964676520746f2073616d6520636861696e00000000006044820152606401610918565b600061271060095486610ab591906120a9565b610abf91906120c0565b90506000610acd82876120e2565b6040516323b872dd60e01b8152336004820152306024820152604481018890529091506001600160a01b038916906323b872dd906064016020604051808303816000875af1158015610b23573d6000803e3d6000fd5b505050506040513d601f19601f82011682018060405250810190610b4791906120f5565b508115610bc757600e5460405163a9059cbb60e01b81526001600160a01b039182166004820152602481018490529089169063a9059cbb906044016020604051808303816000875af1158015610ba1573d6000803e3d6000fd5b505050506040513d601f19601f82011682018060405250810190610bc591906120f5565b505b6040516bffffffffffffffffffffffff1933606090811b8216602084015287811b821660348401528a811b8216604884015289901b16605c8201526070810187905246609082015260b081018590524260d08201524360f0820152600090610110016040516020818303038152906040528051906020012090506040518061018001604052808281526020018a6001600160a01b03168152602001896001600160a01b03168152602001838152602001336001600160a01b03168152602001876001600160a01b0316815260200146815260200186815260200142815260200160006004811115610cba57610cba611cdd565b81526020808201869052600060409283018190528481526002808352908390208451815591840151600180840180546001600160a01b03199081166001600160a01b03948516179091559486015192840180548616938316939093179092556060850151600384015560808501516004808501805487169284169290921790915560a086015160058501805490961692169190911790935560c0840151600683015560e08401516007830155610100840151600883015561012084015160098301805493949193909260ff19909116918490811115610d9b57610d9b611cdd565b0217905550610140820151600a82015561016090910151600b90910155604080516001600160a01b038b811682528a811660208301529181018490524660608201526080810187905260a0810185905290871690339083907fcf75ef11234ba7c0e00e6ba404a57cbc4bd2e80b52b365bcfaab9deef35ee10d9060c00160405180910390a492505050610e2e6001600055565b95945050505050565b610e3f611b83565b610e47611bb0565b565b610e51611b83565b6001600160a01b03811660009081526005602052604090205460ff16610eb95760405162461bcd60e51b815260206004820152601860248201527f56616c696461746f7220646f6573206e6f7420657869737400000000000000006044820152606401610918565b6001600160a01b0381166000908152600560205260408120805460ff19169055600d805491610ee783612112565b90915550506040516001600160a01b038216907fe1434e25d6611e0db941968fdc97811c982ac1602e951637d206f5fdda9dd8f190600090a250565b3360009081526005602052604090205460ff16610f745760405162461bcd60e51b815260206004820152600f60248201526e2737ba1030903b30b634b230ba37b960891b6044820152606401610918565b600082815260026020526040812090600982015460ff166004811115610f9c57610f9c611cdd565b14610fda5760405162461bcd60e51b815260206004820152600e60248201526d496e76616c69642073746174757360901b6044820152606401610918565b60098101805460ff1916600317905560405183907fd2b4dd79c80ad92da5a6dd7455df9e531b9ad078fe353998dc6fc5c442ddc34f9061101b908590612129565b60405180910390a2505050565b611030611b83565b600082116110735760405162461bcd60e51b815260206004820152601060248201526f125b9d985b1a590818da185a5b88125160821b6044820152606401610918565b600082815260046020908152604091829020805460ff1916841515908117909155915191825283917fe78910fc1a08062969a9edf6b274d453a04a1734507fabbd5bb445d5cb8eaeae91015b60405180910390a25050565b6110d3611b83565b6001600160a01b0381166111295760405162461bcd60e51b815260206004820152601960248201527f496e76616c69642076616c696461746f722061646472657373000000000000006044820152606401610918565b6001600160a01b03811660009081526005602052604090205460ff16156111925760405162461bcd60e51b815260206004820152601860248201527f56616c696461746f7220616c72656164792065786973747300000000000000006044820152606401610918565b6001600160a01b0381166000908152600560205260408120805460ff19166001179055600d8054916111c383612178565b90915550506040516001600160a01b038216907fe366c1c0452ed8eec96861e9e54141ebff23c9ec89fe27b996b45f5ec388498790600090a250565b611207611b83565b6001600160a01b0381166112515760405162461bcd60e51b8152602060048201526011602482015270125b9d985b1a59081c9958da5c1a595b9d607a1b6044820152606401610918565b60405163a9059cbb60e01b81526001600160a01b0382811660048301526024820184905284169063a9059cbb906044016020604051808303816000875af11580156112a0573d6000803e3d6000fd5b505050506040513d601f19601f820116820180604052508101906112c491906120f5565b50505050565b6112d2611b83565b610e476000611c05565b6112e4611b83565b600081116113405760405162461bcd60e51b8152602060048201526024808201527f436f6e6669726d6174696f6e73206d75737420626520677265617465722074686044820152630616e20360e41b6064820152608401610918565b600d548111156113925760405162461bcd60e51b815260206004820152601d60248201527f43616e6e6f74206578636565642076616c696461746f7220636f756e740000006044820152606401610918565b600c55565b61139f611b83565b610e47611c57565b6113af611b83565b6103e88111156113f95760405162461bcd60e51b81526020600482015260156024820152744665652063616e6e6f74206578636565642031302560581b6044820152606401610918565b600955565b60006127106009548361141191906120a9565b61141b91906120c0565b92915050565b611429611b83565b600082116114835760405162461bcd60e51b815260206004820152602160248201527f4d696e20616d6f756e74206d7573742062652067726561746572207468616e206044820152600360fc1b6064820152608401610918565b8181116114de5760405162461bcd60e51b815260206004820152602360248201527f4d617820616d6f756e74206d7573742062652067726561746572207468616e2060448201526236b4b760e91b6064820152608401610918565b600a91909155600b55565b6114f1611b2e565b6114f9611b58565b3360009081526005602052604090205460ff1661154a5760405162461bcd60e51b815260206004820152600f60248201526e2737ba1030903b30b634b230ba37b960891b6044820152606401610918565b60008581526006602052604090205460ff16156115a95760405162461bcd60e51b815260206004820152601d60248201527f5472616e73616374696f6e20616c72656164792070726f6365737365640000006044820152606401610918565b600085815260076020908152604080832033845290915290205460ff161561161f5760405162461bcd60e51b815260206004820152602360248201527f416c726561647920636f6e6669726d656420627920746869732076616c6964616044820152623a37b960e91b6064820152608401610918565b60008581526007602090815260408083203384528252808320805460ff191660011790558783526008909152812080549161165983612178565b9091555050600085815260086020908152604091829020549151918252339187917f56d351f29f0af8a2905b75593bcdf39bb3300e4207130a2cf74c5049c9665003910160405180910390a3600c54600086815260086020526040902054106117ef5760008581526006602052604090819020805460ff191660011790555163a9059cbb60e01b81526001600160a01b0383811660048301526024820185905285169063a9059cbb906044016020604051808303816000875af1925050508015611740575060408051601f3d908101601f1916820190925261173d918101906120f5565b60015b6117a957847fd2b4dd79c80ad92da5a6dd7455df9e531b9ad078fe353998dc6fc5c442ddc34f60405161179c90602080825260159082015274151bdad95b881d1c985b9cd9995c8819985a5b1959605a1b604082015260600190565b60405180910390a26117ef565b50816001600160a01b0316857f3a5e0271cd79026f0993aa13e6dd17d1f34284aa2340c1d2c33653b9a4433ee9856040516117e691815260200190565b60405180910390a35b6117f96001600055565b5050505050565b611808611b83565b6001600160a01b03811661185e5760405162461bcd60e51b815260206004820152601960248201527f496e76616c696420726563697069656e742061646472657373000000000000006044820152606401610918565b600e80546001600160a01b0319166001600160a01b0392909216919091179055565b611888611b83565b6001600160a01b0382166118d65760405162461bcd60e51b8152602060048201526015602482015274496e76616c696420746f6b656e206164647265737360581b6044820152606401610918565b6001600160a01b038216600081815260036020908152604091829020805460ff191685151590811790915591519182527fd86c88b4a367d9b81a6e00c9d3f7d01657bffef358fa8968c91c045ae99f0d5291016110bf565b611936611b83565b6001600160a01b03811661196057604051631e4fbdf760e01b815260006004820152602401610918565b61196981611c05565b50565b611974611b2e565b60008181526002602052604090206003600982015460ff16600481111561199d5761199d611cdd565b146119de5760405162461bcd60e51b8152602060048201526011602482015270109c9a5919d9481b9bdd0819985a5b1959607a1b6044820152606401610918565b60048101546001600160a01b0316331480611a0857503360009081526005602052604090205460ff165b611a455760405162461bcd60e51b815260206004820152600e60248201526d139bdd08185d5d1a1bdc9a5e995960921b6044820152606401610918565b60098101805460ff19166004908117909155600182015481830154600384015460405163a9059cbb60e01b81526001600160a01b03928316948101949094526024840152169063a9059cbb906044016020604051808303816000875af1158015611ab3573d6000803e3d6000fd5b505050506040513d601f19601f82011682018060405250810190611ad791906120f5565b50600481015460038201546040519081526001600160a01b039091169083907fc3b9b3ab0a54aa2a7e422bad8473a53120ae778b4d022083cc89aebaf0a4a7cb9060200160405180910390a3506119696001600055565b600260005403611b5157604051633ee5aeb560e01b815260040160405180910390fd5b6002600055565b600154600160a01b900460ff1615610e475760405163d93c066560e01b815260040160405180910390fd5b6001546001600160a01b03163314610e475760405163118cdaa760e01b8152336004820152602401610918565b611bb8611c9a565b6001805460ff60a01b191690557f5db9ee0a495bf2e6ff9c91a7834c1ba4fdd244a5e8aa4e537bd38aeae4b073aa335b6040516001600160a01b03909116815260200160405180910390a1565b600180546001600160a01b038381166001600160a01b0319831681179093556040519116919082907f8be0079c531659141344cd1fd0a4f28419497f9722a3daafe3b4186f6b6457e090600090a35050565b611c5f611b58565b6001805460ff60a01b1916600160a01b1790557f62e78cea01bee320cd4e420270b5ea74000d11b0c9f74754ebdbfc544b05a258611be83390565b600154600160a01b900460ff16610e4757604051638dfc202b60e01b815260040160405180910390fd5b600060208284031215611cd657600080fd5b5035919050565b634e487b7160e01b600052602160045260246000fd5b60058110611d1157634e487b7160e01b600052602160045260246000fd5b9052565b6001600160a01b038b811682528a81166020830152604082018a905288811660608301528716608082015260a0810186905260c0810185905260e081018490526101408101611d68610100830185611cf3565b826101208301529b9a5050505050505050505050565b80356001600160a01b0381168114611d9557600080fd5b919050565b600080600080600060a08688031215611db257600080fd5b611dbb86611d7e565b9450611dc960208701611d7e565b935060408601359250611dde60608701611d7e565b949793965091946080013592915050565b600060208284031215611e0157600080fd5b611e0a82611d7e565b9392505050565b634e487b7160e01b600052604160045260246000fd5b60008060408385031215611e3a57600080fd5b82359150602083013567ffffffffffffffff80821115611e5957600080fd5b818501915085601f830112611e6d57600080fd5b813581811115611e7f57611e7f611e11565b604051601f8201601f19908116603f01168101908382118183101715611ea757611ea7611e11565b81604052828152886020848701011115611ec057600080fd5b8260208601602083013760006020848301015280955050505050509250929050565b801515811461196957600080fd5b60008060408385031215611f0357600080fd5b823591506020830135611f1581611ee2565b809150509250929050565b600080600060608486031215611f3557600080fd5b611f3e84611d7e565b925060208401359150611f5360408501611d7e565b90509250925092565b8c81526001600160a01b038c811660208301528b81166040830152606082018b90528981166080830152881660a082015260c0810187905260e0810186905261010081018590526101808101611fb6610120830186611cf3565b61014082019390935261016001529a9950505050505050505050565b60608101611fe08286611cf3565b602082019390935260400152919050565b6000806040838503121561200457600080fd5b50508035926020909101359150565b600080600080600060a0868803121561202b57600080fd5b85359450611dc960208701611d7e565b6000806040838503121561204e57600080fd5b61205783611d7e565b91506020830135611f1581611ee2565b6000806040838503121561207a57600080fd5b8235915061208a60208401611d7e565b90509250929050565b634e487b7160e01b600052601160045260246000fd5b808202811582820484141761141b5761141b612093565b6000826120dd57634e487b7160e01b600052601260045260246000fd5b500490565b8181038181111561141b5761141b612093565b60006020828403121561210757600080fd5b8151611e0a81611ee2565b60008161212157612121612093565b506000190190565b60006020808352835180602085015260005b818110156121575785810183015185820160400152820161213b565b506000604082860101526040601f19601f8301168501019250505092915050565b60006001820161218a5761218a612093565b506001019056fea2646970667358221220d07ad1d29b647b4961620844031fe23ae92888f2e8ae7a735866b6c43620883864736f6c63430008180033",
  "linkReferences": {},
  "deployedLinkReferences": {}
}